{
	"contracts/Yosemite.sol": {
		"Yosemite": {
			"abi": [
				{
					"inputs": [],
					"stateMutability": "nonpayable",
					"type": "constructor"
				},
				{
					"inputs": [
						{
							"internalType": "address",
							"name": "_newManager",
							"type": "address"
						}
					],
					"name": "addManagers",
					"outputs": [
						{
							"internalType": "address[]",
							"name": "",
							"type": "address[]"
						}
					],
					"stateMutability": "nonpayable",
					"type": "function"
				},
				{
					"inputs": [],
					"name": "allMembersAddresses",
					"outputs": [
						{
							"internalType": "address[]",
							"name": "",
							"type": "address[]"
						}
					],
					"stateMutability": "view",
					"type": "function"
				},
				{
					"inputs": [
						{
							"internalType": "address",
							"name": "",
							"type": "address"
						}
					],
					"name": "climberId",
					"outputs": [
						{
							"internalType": "uint256",
							"name": "",
							"type": "uint256"
						}
					],
					"stateMutability": "view",
					"type": "function"
				},
				{
					"inputs": [
						{
							"internalType": "address",
							"name": "",
							"type": "address"
						}
					],
					"name": "climberName",
					"outputs": [
						{
							"internalType": "string",
							"name": "",
							"type": "string"
						}
					],
					"stateMutability": "view",
					"type": "function"
				},
				{
					"inputs": [
						{
							"internalType": "uint256",
							"name": "",
							"type": "uint256"
						}
					],
					"name": "contractManagers",
					"outputs": [
						{
							"internalType": "address",
							"name": "",
							"type": "address"
						}
					],
					"stateMutability": "view",
					"type": "function"
				},
				{
					"inputs": [
						{
							"internalType": "string",
							"name": "_title",
							"type": "string"
						},
						{
							"internalType": "uint256",
							"name": "_grade",
							"type": "uint256"
						}
					],
					"name": "createRoute",
					"outputs": [],
					"stateMutability": "nonpayable",
					"type": "function"
				},
				{
					"inputs": [
						{
							"internalType": "uint256",
							"name": "_routeId",
							"type": "uint256"
						}
					],
					"name": "firstAscend",
					"outputs": [
						{
							"internalType": "address",
							"name": "",
							"type": "address"
						}
					],
					"stateMutability": "view",
					"type": "function"
				},
				{
					"inputs": [
						{
							"internalType": "address",
							"name": "",
							"type": "address"
						}
					],
					"name": "isMember",
					"outputs": [
						{
							"internalType": "bool",
							"name": "",
							"type": "bool"
						}
					],
					"stateMutability": "view",
					"type": "function"
				},
				{
					"inputs": [
						{
							"internalType": "address",
							"name": "_addr",
							"type": "address"
						},
						{
							"internalType": "uint256",
							"name": "_routeId",
							"type": "uint256"
						}
					],
					"name": "mappingRouteClimber",
					"outputs": [],
					"stateMutability": "nonpayable",
					"type": "function"
				},
				{
					"inputs": [],
					"name": "owner",
					"outputs": [
						{
							"internalType": "address",
							"name": "",
							"type": "address"
						}
					],
					"stateMutability": "view",
					"type": "function"
				},
				{
					"inputs": [
						{
							"internalType": "uint256",
							"name": "",
							"type": "uint256"
						}
					],
					"name": "routes",
					"outputs": [
						{
							"internalType": "uint256",
							"name": "routeId",
							"type": "uint256"
						},
						{
							"internalType": "string",
							"name": "title",
							"type": "string"
						},
						{
							"internalType": "uint256",
							"name": "grade",
							"type": "uint256"
						},
						{
							"internalType": "address",
							"name": "firstAscent",
							"type": "address"
						}
					],
					"stateMutability": "view",
					"type": "function"
				},
				{
					"inputs": [
						{
							"internalType": "string",
							"name": "_name",
							"type": "string"
						}
					],
					"name": "setClimberName",
					"outputs": [
						{
							"internalType": "string",
							"name": "",
							"type": "string"
						}
					],
					"stateMutability": "nonpayable",
					"type": "function"
				},
				{
					"inputs": [
						{
							"internalType": "address",
							"name": "_climber",
							"type": "address"
						},
						{
							"internalType": "uint256",
							"name": "_routeId",
							"type": "uint256"
						}
					],
					"name": "setFirstAscent",
					"outputs": [
						{
							"internalType": "address",
							"name": "",
							"type": "address"
						}
					],
					"stateMutability": "view",
					"type": "function"
				},
				{
					"inputs": [
						{
							"internalType": "address",
							"name": "_newClimber",
							"type": "address"
						}
					],
					"name": "setOtherClimbersId",
					"outputs": [
						{
							"internalType": "string",
							"name": "",
							"type": "string"
						}
					],
					"stateMutability": "nonpayable",
					"type": "function"
				},
				{
					"inputs": [],
					"name": "totalUsers",
					"outputs": [
						{
							"internalType": "uint256",
							"name": "",
							"type": "uint256"
						}
					],
					"stateMutability": "view",
					"type": "function"
				},
				{
					"inputs": [
						{
							"internalType": "uint256",
							"name": "",
							"type": "uint256"
						}
					],
					"name": "usersArr",
					"outputs": [
						{
							"internalType": "address",
							"name": "",
							"type": "address"
						}
					],
					"stateMutability": "view",
					"type": "function"
				}
			],
			"devdoc": {
				"kind": "dev",
				"methods": {},
				"version": 1
			},
			"evm": {
				"assembly": "    /* \"contracts/Yosemite.sol\":61:3914  contract Yosemite {... */\n  mstore(0x40, 0x80)\n    /* \"contracts/Yosemite.sol\":2791:2797  routes */\n  0x06\n    /* \"contracts/Yosemite.sol\":2791:2804  routes.length */\n  dup1\n  sload\n  swap1\n  pop\n    /* \"contracts/Yosemite.sol\":2772:2804  uint routesCount = routes.length */\n  0x07\n  sstore\n    /* \"contracts/Yosemite.sol\":249:371  constructor() {... */\n  callvalue\n  dup1\n  iszero\n  tag_1\n  jumpi\n  0x00\n  dup1\n  revert\ntag_1:\n  pop\n    /* \"contracts/Yosemite.sol\":281:291  msg.sender */\n  caller\n    /* \"contracts/Yosemite.sol\":273:278  owner */\n  0x00\n  dup1\n    /* \"contracts/Yosemite.sol\":273:291  owner = msg.sender */\n  0x0100\n  exp\n  dup2\n  sload\n  dup2\n  0xffffffffffffffffffffffffffffffffffffffff\n  mul\n  not\n  and\n  swap1\n  dup4\n  0xffffffffffffffffffffffffffffffffffffffff\n  and\n  mul\n  or\n  swap1\n  sstore\n  pop\n    /* \"contracts/Yosemite.sol\":301:317  contractManagers */\n  0x01\n    /* \"contracts/Yosemite.sol\":323:328  owner */\n  0x00\n  dup1\n  sload\n  swap1\n  0x0100\n  exp\n  swap1\n  div\n  0xffffffffffffffffffffffffffffffffffffffff\n  and\n    /* \"contracts/Yosemite.sol\":301:329  contractManagers.push(owner) */\n  swap1\n  dup1\n  0x01\n  dup2\n  sload\n  add\n  dup1\n  dup3\n  sstore\n  dup1\n  swap2\n  pop\n  pop\n  0x01\n  swap1\n  sub\n  swap1\n  0x00\n  mstore\n  keccak256(0x00, 0x20)\n  add\n  0x00\n  swap1\n  swap2\n  swap1\n  swap2\n  swap1\n  swap2\n  0x0100\n  exp\n  dup2\n  sload\n  dup2\n  0xffffffffffffffffffffffffffffffffffffffff\n  mul\n  not\n  and\n  swap1\n  dup4\n  0xffffffffffffffffffffffffffffffffffffffff\n  and\n  mul\n  or\n  swap1\n  sstore\n  pop\n    /* \"contracts/Yosemite.sol\":339:364  setOtherClimbersId(owner) */\n  tag_5\n    /* \"contracts/Yosemite.sol\":358:363  owner */\n  0x00\n  dup1\n  sload\n  swap1\n  0x0100\n  exp\n  swap1\n  div\n  0xffffffffffffffffffffffffffffffffffffffff\n  and\n    /* \"contracts/Yosemite.sol\":339:357  setOtherClimbersId */\n  shl(0x20, tag_6)\n    /* \"contracts/Yosemite.sol\":339:364  setOtherClimbersId(owner) */\n  0x20\n  shr\n  jump\t// in\ntag_5:\n  pop\n    /* \"contracts/Yosemite.sol\":61:3914  contract Yosemite {... */\n  jump(tag_7)\n    /* \"contracts/Yosemite.sol\":1640:2129  function setOtherClimbersId(address _newClimber) public returns(string memory) {... */\ntag_6:\n    /* \"contracts/Yosemite.sol\":1704:1717  string memory */\n  0x60\n    /* \"contracts/Yosemite.sol\":1751:1756  owner */\n  0x00\n  dup1\n  sload\n  swap1\n  0x0100\n  exp\n  swap1\n  div\n  0xffffffffffffffffffffffffffffffffffffffff\n  and\n    /* \"contracts/Yosemite.sol\":1737:1756  msg.sender == owner */\n  0xffffffffffffffffffffffffffffffffffffffff\n  and\n    /* \"contracts/Yosemite.sol\":1737:1747  msg.sender */\n  caller\n    /* \"contracts/Yosemite.sol\":1737:1756  msg.sender == owner */\n  0xffffffffffffffffffffffffffffffffffffffff\n  and\n  eq\n    /* \"contracts/Yosemite.sol\":1729:1757  require(msg.sender == owner) */\n  tag_9\n  jumpi\n  0x00\n  dup1\n  revert\ntag_9:\n    /* \"contracts/Yosemite.sol\":1827:1835  isMember */\n  0x04\n    /* \"contracts/Yosemite.sol\":1827:1848  isMember[_newClimber] */\n  0x00\n    /* \"contracts/Yosemite.sol\":1836:1847  _newClimber */\n  dup4\n    /* \"contracts/Yosemite.sol\":1827:1848  isMember[_newClimber] */\n  0xffffffffffffffffffffffffffffffffffffffff\n  and\n  0xffffffffffffffffffffffffffffffffffffffff\n  and\n  dup2\n  mstore\n  0x20\n  add\n  swap1\n  dup2\n  mstore\n  0x20\n  add\n  0x00\n  keccak256\n  0x00\n  swap1\n  sload\n  swap1\n  0x0100\n  exp\n  swap1\n  div\n  0xff\n  and\n    /* \"contracts/Yosemite.sol\":1823:2123  if(!isMember[_newClimber]) {... */\n  tag_10\n  jumpi\n    /* \"contracts/Yosemite.sol\":1908:1909  1 */\n  0x01\n    /* \"contracts/Yosemite.sol\":1890:1898  usersArr */\n  0x05\n    /* \"contracts/Yosemite.sol\":1890:1905  usersArr.length */\n  dup1\n  sload\n  swap1\n  pop\n    /* \"contracts/Yosemite.sol\":1890:1909  usersArr.length + 1 */\n  tag_11\n  swap2\n  swap1\n  tag_12\n  jump\t// in\ntag_11:\n    /* \"contracts/Yosemite.sol\":1864:1873  climberId */\n  0x02\n    /* \"contracts/Yosemite.sol\":1864:1886  climberId[_newClimber] */\n  0x00\n    /* \"contracts/Yosemite.sol\":1874:1885  _newClimber */\n  dup5\n    /* \"contracts/Yosemite.sol\":1864:1886  climberId[_newClimber] */\n  0xffffffffffffffffffffffffffffffffffffffff\n  and\n  0xffffffffffffffffffffffffffffffffffffffff\n  and\n  dup2\n  mstore\n  0x20\n  add\n  swap1\n  dup2\n  mstore\n  0x20\n  add\n  0x00\n  keccak256\n    /* \"contracts/Yosemite.sol\":1864:1910  climberId[_newClimber] = (usersArr.length + 1) */\n  dup2\n  swap1\n  sstore\n  pop\n    /* \"contracts/Yosemite.sol\":1924:1932  usersArr */\n  0x05\n    /* \"contracts/Yosemite.sol\":1938:1949  _newClimber */\n  dup3\n    /* \"contracts/Yosemite.sol\":1924:1950  usersArr.push(_newClimber) */\n  swap1\n  dup1\n  0x01\n  dup2\n  sload\n  add\n  dup1\n  dup3\n  sstore\n  dup1\n  swap2\n  pop\n  pop\n  0x01\n  swap1\n  sub\n  swap1\n  0x00\n  mstore\n  keccak256(0x00, 0x20)\n  add\n  0x00\n  swap1\n  swap2\n  swap1\n  swap2\n  swap1\n  swap2\n  0x0100\n  exp\n  dup2\n  sload\n  dup2\n  0xffffffffffffffffffffffffffffffffffffffff\n  mul\n  not\n  and\n  swap1\n  dup4\n  0xffffffffffffffffffffffffffffffffffffffff\n  and\n  mul\n  or\n  swap1\n  sstore\n  pop\n    /* \"contracts/Yosemite.sol\":1988:1992  true */\n  0x01\n    /* \"contracts/Yosemite.sol\":1964:1972  isMember */\n  0x04\n    /* \"contracts/Yosemite.sol\":1964:1985  isMember[_newClimber] */\n  0x00\n    /* \"contracts/Yosemite.sol\":1973:1984  _newClimber */\n  dup5\n    /* \"contracts/Yosemite.sol\":1964:1985  isMember[_newClimber] */\n  0xffffffffffffffffffffffffffffffffffffffff\n  and\n  0xffffffffffffffffffffffffffffffffffffffff\n  and\n  dup2\n  mstore\n  0x20\n  add\n  swap1\n  dup2\n  mstore\n  0x20\n  add\n  0x00\n  keccak256\n  0x00\n    /* \"contracts/Yosemite.sol\":1964:1992  isMember[_newClimber] = true */\n  0x0100\n  exp\n  dup2\n  sload\n  dup2\n  0xff\n  mul\n  not\n  and\n  swap1\n  dup4\n  iszero\n  iszero\n  mul\n  or\n  swap1\n  sstore\n  pop\n    /* \"contracts/Yosemite.sol\":2006:2045  return \"Climber Succesfully Registered\" */\n  mload(0x40)\n  dup1\n  0x40\n  add\n  0x40\n  mstore\n  dup1\n  0x1e\n  dup2\n  mstore\n  0x20\n  add\n  0x436c696d6265722053756363657366756c6c7920526567697374657265640000\n  dup2\n  mstore\n  pop\n  swap1\n  pop\n  jump(tag_8)\n    /* \"contracts/Yosemite.sol\":1823:2123  if(!isMember[_newClimber]) {... */\ntag_10:\n    /* \"contracts/Yosemite.sol\":2076:2112  return \"You are already registered!\" */\n  mload(0x40)\n  dup1\n  0x40\n  add\n  0x40\n  mstore\n  dup1\n  0x1b\n  dup2\n  mstore\n  0x20\n  add\n  0x596f752061726520616c72656164792072656769737465726564210000000000\n  dup2\n  mstore\n  pop\n  swap1\n  pop\n    /* \"contracts/Yosemite.sol\":1640:2129  function setOtherClimbersId(address _newClimber) public returns(string memory) {... */\ntag_8:\n  swap2\n  swap1\n  pop\n  jump\t// out\n    /* \"#utility.yul\":7:312   */\ntag_12:\n    /* \"#utility.yul\":47:50   */\n  0x00\n    /* \"#utility.yul\":66:86   */\n  tag_17\n    /* \"#utility.yul\":84:85   */\n  dup3\n    /* \"#utility.yul\":66:86   */\n  tag_18\n  jump\t// in\ntag_17:\n    /* \"#utility.yul\":61:86   */\n  swap2\n  pop\n    /* \"#utility.yul\":100:120   */\n  tag_19\n    /* \"#utility.yul\":118:119   */\n  dup4\n    /* \"#utility.yul\":100:120   */\n  tag_18\n  jump\t// in\ntag_19:\n    /* \"#utility.yul\":95:120   */\n  swap3\n  pop\n    /* \"#utility.yul\":254:255   */\n  dup3\n    /* \"#utility.yul\":186:252   */\n  0xffffffffffffffffffffffffffffffffffffffffffffffffffffffffffffffff\n    /* \"#utility.yul\":182:256   */\n  sub\n    /* \"#utility.yul\":179:180   */\n  dup3\n    /* \"#utility.yul\":176:257   */\n  gt\n    /* \"#utility.yul\":173:280   */\n  iszero\n  tag_20\n  jumpi\n    /* \"#utility.yul\":260:278   */\n  tag_21\n  tag_22\n  jump\t// in\ntag_21:\n    /* \"#utility.yul\":173:280   */\ntag_20:\n    /* \"#utility.yul\":304:305   */\n  dup3\n    /* \"#utility.yul\":301:302   */\n  dup3\n    /* \"#utility.yul\":297:306   */\n  add\n    /* \"#utility.yul\":290:306   */\n  swap1\n  pop\n    /* \"#utility.yul\":7:312   */\n  swap3\n  swap2\n  pop\n  pop\n  jump\t// out\n    /* \"#utility.yul\":318:395   */\ntag_18:\n    /* \"#utility.yul\":355:362   */\n  0x00\n    /* \"#utility.yul\":384:389   */\n  dup2\n    /* \"#utility.yul\":373:389   */\n  swap1\n  pop\n    /* \"#utility.yul\":318:395   */\n  swap2\n  swap1\n  pop\n  jump\t// out\n    /* \"#utility.yul\":401:581   */\ntag_22:\n    /* \"#utility.yul\":449:526   */\n  0x4e487b7100000000000000000000000000000000000000000000000000000000\n    /* \"#utility.yul\":446:447   */\n  0x00\n    /* \"#utility.yul\":439:527   */\n  mstore\n    /* \"#utility.yul\":546:550   */\n  0x11\n    /* \"#utility.yul\":543:544   */\n  0x04\n    /* \"#utility.yul\":536:551   */\n  mstore\n    /* \"#utility.yul\":570:574   */\n  0x24\n    /* \"#utility.yul\":567:568   */\n  0x00\n    /* \"#utility.yul\":560:575   */\n  revert\n    /* \"contracts/Yosemite.sol\":61:3914  contract Yosemite {... */\ntag_7:\n  dataSize(sub_0)\n  dup1\n  dataOffset(sub_0)\n  0x00\n  codecopy\n  0x00\n  return\nstop\n\nsub_0: assembly {\n        /* \"contracts/Yosemite.sol\":61:3914  contract Yosemite {... */\n      mstore(0x40, 0x80)\n      callvalue\n      dup1\n      iszero\n      tag_1\n      jumpi\n      0x00\n      dup1\n      revert\n    tag_1:\n      pop\n      jumpi(tag_2, lt(calldatasize, 0x04))\n      shr(0xe0, calldataload(0x00))\n      dup1\n      0x8da5cb5b\n      gt\n      tag_19\n      jumpi\n      dup1\n      0xac9cf38c\n      gt\n      tag_20\n      jumpi\n      dup1\n      0xac9cf38c\n      eq\n      tag_15\n      jumpi\n      dup1\n      0xb9f22dfa\n      eq\n      tag_16\n      jumpi\n      dup1\n      0xbff1f9e1\n      eq\n      tag_17\n      jumpi\n      dup1\n      0xd0f759cf\n      eq\n      tag_18\n      jumpi\n      jump(tag_2)\n    tag_20:\n      dup1\n      0x8da5cb5b\n      eq\n      tag_11\n      jumpi\n      dup1\n      0x9b3ad968\n      eq\n      tag_12\n      jumpi\n      dup1\n      0xa052e52e\n      eq\n      tag_13\n      jumpi\n      dup1\n      0xa230c524\n      eq\n      tag_14\n      jumpi\n      jump(tag_2)\n    tag_19:\n      dup1\n      0x6b44efd3\n      gt\n      tag_21\n      jumpi\n      dup1\n      0x6b44efd3\n      eq\n      tag_7\n      jumpi\n      dup1\n      0x726f16d8\n      eq\n      tag_8\n      jumpi\n      dup1\n      0x74ed6b50\n      eq\n      tag_9\n      jumpi\n      dup1\n      0x8c8a6927\n      eq\n      tag_10\n      jumpi\n      jump(tag_2)\n    tag_21:\n      dup1\n      0x0f337ba7\n      eq\n      tag_3\n      jumpi\n      dup1\n      0x19ddd85d\n      eq\n      tag_4\n      jumpi\n      dup1\n      0x3a485e14\n      eq\n      tag_5\n      jumpi\n      dup1\n      0x5b7eedf8\n      eq\n      tag_6\n      jumpi\n    tag_2:\n      0x00\n      dup1\n      revert\n        /* \"contracts/Yosemite.sol\":1102:1533  function setClimberName(string memory _name) public returns(string memory){... */\n    tag_3:\n      tag_22\n      0x04\n      dup1\n      calldatasize\n      sub\n      dup2\n      add\n      swap1\n      tag_23\n      swap2\n      swap1\n      tag_24\n      jump\t// in\n    tag_23:\n      tag_25\n      jump\t// in\n    tag_22:\n      mload(0x40)\n      tag_26\n      swap2\n      swap1\n      tag_27\n      jump\t// in\n    tag_26:\n      mload(0x40)\n      dup1\n      swap2\n      sub\n      swap1\n      return\n        /* \"contracts/Yosemite.sol\":2230:2333  function allMembersAddresses() external view returns(address[] memory) {... */\n    tag_4:\n      tag_28\n      tag_29\n      jump\t// in\n    tag_28:\n      mload(0x40)\n      tag_30\n      swap2\n      swap1\n      tag_31\n      jump\t// in\n    tag_30:\n      mload(0x40)\n      dup1\n      swap2\n      sub\n      swap1\n      return\n        /* \"contracts/Yosemite.sol\":1640:2129  function setOtherClimbersId(address _newClimber) public returns(string memory) {... */\n    tag_5:\n      tag_32\n      0x04\n      dup1\n      calldatasize\n      sub\n      dup2\n      add\n      swap1\n      tag_33\n      swap2\n      swap1\n      tag_34\n      jump\t// in\n    tag_33:\n      tag_35\n      jump\t// in\n    tag_32:\n      mload(0x40)\n      tag_36\n      swap2\n      swap1\n      tag_27\n      jump\t// in\n    tag_36:\n      mload(0x40)\n      dup1\n      swap2\n      sub\n      swap1\n      return\n        /* \"contracts/Yosemite.sol\":564:589  address[] public usersArr */\n    tag_6:\n      tag_37\n      0x04\n      dup1\n      calldatasize\n      sub\n      dup2\n      add\n      swap1\n      tag_38\n      swap2\n      swap1\n      tag_39\n      jump\t// in\n    tag_38:\n      tag_40\n      jump\t// in\n    tag_37:\n      mload(0x40)\n      tag_41\n      swap2\n      swap1\n      tag_42\n      jump\t// in\n    tag_41:\n      mload(0x40)\n      dup1\n      swap2\n      sub\n      swap1\n      return\n        /* \"contracts/Yosemite.sol\":732:939  function addManagers(address _newManager) public returns(address[] memory) {... */\n    tag_7:\n      tag_43\n      0x04\n      dup1\n      calldatasize\n      sub\n      dup2\n      add\n      swap1\n      tag_44\n      swap2\n      swap1\n      tag_34\n      jump\t// in\n    tag_44:\n      tag_45\n      jump\t// in\n    tag_43:\n      mload(0x40)\n      tag_46\n      swap2\n      swap1\n      tag_31\n      jump\t// in\n    tag_46:\n      mload(0x40)\n      dup1\n      swap2\n      sub\n      swap1\n      return\n        /* \"contracts/Yosemite.sol\":2691:2712  Route[] public routes */\n    tag_8:\n      tag_47\n      0x04\n      dup1\n      calldatasize\n      sub\n      dup2\n      add\n      swap1\n      tag_48\n      swap2\n      swap1\n      tag_39\n      jump\t// in\n    tag_48:\n      tag_49\n      jump\t// in\n    tag_47:\n      mload(0x40)\n      tag_50\n      swap5\n      swap4\n      swap3\n      swap2\n      swap1\n      tag_51\n      jump\t// in\n    tag_50:\n      mload(0x40)\n      dup1\n      swap2\n      sub\n      swap1\n      return\n        /* \"contracts/Yosemite.sol\":3266:3389  function mappingRouteClimber(address _addr, uint _routeId) public {... */\n    tag_9:\n      tag_52\n      0x04\n      dup1\n      calldatasize\n      sub\n      dup2\n      add\n      swap1\n      tag_53\n      swap2\n      swap1\n      tag_54\n      jump\t// in\n    tag_53:\n      tag_55\n      jump\t// in\n    tag_52:\n      stop\n        /* \"contracts/Yosemite.sol\":377:410  address[] public contractManagers */\n    tag_10:\n      tag_56\n      0x04\n      dup1\n      calldatasize\n      sub\n      dup2\n      add\n      swap1\n      tag_57\n      swap2\n      swap1\n      tag_39\n      jump\t// in\n    tag_57:\n      tag_58\n      jump\t// in\n    tag_56:\n      mload(0x40)\n      tag_59\n      swap2\n      swap1\n      tag_42\n      jump\t// in\n    tag_59:\n      mload(0x40)\n      dup1\n      swap2\n      sub\n      swap1\n      return\n        /* \"contracts/Yosemite.sol\":222:242  address public owner */\n    tag_11:\n      tag_60\n      tag_61\n      jump\t// in\n    tag_60:\n      mload(0x40)\n      tag_62\n      swap2\n      swap1\n      tag_42\n      jump\t// in\n    tag_62:\n      mload(0x40)\n      dup1\n      swap2\n      sub\n      swap1\n      return\n        /* \"contracts/Yosemite.sol\":2848:3153  function createRoute(string memory _title, uint _grade) public {... */\n    tag_12:\n      tag_63\n      0x04\n      dup1\n      calldatasize\n      sub\n      dup2\n      add\n      swap1\n      tag_64\n      swap2\n      swap1\n      tag_65\n      jump\t// in\n    tag_64:\n      tag_66\n      jump\t// in\n    tag_63:\n      stop\n        /* \"contracts/Yosemite.sol\":3447:3753  function setFirstAscent(address _climber, uint _routeId) public view returns(address) {... */\n    tag_13:\n      tag_67\n      0x04\n      dup1\n      calldatasize\n      sub\n      dup2\n      add\n      swap1\n      tag_68\n      swap2\n      swap1\n      tag_54\n      jump\t// in\n    tag_68:\n      tag_69\n      jump\t// in\n    tag_67:\n      mload(0x40)\n      tag_70\n      swap2\n      swap1\n      tag_42\n      jump\t// in\n    tag_70:\n      mload(0x40)\n      dup1\n      swap2\n      sub\n      swap1\n      return\n        /* \"contracts/Yosemite.sol\":517:558  mapping (address => bool) public isMember */\n    tag_14:\n      tag_71\n      0x04\n      dup1\n      calldatasize\n      sub\n      dup2\n      add\n      swap1\n      tag_72\n      swap2\n      swap1\n      tag_34\n      jump\t// in\n    tag_72:\n      tag_73\n      jump\t// in\n    tag_71:\n      mload(0x40)\n      tag_74\n      swap2\n      swap1\n      tag_75\n      jump\t// in\n    tag_74:\n      mload(0x40)\n      dup1\n      swap2\n      sub\n      swap1\n      return\n        /* \"contracts/Yosemite.sol\":465:511  mapping (address => string) public climberName */\n    tag_15:\n      tag_76\n      0x04\n      dup1\n      calldatasize\n      sub\n      dup2\n      add\n      swap1\n      tag_77\n      swap2\n      swap1\n      tag_34\n      jump\t// in\n    tag_77:\n      tag_78\n      jump\t// in\n    tag_76:\n      mload(0x40)\n      tag_79\n      swap2\n      swap1\n      tag_27\n      jump\t// in\n    tag_79:\n      mload(0x40)\n      dup1\n      swap2\n      sub\n      swap1\n      return\n        /* \"contracts/Yosemite.sol\":3795:3912  function firstAscend(uint _routeId) public view returns(address) {... */\n    tag_16:\n      tag_80\n      0x04\n      dup1\n      calldatasize\n      sub\n      dup2\n      add\n      swap1\n      tag_81\n      swap2\n      swap1\n      tag_39\n      jump\t// in\n    tag_81:\n      tag_82\n      jump\t// in\n    tag_80:\n      mload(0x40)\n      tag_83\n      swap2\n      swap1\n      tag_42\n      jump\t// in\n    tag_83:\n      mload(0x40)\n      dup1\n      swap2\n      sub\n      swap1\n      return\n        /* \"contracts/Yosemite.sol\":2135:2224  function totalUsers() external view returns(uint) {... */\n    tag_17:\n      tag_84\n      tag_85\n      jump\t// in\n    tag_84:\n      mload(0x40)\n      tag_86\n      swap2\n      swap1\n      tag_87\n      jump\t// in\n    tag_86:\n      mload(0x40)\n      dup1\n      swap2\n      sub\n      swap1\n      return\n        /* \"contracts/Yosemite.sol\":417:459  mapping (address => uint) public climberId */\n    tag_18:\n      tag_88\n      0x04\n      dup1\n      calldatasize\n      sub\n      dup2\n      add\n      swap1\n      tag_89\n      swap2\n      swap1\n      tag_34\n      jump\t// in\n    tag_89:\n      tag_90\n      jump\t// in\n    tag_88:\n      mload(0x40)\n      tag_91\n      swap2\n      swap1\n      tag_87\n      jump\t// in\n    tag_91:\n      mload(0x40)\n      dup1\n      swap2\n      sub\n      swap1\n      return\n        /* \"contracts/Yosemite.sol\":1102:1533  function setClimberName(string memory _name) public returns(string memory){... */\n    tag_25:\n        /* \"contracts/Yosemite.sol\":1162:1175  string memory */\n      0x60\n        /* \"contracts/Yosemite.sol\":1190:1198  isMember */\n      0x04\n        /* \"contracts/Yosemite.sol\":1190:1210  isMember[msg.sender] */\n      0x00\n        /* \"contracts/Yosemite.sol\":1199:1209  msg.sender */\n      caller\n        /* \"contracts/Yosemite.sol\":1190:1210  isMember[msg.sender] */\n      0xffffffffffffffffffffffffffffffffffffffff\n      and\n      0xffffffffffffffffffffffffffffffffffffffff\n      and\n      dup2\n      mstore\n      0x20\n      add\n      swap1\n      dup2\n      mstore\n      0x20\n      add\n      0x00\n      keccak256\n      0x00\n      swap1\n      sload\n      swap1\n      0x0100\n      exp\n      swap1\n      div\n      0xff\n      and\n        /* \"contracts/Yosemite.sol\":1186:1527  if(!isMember[msg.sender]) {... */\n      tag_93\n      jumpi\n        /* \"contracts/Yosemite.sol\":1269:1270  1 */\n      0x01\n        /* \"contracts/Yosemite.sol\":1251:1259  usersArr */\n      0x05\n        /* \"contracts/Yosemite.sol\":1251:1266  usersArr.length */\n      dup1\n      sload\n      swap1\n      pop\n        /* \"contracts/Yosemite.sol\":1251:1270  usersArr.length + 1 */\n      tag_94\n      swap2\n      swap1\n      tag_95\n      jump\t// in\n    tag_94:\n        /* \"contracts/Yosemite.sol\":1226:1235  climberId */\n      0x02\n        /* \"contracts/Yosemite.sol\":1226:1247  climberId[msg.sender] */\n      0x00\n        /* \"contracts/Yosemite.sol\":1236:1246  msg.sender */\n      caller\n        /* \"contracts/Yosemite.sol\":1226:1247  climberId[msg.sender] */\n      0xffffffffffffffffffffffffffffffffffffffff\n      and\n      0xffffffffffffffffffffffffffffffffffffffff\n      and\n      dup2\n      mstore\n      0x20\n      add\n      swap1\n      dup2\n      mstore\n      0x20\n      add\n      0x00\n      keccak256\n        /* \"contracts/Yosemite.sol\":1226:1271  climberId[msg.sender] = (usersArr.length + 1) */\n      dup2\n      swap1\n      sstore\n      pop\n        /* \"contracts/Yosemite.sol\":1285:1293  usersArr */\n      0x05\n        /* \"contracts/Yosemite.sol\":1299:1309  msg.sender */\n      caller\n        /* \"contracts/Yosemite.sol\":1285:1310  usersArr.push(msg.sender) */\n      swap1\n      dup1\n      0x01\n      dup2\n      sload\n      add\n      dup1\n      dup3\n      sstore\n      dup1\n      swap2\n      pop\n      pop\n      0x01\n      swap1\n      sub\n      swap1\n      0x00\n      mstore\n      keccak256(0x00, 0x20)\n      add\n      0x00\n      swap1\n      swap2\n      swap1\n      swap2\n      swap1\n      swap2\n      0x0100\n      exp\n      dup2\n      sload\n      dup2\n      0xffffffffffffffffffffffffffffffffffffffff\n      mul\n      not\n      and\n      swap1\n      dup4\n      0xffffffffffffffffffffffffffffffffffffffff\n      and\n      mul\n      or\n      swap1\n      sstore\n      pop\n        /* \"contracts/Yosemite.sol\":1347:1351  true */\n      0x01\n        /* \"contracts/Yosemite.sol\":1324:1332  isMember */\n      0x04\n        /* \"contracts/Yosemite.sol\":1324:1344  isMember[msg.sender] */\n      0x00\n        /* \"contracts/Yosemite.sol\":1333:1343  msg.sender */\n      caller\n        /* \"contracts/Yosemite.sol\":1324:1344  isMember[msg.sender] */\n      0xffffffffffffffffffffffffffffffffffffffff\n      and\n      0xffffffffffffffffffffffffffffffffffffffff\n      and\n      dup2\n      mstore\n      0x20\n      add\n      swap1\n      dup2\n      mstore\n      0x20\n      add\n      0x00\n      keccak256\n      0x00\n        /* \"contracts/Yosemite.sol\":1324:1351  isMember[msg.sender] = true */\n      0x0100\n      exp\n      dup2\n      sload\n      dup2\n      0xff\n      mul\n      not\n      and\n      swap1\n      dup4\n      iszero\n      iszero\n      mul\n      or\n      swap1\n      sstore\n      pop\n        /* \"contracts/Yosemite.sol\":1391:1396  _name */\n      dup2\n        /* \"contracts/Yosemite.sol\":1365:1376  climberName */\n      0x03\n        /* \"contracts/Yosemite.sol\":1365:1388  climberName[msg.sender] */\n      0x00\n        /* \"contracts/Yosemite.sol\":1377:1387  msg.sender */\n      caller\n        /* \"contracts/Yosemite.sol\":1365:1388  climberName[msg.sender] */\n      0xffffffffffffffffffffffffffffffffffffffff\n      and\n      0xffffffffffffffffffffffffffffffffffffffff\n      and\n      dup2\n      mstore\n      0x20\n      add\n      swap1\n      dup2\n      mstore\n      0x20\n      add\n      0x00\n      keccak256\n        /* \"contracts/Yosemite.sol\":1365:1396  climberName[msg.sender] = _name */\n      swap1\n      dup1\n      mload\n      swap1\n      0x20\n      add\n      swap1\n      tag_97\n      swap3\n      swap2\n      swap1\n      tag_98\n      jump\t// in\n    tag_97:\n      pop\n        /* \"contracts/Yosemite.sol\":1410:1449  return \"Climber Succesfully Registered\" */\n      mload(0x40)\n      dup1\n      0x40\n      add\n      0x40\n      mstore\n      dup1\n      0x1e\n      dup2\n      mstore\n      0x20\n      add\n      0x436c696d6265722053756363657366756c6c7920526567697374657265640000\n      dup2\n      mstore\n      pop\n      swap1\n      pop\n      jump(tag_92)\n        /* \"contracts/Yosemite.sol\":1186:1527  if(!isMember[msg.sender]) {... */\n    tag_93:\n        /* \"contracts/Yosemite.sol\":1480:1516  return \"You are already registered!\" */\n      mload(0x40)\n      dup1\n      0x40\n      add\n      0x40\n      mstore\n      dup1\n      0x1b\n      dup2\n      mstore\n      0x20\n      add\n      0x596f752061726520616c72656164792072656769737465726564210000000000\n      dup2\n      mstore\n      pop\n      swap1\n      pop\n        /* \"contracts/Yosemite.sol\":1102:1533  function setClimberName(string memory _name) public returns(string memory){... */\n    tag_92:\n      swap2\n      swap1\n      pop\n      jump\t// out\n        /* \"contracts/Yosemite.sol\":2230:2333  function allMembersAddresses() external view returns(address[] memory) {... */\n    tag_29:\n        /* \"contracts/Yosemite.sol\":2283:2299  address[] memory */\n      0x60\n        /* \"contracts/Yosemite.sol\":2318:2326  usersArr */\n      0x05\n        /* \"contracts/Yosemite.sol\":2311:2326  return usersArr */\n      dup1\n      sload\n      dup1\n      0x20\n      mul\n      0x20\n      add\n      mload(0x40)\n      swap1\n      dup2\n      add\n      0x40\n      mstore\n      dup1\n      swap3\n      swap2\n      swap1\n      dup2\n      dup2\n      mstore\n      0x20\n      add\n      dup3\n      dup1\n      sload\n      dup1\n      iszero\n      tag_101\n      jumpi\n      0x20\n      mul\n      dup3\n      add\n      swap2\n      swap1\n      0x00\n      mstore\n      keccak256(0x00, 0x20)\n      swap1\n    tag_102:\n      dup2\n      0x00\n      swap1\n      sload\n      swap1\n      0x0100\n      exp\n      swap1\n      div\n      0xffffffffffffffffffffffffffffffffffffffff\n      and\n      0xffffffffffffffffffffffffffffffffffffffff\n      and\n      dup2\n      mstore\n      0x20\n      add\n      swap1\n      0x01\n      add\n      swap1\n      dup1\n      dup4\n      gt\n      tag_102\n      jumpi\n    tag_101:\n      pop\n      pop\n      pop\n      pop\n      pop\n      swap1\n      pop\n        /* \"contracts/Yosemite.sol\":2230:2333  function allMembersAddresses() external view returns(address[] memory) {... */\n      swap1\n      jump\t// out\n        /* \"contracts/Yosemite.sol\":1640:2129  function setOtherClimbersId(address _newClimber) public returns(string memory) {... */\n    tag_35:\n        /* \"contracts/Yosemite.sol\":1704:1717  string memory */\n      0x60\n        /* \"contracts/Yosemite.sol\":1751:1756  owner */\n      0x00\n      dup1\n      sload\n      swap1\n      0x0100\n      exp\n      swap1\n      div\n      0xffffffffffffffffffffffffffffffffffffffff\n      and\n        /* \"contracts/Yosemite.sol\":1737:1756  msg.sender == owner */\n      0xffffffffffffffffffffffffffffffffffffffff\n      and\n        /* \"contracts/Yosemite.sol\":1737:1747  msg.sender */\n      caller\n        /* \"contracts/Yosemite.sol\":1737:1756  msg.sender == owner */\n      0xffffffffffffffffffffffffffffffffffffffff\n      and\n      eq\n        /* \"contracts/Yosemite.sol\":1729:1757  require(msg.sender == owner) */\n      tag_104\n      jumpi\n      0x00\n      dup1\n      revert\n    tag_104:\n        /* \"contracts/Yosemite.sol\":1827:1835  isMember */\n      0x04\n        /* \"contracts/Yosemite.sol\":1827:1848  isMember[_newClimber] */\n      0x00\n        /* \"contracts/Yosemite.sol\":1836:1847  _newClimber */\n      dup4\n        /* \"contracts/Yosemite.sol\":1827:1848  isMember[_newClimber] */\n      0xffffffffffffffffffffffffffffffffffffffff\n      and\n      0xffffffffffffffffffffffffffffffffffffffff\n      and\n      dup2\n      mstore\n      0x20\n      add\n      swap1\n      dup2\n      mstore\n      0x20\n      add\n      0x00\n      keccak256\n      0x00\n      swap1\n      sload\n      swap1\n      0x0100\n      exp\n      swap1\n      div\n      0xff\n      and\n        /* \"contracts/Yosemite.sol\":1823:2123  if(!isMember[_newClimber]) {... */\n      tag_105\n      jumpi\n        /* \"contracts/Yosemite.sol\":1908:1909  1 */\n      0x01\n        /* \"contracts/Yosemite.sol\":1890:1898  usersArr */\n      0x05\n        /* \"contracts/Yosemite.sol\":1890:1905  usersArr.length */\n      dup1\n      sload\n      swap1\n      pop\n        /* \"contracts/Yosemite.sol\":1890:1909  usersArr.length + 1 */\n      tag_106\n      swap2\n      swap1\n      tag_95\n      jump\t// in\n    tag_106:\n        /* \"contracts/Yosemite.sol\":1864:1873  climberId */\n      0x02\n        /* \"contracts/Yosemite.sol\":1864:1886  climberId[_newClimber] */\n      0x00\n        /* \"contracts/Yosemite.sol\":1874:1885  _newClimber */\n      dup5\n        /* \"contracts/Yosemite.sol\":1864:1886  climberId[_newClimber] */\n      0xffffffffffffffffffffffffffffffffffffffff\n      and\n      0xffffffffffffffffffffffffffffffffffffffff\n      and\n      dup2\n      mstore\n      0x20\n      add\n      swap1\n      dup2\n      mstore\n      0x20\n      add\n      0x00\n      keccak256\n        /* \"contracts/Yosemite.sol\":1864:1910  climberId[_newClimber] = (usersArr.length + 1) */\n      dup2\n      swap1\n      sstore\n      pop\n        /* \"contracts/Yosemite.sol\":1924:1932  usersArr */\n      0x05\n        /* \"contracts/Yosemite.sol\":1938:1949  _newClimber */\n      dup3\n        /* \"contracts/Yosemite.sol\":1924:1950  usersArr.push(_newClimber) */\n      swap1\n      dup1\n      0x01\n      dup2\n      sload\n      add\n      dup1\n      dup3\n      sstore\n      dup1\n      swap2\n      pop\n      pop\n      0x01\n      swap1\n      sub\n      swap1\n      0x00\n      mstore\n      keccak256(0x00, 0x20)\n      add\n      0x00\n      swap1\n      swap2\n      swap1\n      swap2\n      swap1\n      swap2\n      0x0100\n      exp\n      dup2\n      sload\n      dup2\n      0xffffffffffffffffffffffffffffffffffffffff\n      mul\n      not\n      and\n      swap1\n      dup4\n      0xffffffffffffffffffffffffffffffffffffffff\n      and\n      mul\n      or\n      swap1\n      sstore\n      pop\n        /* \"contracts/Yosemite.sol\":1988:1992  true */\n      0x01\n        /* \"contracts/Yosemite.sol\":1964:1972  isMember */\n      0x04\n        /* \"contracts/Yosemite.sol\":1964:1985  isMember[_newClimber] */\n      0x00\n        /* \"contracts/Yosemite.sol\":1973:1984  _newClimber */\n      dup5\n        /* \"contracts/Yosemite.sol\":1964:1985  isMember[_newClimber] */\n      0xffffffffffffffffffffffffffffffffffffffff\n      and\n      0xffffffffffffffffffffffffffffffffffffffff\n      and\n      dup2\n      mstore\n      0x20\n      add\n      swap1\n      dup2\n      mstore\n      0x20\n      add\n      0x00\n      keccak256\n      0x00\n        /* \"contracts/Yosemite.sol\":1964:1992  isMember[_newClimber] = true */\n      0x0100\n      exp\n      dup2\n      sload\n      dup2\n      0xff\n      mul\n      not\n      and\n      swap1\n      dup4\n      iszero\n      iszero\n      mul\n      or\n      swap1\n      sstore\n      pop\n        /* \"contracts/Yosemite.sol\":2006:2045  return \"Climber Succesfully Registered\" */\n      mload(0x40)\n      dup1\n      0x40\n      add\n      0x40\n      mstore\n      dup1\n      0x1e\n      dup2\n      mstore\n      0x20\n      add\n      0x436c696d6265722053756363657366756c6c7920526567697374657265640000\n      dup2\n      mstore\n      pop\n      swap1\n      pop\n      jump(tag_103)\n        /* \"contracts/Yosemite.sol\":1823:2123  if(!isMember[_newClimber]) {... */\n    tag_105:\n        /* \"contracts/Yosemite.sol\":2076:2112  return \"You are already registered!\" */\n      mload(0x40)\n      dup1\n      0x40\n      add\n      0x40\n      mstore\n      dup1\n      0x1b\n      dup2\n      mstore\n      0x20\n      add\n      0x596f752061726520616c72656164792072656769737465726564210000000000\n      dup2\n      mstore\n      pop\n      swap1\n      pop\n        /* \"contracts/Yosemite.sol\":1640:2129  function setOtherClimbersId(address _newClimber) public returns(string memory) {... */\n    tag_103:\n      swap2\n      swap1\n      pop\n      jump\t// out\n        /* \"contracts/Yosemite.sol\":564:589  address[] public usersArr */\n    tag_40:\n      0x05\n      dup2\n      dup2\n      sload\n      dup2\n      lt\n      tag_109\n      jumpi\n      0x00\n      dup1\n      revert\n    tag_109:\n      swap1\n      0x00\n      mstore\n      keccak256(0x00, 0x20)\n      add\n      0x00\n      swap2\n      pop\n      sload\n      swap1\n      0x0100\n      exp\n      swap1\n      div\n      0xffffffffffffffffffffffffffffffffffffffff\n      and\n      dup2\n      jump\t// out\n        /* \"contracts/Yosemite.sol\":732:939  function addManagers(address _newManager) public returns(address[] memory) {... */\n    tag_45:\n        /* \"contracts/Yosemite.sol\":789:805  address[] memory */\n      0x60\n        /* \"contracts/Yosemite.sol\":840:845  owner */\n      0x00\n      dup1\n      sload\n      swap1\n      0x0100\n      exp\n      swap1\n      div\n      0xffffffffffffffffffffffffffffffffffffffff\n      and\n        /* \"contracts/Yosemite.sol\":826:845  msg.sender == owner */\n      0xffffffffffffffffffffffffffffffffffffffff\n      and\n        /* \"contracts/Yosemite.sol\":826:836  msg.sender */\n      caller\n        /* \"contracts/Yosemite.sol\":826:845  msg.sender == owner */\n      0xffffffffffffffffffffffffffffffffffffffff\n      and\n      eq\n        /* \"contracts/Yosemite.sol\":817:846  require (msg.sender == owner) */\n      tag_112\n      jumpi\n      0x00\n      dup1\n      revert\n    tag_112:\n        /* \"contracts/Yosemite.sol\":865:881  contractManagers */\n      0x01\n        /* \"contracts/Yosemite.sol\":887:898  _newManager */\n      dup3\n        /* \"contracts/Yosemite.sol\":865:899  contractManagers.push(_newManager) */\n      swap1\n      dup1\n      0x01\n      dup2\n      sload\n      add\n      dup1\n      dup3\n      sstore\n      dup1\n      swap2\n      pop\n      pop\n      0x01\n      swap1\n      sub\n      swap1\n      0x00\n      mstore\n      keccak256(0x00, 0x20)\n      add\n      0x00\n      swap1\n      swap2\n      swap1\n      swap2\n      swap1\n      swap2\n      0x0100\n      exp\n      dup2\n      sload\n      dup2\n      0xffffffffffffffffffffffffffffffffffffffff\n      mul\n      not\n      and\n      swap1\n      dup4\n      0xffffffffffffffffffffffffffffffffffffffff\n      and\n      mul\n      or\n      swap1\n      sstore\n      pop\n        /* \"contracts/Yosemite.sol\":916:932  contractManagers */\n      0x01\n        /* \"contracts/Yosemite.sol\":909:932  return contractManagers */\n      dup1\n      sload\n      dup1\n      0x20\n      mul\n      0x20\n      add\n      mload(0x40)\n      swap1\n      dup2\n      add\n      0x40\n      mstore\n      dup1\n      swap3\n      swap2\n      swap1\n      dup2\n      dup2\n      mstore\n      0x20\n      add\n      dup3\n      dup1\n      sload\n      dup1\n      iszero\n      tag_114\n      jumpi\n      0x20\n      mul\n      dup3\n      add\n      swap2\n      swap1\n      0x00\n      mstore\n      keccak256(0x00, 0x20)\n      swap1\n    tag_115:\n      dup2\n      0x00\n      swap1\n      sload\n      swap1\n      0x0100\n      exp\n      swap1\n      div\n      0xffffffffffffffffffffffffffffffffffffffff\n      and\n      0xffffffffffffffffffffffffffffffffffffffff\n      and\n      dup2\n      mstore\n      0x20\n      add\n      swap1\n      0x01\n      add\n      swap1\n      dup1\n      dup4\n      gt\n      tag_115\n      jumpi\n    tag_114:\n      pop\n      pop\n      pop\n      pop\n      pop\n      swap1\n      pop\n        /* \"contracts/Yosemite.sol\":732:939  function addManagers(address _newManager) public returns(address[] memory) {... */\n      swap2\n      swap1\n      pop\n      jump\t// out\n        /* \"contracts/Yosemite.sol\":2691:2712  Route[] public routes */\n    tag_49:\n      0x06\n      dup2\n      dup2\n      sload\n      dup2\n      lt\n      tag_116\n      jumpi\n      0x00\n      dup1\n      revert\n    tag_116:\n      swap1\n      0x00\n      mstore\n      keccak256(0x00, 0x20)\n      swap1\n      0x04\n      mul\n      add\n      0x00\n      swap2\n      pop\n      swap1\n      pop\n      dup1\n      0x00\n      add\n      sload\n      swap1\n      dup1\n      0x01\n      add\n      dup1\n      sload\n      tag_118\n      swap1\n      tag_119\n      jump\t// in\n    tag_118:\n      dup1\n      0x1f\n      add\n      0x20\n      dup1\n      swap2\n      div\n      mul\n      0x20\n      add\n      mload(0x40)\n      swap1\n      dup2\n      add\n      0x40\n      mstore\n      dup1\n      swap3\n      swap2\n      swap1\n      dup2\n      dup2\n      mstore\n      0x20\n      add\n      dup3\n      dup1\n      sload\n      tag_120\n      swap1\n      tag_119\n      jump\t// in\n    tag_120:\n      dup1\n      iszero\n      tag_121\n      jumpi\n      dup1\n      0x1f\n      lt\n      tag_122\n      jumpi\n      0x0100\n      dup1\n      dup4\n      sload\n      div\n      mul\n      dup4\n      mstore\n      swap2\n      0x20\n      add\n      swap2\n      jump(tag_121)\n    tag_122:\n      dup3\n      add\n      swap2\n      swap1\n      0x00\n      mstore\n      keccak256(0x00, 0x20)\n      swap1\n    tag_123:\n      dup2\n      sload\n      dup2\n      mstore\n      swap1\n      0x01\n      add\n      swap1\n      0x20\n      add\n      dup1\n      dup4\n      gt\n      tag_123\n      jumpi\n      dup3\n      swap1\n      sub\n      0x1f\n      and\n      dup3\n      add\n      swap2\n    tag_121:\n      pop\n      pop\n      pop\n      pop\n      pop\n      swap1\n      dup1\n      0x02\n      add\n      sload\n      swap1\n      dup1\n      0x03\n      add\n      0x00\n      swap1\n      sload\n      swap1\n      0x0100\n      exp\n      swap1\n      div\n      0xffffffffffffffffffffffffffffffffffffffff\n      and\n      swap1\n      pop\n      dup5\n      jump\t// out\n        /* \"contracts/Yosemite.sol\":3266:3389  function mappingRouteClimber(address _addr, uint _routeId) public {... */\n    tag_55:\n        /* \"contracts/Yosemite.sol\":3378:3382  true */\n      0x01\n        /* \"contracts/Yosemite.sol\":3342:3358  climberRouteBool */\n      0x08\n        /* \"contracts/Yosemite.sol\":3342:3365  climberRouteBool[_addr] */\n      0x00\n        /* \"contracts/Yosemite.sol\":3359:3364  _addr */\n      dup5\n        /* \"contracts/Yosemite.sol\":3342:3365  climberRouteBool[_addr] */\n      0xffffffffffffffffffffffffffffffffffffffff\n      and\n      0xffffffffffffffffffffffffffffffffffffffff\n      and\n      dup2\n      mstore\n      0x20\n      add\n      swap1\n      dup2\n      mstore\n      0x20\n      add\n      0x00\n      keccak256\n        /* \"contracts/Yosemite.sol\":3342:3375  climberRouteBool[_addr][_routeId] */\n      0x00\n        /* \"contracts/Yosemite.sol\":3366:3374  _routeId */\n      dup4\n        /* \"contracts/Yosemite.sol\":3342:3375  climberRouteBool[_addr][_routeId] */\n      dup2\n      mstore\n      0x20\n      add\n      swap1\n      dup2\n      mstore\n      0x20\n      add\n      0x00\n      keccak256\n      0x00\n        /* \"contracts/Yosemite.sol\":3342:3382  climberRouteBool[_addr][_routeId] = true */\n      0x0100\n      exp\n      dup2\n      sload\n      dup2\n      0xff\n      mul\n      not\n      and\n      swap1\n      dup4\n      iszero\n      iszero\n      mul\n      or\n      swap1\n      sstore\n      pop\n        /* \"contracts/Yosemite.sol\":3266:3389  function mappingRouteClimber(address _addr, uint _routeId) public {... */\n      pop\n      pop\n      jump\t// out\n        /* \"contracts/Yosemite.sol\":377:410  address[] public contractManagers */\n    tag_58:\n      0x01\n      dup2\n      dup2\n      sload\n      dup2\n      lt\n      tag_125\n      jumpi\n      0x00\n      dup1\n      revert\n    tag_125:\n      swap1\n      0x00\n      mstore\n      keccak256(0x00, 0x20)\n      add\n      0x00\n      swap2\n      pop\n      sload\n      swap1\n      0x0100\n      exp\n      swap1\n      div\n      0xffffffffffffffffffffffffffffffffffffffff\n      and\n      dup2\n      jump\t// out\n        /* \"contracts/Yosemite.sol\":222:242  address public owner */\n    tag_61:\n      0x00\n      dup1\n      sload\n      swap1\n      0x0100\n      exp\n      swap1\n      div\n      0xffffffffffffffffffffffffffffffffffffffff\n      and\n      dup2\n      jump\t// out\n        /* \"contracts/Yosemite.sol\":2848:3153  function createRoute(string memory _title, uint _grade) public {... */\n    tag_66:\n        /* \"contracts/Yosemite.sol\":2943:2948  owner */\n      0x00\n      dup1\n      sload\n      swap1\n      0x0100\n      exp\n      swap1\n      div\n      0xffffffffffffffffffffffffffffffffffffffff\n      and\n        /* \"contracts/Yosemite.sol\":2929:2948  msg.sender == owner */\n      0xffffffffffffffffffffffffffffffffffffffff\n      and\n        /* \"contracts/Yosemite.sol\":2929:2939  msg.sender */\n      caller\n        /* \"contracts/Yosemite.sol\":2929:2948  msg.sender == owner */\n      0xffffffffffffffffffffffffffffffffffffffff\n      and\n      eq\n        /* \"contracts/Yosemite.sol\":2921:2949  require(msg.sender == owner) */\n      tag_128\n      jumpi\n      0x00\n      dup1\n      revert\n    tag_128:\n        /* \"contracts/Yosemite.sol\":2959:2980  Route memory newRoute */\n      tag_129\n      tag_130\n      jump\t// in\n    tag_129:\n        /* \"contracts/Yosemite.sol\":3024:3025  1 */\n      0x01\n        /* \"contracts/Yosemite.sol\":3010:3021  routesCount */\n      sload(0x07)\n        /* \"contracts/Yosemite.sol\":3010:3025  routesCount + 1 */\n      tag_131\n      swap2\n      swap1\n      tag_95\n      jump\t// in\n    tag_131:\n        /* \"contracts/Yosemite.sol\":2990:2998  newRoute */\n      dup2\n        /* \"contracts/Yosemite.sol\":2990:3006  newRoute.routeId */\n      0x00\n      add\n        /* \"contracts/Yosemite.sol\":2990:3026  newRoute.routeId = (routesCount + 1) */\n      dup2\n      dup2\n      mstore\n      pop\n      pop\n        /* \"contracts/Yosemite.sol\":3053:3059  _title */\n      dup3\n        /* \"contracts/Yosemite.sol\":3036:3044  newRoute */\n      dup2\n        /* \"contracts/Yosemite.sol\":3036:3050  newRoute.title */\n      0x20\n      add\n        /* \"contracts/Yosemite.sol\":3036:3059  newRoute.title = _title */\n      dup2\n      swap1\n      mstore\n      pop\n        /* \"contracts/Yosemite.sol\":3086:3092  _grade */\n      dup2\n        /* \"contracts/Yosemite.sol\":3069:3077  newRoute */\n      dup2\n        /* \"contracts/Yosemite.sol\":3069:3083  newRoute.grade */\n      0x40\n      add\n        /* \"contracts/Yosemite.sol\":3069:3092  newRoute.grade = _grade */\n      dup2\n      dup2\n      mstore\n      pop\n      pop\n        /* \"contracts/Yosemite.sol\":3102:3108  routes */\n      0x06\n        /* \"contracts/Yosemite.sol\":3114:3122  newRoute */\n      dup2\n        /* \"contracts/Yosemite.sol\":3102:3123  routes.push(newRoute) */\n      swap1\n      dup1\n      0x01\n      dup2\n      sload\n      add\n      dup1\n      dup3\n      sstore\n      dup1\n      swap2\n      pop\n      pop\n      0x01\n      swap1\n      sub\n      swap1\n      0x00\n      mstore\n      keccak256(0x00, 0x20)\n      swap1\n      0x04\n      mul\n      add\n      0x00\n      swap1\n      swap2\n      swap1\n      swap2\n      swap1\n      swap2\n      pop\n      0x00\n      dup3\n      add\n      mload\n      dup2\n      0x00\n      add\n      sstore\n      0x20\n      dup3\n      add\n      mload\n      dup2\n      0x01\n      add\n      swap1\n      dup1\n      mload\n      swap1\n      0x20\n      add\n      swap1\n      tag_133\n      swap3\n      swap2\n      swap1\n      tag_98\n      jump\t// in\n    tag_133:\n      pop\n      0x40\n      dup3\n      add\n      mload\n      dup2\n      0x02\n      add\n      sstore\n      0x60\n      dup3\n      add\n      mload\n      dup2\n      0x03\n      add\n      exp(0x0100, 0x00)\n      dup2\n      sload\n      dup2\n      0xffffffffffffffffffffffffffffffffffffffff\n      mul\n      not\n      and\n      swap1\n      dup4\n      0xffffffffffffffffffffffffffffffffffffffff\n      and\n      mul\n      or\n      swap1\n      sstore\n      pop\n      pop\n      pop\n        /* \"contracts/Yosemite.sol\":3133:3144  routesCount */\n      0x07\n      0x00\n        /* \"contracts/Yosemite.sol\":3133:3146  routesCount++ */\n      dup2\n      sload\n      dup1\n      swap3\n      swap2\n      swap1\n      tag_134\n      swap1\n      tag_135\n      jump\t// in\n    tag_134:\n      swap2\n      swap1\n      pop\n      sstore\n      pop\n        /* \"contracts/Yosemite.sol\":2911:3153  {... */\n      pop\n        /* \"contracts/Yosemite.sol\":2848:3153  function createRoute(string memory _title, uint _grade) public {... */\n      pop\n      pop\n      jump\t// out\n        /* \"contracts/Yosemite.sol\":3447:3753  function setFirstAscent(address _climber, uint _routeId) public view returns(address) {... */\n    tag_69:\n        /* \"contracts/Yosemite.sol\":3524:3531  address */\n      0x00\n        /* \"contracts/Yosemite.sol\":3547:3553  uint i */\n      dup1\n        /* \"contracts/Yosemite.sol\":3554:3555  0 */\n      0x00\n        /* \"contracts/Yosemite.sol\":3547:3555  uint i=0 */\n      swap1\n      pop\n        /* \"contracts/Yosemite.sol\":3543:3702  for(uint i=0; i<=routesCount; i++) {... */\n    tag_137:\n        /* \"contracts/Yosemite.sol\":3560:3571  routesCount */\n      sload(0x07)\n        /* \"contracts/Yosemite.sol\":3557:3558  i */\n      dup2\n        /* \"contracts/Yosemite.sol\":3557:3571  i<=routesCount */\n      gt\n        /* \"contracts/Yosemite.sol\":3543:3702  for(uint i=0; i<=routesCount; i++) {... */\n      tag_138\n      jumpi\n        /* \"contracts/Yosemite.sol\":3616:3624  _routeId */\n      dup3\n        /* \"contracts/Yosemite.sol\":3595:3601  routes */\n      0x06\n        /* \"contracts/Yosemite.sol\":3602:3603  i */\n      dup3\n        /* \"contracts/Yosemite.sol\":3595:3604  routes[i] */\n      dup2\n      sload\n      dup2\n      lt\n      tag_140\n      jumpi\n      tag_141\n      tag_142\n      jump\t// in\n    tag_141:\n    tag_140:\n      swap1\n      0x00\n      mstore\n      keccak256(0x00, 0x20)\n      swap1\n      0x04\n      mul\n      add\n        /* \"contracts/Yosemite.sol\":3595:3612  routes[i].routeId */\n      0x00\n      add\n      sload\n        /* \"contracts/Yosemite.sol\":3595:3624  routes[i].routeId == _routeId */\n      eq\n        /* \"contracts/Yosemite.sol\":3592:3692  if(routes[i].routeId == _routeId) {... */\n      iszero\n      tag_144\n      jumpi\n        /* \"contracts/Yosemite.sol\":3669:3677  _climber */\n      dup4\n        /* \"contracts/Yosemite.sol\":3644:3677  routes[i].firstAscent == _climber */\n      0xffffffffffffffffffffffffffffffffffffffff\n      and\n        /* \"contracts/Yosemite.sol\":3644:3650  routes */\n      0x06\n        /* \"contracts/Yosemite.sol\":3651:3652  i */\n      dup3\n        /* \"contracts/Yosemite.sol\":3644:3653  routes[i] */\n      dup2\n      sload\n      dup2\n      lt\n      tag_145\n      jumpi\n      tag_146\n      tag_142\n      jump\t// in\n    tag_146:\n    tag_145:\n      swap1\n      0x00\n      mstore\n      keccak256(0x00, 0x20)\n      swap1\n      0x04\n      mul\n      add\n        /* \"contracts/Yosemite.sol\":3644:3665  routes[i].firstAscent */\n      0x03\n      add\n      0x00\n      swap1\n      sload\n      swap1\n      0x0100\n      exp\n      swap1\n      pop\n      pop\n        /* \"contracts/Yosemite.sol\":3644:3677  routes[i].firstAscent == _climber */\n      pop\n        /* \"contracts/Yosemite.sol\":3592:3692  if(routes[i].routeId == _routeId) {... */\n    tag_144:\n        /* \"contracts/Yosemite.sol\":3573:3576  i++ */\n      dup1\n      dup1\n      tag_148\n      swap1\n      tag_135\n      jump\t// in\n    tag_148:\n      swap2\n      pop\n      pop\n        /* \"contracts/Yosemite.sol\":3543:3702  for(uint i=0; i<=routesCount; i++) {... */\n      jump(tag_137)\n    tag_138:\n      pop\n        /* \"contracts/Yosemite.sol\":3718:3724  routes */\n      0x06\n        /* \"contracts/Yosemite.sol\":3725:3733  _routeId */\n      dup3\n        /* \"contracts/Yosemite.sol\":3718:3734  routes[_routeId] */\n      dup2\n      sload\n      dup2\n      lt\n      tag_149\n      jumpi\n      tag_150\n      tag_142\n      jump\t// in\n    tag_150:\n    tag_149:\n      swap1\n      0x00\n      mstore\n      keccak256(0x00, 0x20)\n      swap1\n      0x04\n      mul\n      add\n        /* \"contracts/Yosemite.sol\":3718:3746  routes[_routeId].firstAscent */\n      0x03\n      add\n      0x00\n      swap1\n      sload\n      swap1\n      0x0100\n      exp\n      swap1\n      div\n      0xffffffffffffffffffffffffffffffffffffffff\n      and\n        /* \"contracts/Yosemite.sol\":3711:3746  return routes[_routeId].firstAscent */\n      swap1\n      pop\n        /* \"contracts/Yosemite.sol\":3447:3753  function setFirstAscent(address _climber, uint _routeId) public view returns(address) {... */\n      swap3\n      swap2\n      pop\n      pop\n      jump\t// out\n        /* \"contracts/Yosemite.sol\":517:558  mapping (address => bool) public isMember */\n    tag_73:\n      mstore(0x20, 0x04)\n      dup1\n      0x00\n      mstore\n      keccak256(0x00, 0x40)\n      0x00\n      swap2\n      pop\n      sload\n      swap1\n      0x0100\n      exp\n      swap1\n      div\n      0xff\n      and\n      dup2\n      jump\t// out\n        /* \"contracts/Yosemite.sol\":465:511  mapping (address => string) public climberName */\n    tag_78:\n      mstore(0x20, 0x03)\n      dup1\n      0x00\n      mstore\n      keccak256(0x00, 0x40)\n      0x00\n      swap2\n      pop\n      swap1\n      pop\n      dup1\n      sload\n      tag_152\n      swap1\n      tag_119\n      jump\t// in\n    tag_152:\n      dup1\n      0x1f\n      add\n      0x20\n      dup1\n      swap2\n      div\n      mul\n      0x20\n      add\n      mload(0x40)\n      swap1\n      dup2\n      add\n      0x40\n      mstore\n      dup1\n      swap3\n      swap2\n      swap1\n      dup2\n      dup2\n      mstore\n      0x20\n      add\n      dup3\n      dup1\n      sload\n      tag_153\n      swap1\n      tag_119\n      jump\t// in\n    tag_153:\n      dup1\n      iszero\n      tag_154\n      jumpi\n      dup1\n      0x1f\n      lt\n      tag_155\n      jumpi\n      0x0100\n      dup1\n      dup4\n      sload\n      div\n      mul\n      dup4\n      mstore\n      swap2\n      0x20\n      add\n      swap2\n      jump(tag_154)\n    tag_155:\n      dup3\n      add\n      swap2\n      swap1\n      0x00\n      mstore\n      keccak256(0x00, 0x20)\n      swap1\n    tag_156:\n      dup2\n      sload\n      dup2\n      mstore\n      swap1\n      0x01\n      add\n      swap1\n      0x20\n      add\n      dup1\n      dup4\n      gt\n      tag_156\n      jumpi\n      dup3\n      swap1\n      sub\n      0x1f\n      and\n      dup3\n      add\n      swap2\n    tag_154:\n      pop\n      pop\n      pop\n      pop\n      pop\n      dup2\n      jump\t// out\n        /* \"contracts/Yosemite.sol\":3795:3912  function firstAscend(uint _routeId) public view returns(address) {... */\n    tag_82:\n        /* \"contracts/Yosemite.sol\":3851:3858  address */\n      0x00\n        /* \"contracts/Yosemite.sol\":3877:3883  routes */\n      0x06\n        /* \"contracts/Yosemite.sol\":3884:3892  _routeId */\n      dup3\n        /* \"contracts/Yosemite.sol\":3877:3893  routes[_routeId] */\n      dup2\n      sload\n      dup2\n      lt\n      tag_158\n      jumpi\n      tag_159\n      tag_142\n      jump\t// in\n    tag_159:\n    tag_158:\n      swap1\n      0x00\n      mstore\n      keccak256(0x00, 0x20)\n      swap1\n      0x04\n      mul\n      add\n        /* \"contracts/Yosemite.sol\":3877:3905  routes[_routeId].firstAscent */\n      0x03\n      add\n      0x00\n      swap1\n      sload\n      swap1\n      0x0100\n      exp\n      swap1\n      div\n      0xffffffffffffffffffffffffffffffffffffffff\n      and\n        /* \"contracts/Yosemite.sol\":3870:3905  return routes[_routeId].firstAscent */\n      swap1\n      pop\n        /* \"contracts/Yosemite.sol\":3795:3912  function firstAscend(uint _routeId) public view returns(address) {... */\n      swap2\n      swap1\n      pop\n      jump\t// out\n        /* \"contracts/Yosemite.sol\":2135:2224  function totalUsers() external view returns(uint) {... */\n    tag_85:\n        /* \"contracts/Yosemite.sol\":2179:2183  uint */\n      0x00\n        /* \"contracts/Yosemite.sol\":2202:2210  usersArr */\n      0x05\n        /* \"contracts/Yosemite.sol\":2202:2217  usersArr.length */\n      dup1\n      sload\n      swap1\n      pop\n        /* \"contracts/Yosemite.sol\":2195:2217  return usersArr.length */\n      swap1\n      pop\n        /* \"contracts/Yosemite.sol\":2135:2224  function totalUsers() external view returns(uint) {... */\n      swap1\n      jump\t// out\n        /* \"contracts/Yosemite.sol\":417:459  mapping (address => uint) public climberId */\n    tag_90:\n      mstore(0x20, 0x02)\n      dup1\n      0x00\n      mstore\n      keccak256(0x00, 0x40)\n      0x00\n      swap2\n      pop\n      swap1\n      pop\n      sload\n      dup2\n      jump\t// out\n    tag_98:\n      dup3\n      dup1\n      sload\n      tag_162\n      swap1\n      tag_119\n      jump\t// in\n    tag_162:\n      swap1\n      0x00\n      mstore\n      keccak256(0x00, 0x20)\n      swap1\n      0x1f\n      add\n      0x20\n      swap1\n      div\n      dup2\n      add\n      swap3\n      dup3\n      tag_164\n      jumpi\n      0x00\n      dup6\n      sstore\n      jump(tag_163)\n    tag_164:\n      dup3\n      0x1f\n      lt\n      tag_165\n      jumpi\n      dup1\n      mload\n      not(0xff)\n      and\n      dup4\n      dup1\n      add\n      or\n      dup6\n      sstore\n      jump(tag_163)\n    tag_165:\n      dup3\n      dup1\n      add\n      0x01\n      add\n      dup6\n      sstore\n      dup3\n      iszero\n      tag_163\n      jumpi\n      swap2\n      dup3\n      add\n    tag_166:\n      dup3\n      dup2\n      gt\n      iszero\n      tag_167\n      jumpi\n      dup3\n      mload\n      dup3\n      sstore\n      swap2\n      0x20\n      add\n      swap2\n      swap1\n      0x01\n      add\n      swap1\n      jump(tag_166)\n    tag_167:\n    tag_163:\n      pop\n      swap1\n      pop\n      tag_168\n      swap2\n      swap1\n      tag_169\n      jump\t// in\n    tag_168:\n      pop\n      swap1\n      jump\t// out\n    tag_130:\n      mload(0x40)\n      dup1\n      0x80\n      add\n      0x40\n      mstore\n      dup1\n      0x00\n      dup2\n      mstore\n      0x20\n      add\n      0x60\n      dup2\n      mstore\n      0x20\n      add\n      0x00\n      dup2\n      mstore\n      0x20\n      add\n      and(0xffffffffffffffffffffffffffffffffffffffff, 0x00)\n      dup2\n      mstore\n      pop\n      swap1\n      jump\t// out\n    tag_169:\n    tag_170:\n      dup1\n      dup3\n      gt\n      iszero\n      tag_171\n      jumpi\n      0x00\n      dup2\n      0x00\n      swap1\n      sstore\n      pop\n      0x01\n      add\n      jump(tag_170)\n    tag_171:\n      pop\n      swap1\n      jump\t// out\n        /* \"#utility.yul\":7:419   */\n    tag_173:\n        /* \"#utility.yul\":85:90   */\n      0x00\n        /* \"#utility.yul\":110:176   */\n      tag_175\n        /* \"#utility.yul\":126:175   */\n      tag_176\n        /* \"#utility.yul\":168:174   */\n      dup5\n        /* \"#utility.yul\":126:175   */\n      tag_177\n      jump\t// in\n    tag_176:\n        /* \"#utility.yul\":110:176   */\n      tag_178\n      jump\t// in\n    tag_175:\n        /* \"#utility.yul\":101:176   */\n      swap1\n      pop\n        /* \"#utility.yul\":199:205   */\n      dup3\n        /* \"#utility.yul\":192:197   */\n      dup2\n        /* \"#utility.yul\":185:206   */\n      mstore\n        /* \"#utility.yul\":237:241   */\n      0x20\n        /* \"#utility.yul\":230:235   */\n      dup2\n        /* \"#utility.yul\":226:242   */\n      add\n        /* \"#utility.yul\":275:278   */\n      dup5\n        /* \"#utility.yul\":266:272   */\n      dup5\n        /* \"#utility.yul\":261:264   */\n      dup5\n        /* \"#utility.yul\":257:273   */\n      add\n        /* \"#utility.yul\":254:279   */\n      gt\n        /* \"#utility.yul\":251:363   */\n      iszero\n      tag_179\n      jumpi\n        /* \"#utility.yul\":282:361   */\n      tag_180\n      tag_181\n      jump\t// in\n    tag_180:\n        /* \"#utility.yul\":251:363   */\n    tag_179:\n        /* \"#utility.yul\":372:413   */\n      tag_182\n        /* \"#utility.yul\":406:412   */\n      dup5\n        /* \"#utility.yul\":401:404   */\n      dup3\n        /* \"#utility.yul\":396:399   */\n      dup6\n        /* \"#utility.yul\":372:413   */\n      tag_183\n      jump\t// in\n    tag_182:\n        /* \"#utility.yul\":91:419   */\n      pop\n        /* \"#utility.yul\":7:419   */\n      swap4\n      swap3\n      pop\n      pop\n      pop\n      jump\t// out\n        /* \"#utility.yul\":425:564   */\n    tag_184:\n        /* \"#utility.yul\":471:476   */\n      0x00\n        /* \"#utility.yul\":509:515   */\n      dup2\n        /* \"#utility.yul\":496:516   */\n      calldataload\n        /* \"#utility.yul\":487:516   */\n      swap1\n      pop\n        /* \"#utility.yul\":525:558   */\n      tag_186\n        /* \"#utility.yul\":552:557   */\n      dup2\n        /* \"#utility.yul\":525:558   */\n      tag_187\n      jump\t// in\n    tag_186:\n        /* \"#utility.yul\":425:564   */\n      swap3\n      swap2\n      pop\n      pop\n      jump\t// out\n        /* \"#utility.yul\":584:924   */\n    tag_188:\n        /* \"#utility.yul\":640:645   */\n      0x00\n        /* \"#utility.yul\":689:692   */\n      dup3\n        /* \"#utility.yul\":682:686   */\n      0x1f\n        /* \"#utility.yul\":674:680   */\n      dup4\n        /* \"#utility.yul\":670:687   */\n      add\n        /* \"#utility.yul\":666:693   */\n      slt\n        /* \"#utility.yul\":656:778   */\n      tag_190\n      jumpi\n        /* \"#utility.yul\":697:776   */\n      tag_191\n      tag_192\n      jump\t// in\n    tag_191:\n        /* \"#utility.yul\":656:778   */\n    tag_190:\n        /* \"#utility.yul\":814:820   */\n      dup2\n        /* \"#utility.yul\":801:821   */\n      calldataload\n        /* \"#utility.yul\":839:918   */\n      tag_193\n        /* \"#utility.yul\":914:917   */\n      dup5\n        /* \"#utility.yul\":906:912   */\n      dup3\n        /* \"#utility.yul\":899:903   */\n      0x20\n        /* \"#utility.yul\":891:897   */\n      dup7\n        /* \"#utility.yul\":887:904   */\n      add\n        /* \"#utility.yul\":839:918   */\n      tag_173\n      jump\t// in\n    tag_193:\n        /* \"#utility.yul\":830:918   */\n      swap2\n      pop\n        /* \"#utility.yul\":646:924   */\n      pop\n        /* \"#utility.yul\":584:924   */\n      swap3\n      swap2\n      pop\n      pop\n      jump\t// out\n        /* \"#utility.yul\":930:1069   */\n    tag_194:\n        /* \"#utility.yul\":976:981   */\n      0x00\n        /* \"#utility.yul\":1014:1020   */\n      dup2\n        /* \"#utility.yul\":1001:1021   */\n      calldataload\n        /* \"#utility.yul\":992:1021   */\n      swap1\n      pop\n        /* \"#utility.yul\":1030:1063   */\n      tag_196\n        /* \"#utility.yul\":1057:1062   */\n      dup2\n        /* \"#utility.yul\":1030:1063   */\n      tag_197\n      jump\t// in\n    tag_196:\n        /* \"#utility.yul\":930:1069   */\n      swap3\n      swap2\n      pop\n      pop\n      jump\t// out\n        /* \"#utility.yul\":1075:1404   */\n    tag_34:\n        /* \"#utility.yul\":1134:1140   */\n      0x00\n        /* \"#utility.yul\":1183:1185   */\n      0x20\n        /* \"#utility.yul\":1171:1180   */\n      dup3\n        /* \"#utility.yul\":1162:1169   */\n      dup5\n        /* \"#utility.yul\":1158:1181   */\n      sub\n        /* \"#utility.yul\":1154:1186   */\n      slt\n        /* \"#utility.yul\":1151:1270   */\n      iszero\n      tag_199\n      jumpi\n        /* \"#utility.yul\":1189:1268   */\n      tag_200\n      tag_201\n      jump\t// in\n    tag_200:\n        /* \"#utility.yul\":1151:1270   */\n    tag_199:\n        /* \"#utility.yul\":1309:1310   */\n      0x00\n        /* \"#utility.yul\":1334:1387   */\n      tag_202\n        /* \"#utility.yul\":1379:1386   */\n      dup5\n        /* \"#utility.yul\":1370:1376   */\n      dup3\n        /* \"#utility.yul\":1359:1368   */\n      dup6\n        /* \"#utility.yul\":1355:1377   */\n      add\n        /* \"#utility.yul\":1334:1387   */\n      tag_184\n      jump\t// in\n    tag_202:\n        /* \"#utility.yul\":1324:1387   */\n      swap2\n      pop\n        /* \"#utility.yul\":1280:1397   */\n      pop\n        /* \"#utility.yul\":1075:1404   */\n      swap3\n      swap2\n      pop\n      pop\n      jump\t// out\n        /* \"#utility.yul\":1410:1884   */\n    tag_54:\n        /* \"#utility.yul\":1478:1484   */\n      0x00\n        /* \"#utility.yul\":1486:1492   */\n      dup1\n        /* \"#utility.yul\":1535:1537   */\n      0x40\n        /* \"#utility.yul\":1523:1532   */\n      dup4\n        /* \"#utility.yul\":1514:1521   */\n      dup6\n        /* \"#utility.yul\":1510:1533   */\n      sub\n        /* \"#utility.yul\":1506:1538   */\n      slt\n        /* \"#utility.yul\":1503:1622   */\n      iszero\n      tag_204\n      jumpi\n        /* \"#utility.yul\":1541:1620   */\n      tag_205\n      tag_201\n      jump\t// in\n    tag_205:\n        /* \"#utility.yul\":1503:1622   */\n    tag_204:\n        /* \"#utility.yul\":1661:1662   */\n      0x00\n        /* \"#utility.yul\":1686:1739   */\n      tag_206\n        /* \"#utility.yul\":1731:1738   */\n      dup6\n        /* \"#utility.yul\":1722:1728   */\n      dup3\n        /* \"#utility.yul\":1711:1720   */\n      dup7\n        /* \"#utility.yul\":1707:1729   */\n      add\n        /* \"#utility.yul\":1686:1739   */\n      tag_184\n      jump\t// in\n    tag_206:\n        /* \"#utility.yul\":1676:1739   */\n      swap3\n      pop\n        /* \"#utility.yul\":1632:1749   */\n      pop\n        /* \"#utility.yul\":1788:1790   */\n      0x20\n        /* \"#utility.yul\":1814:1867   */\n      tag_207\n        /* \"#utility.yul\":1859:1866   */\n      dup6\n        /* \"#utility.yul\":1850:1856   */\n      dup3\n        /* \"#utility.yul\":1839:1848   */\n      dup7\n        /* \"#utility.yul\":1835:1857   */\n      add\n        /* \"#utility.yul\":1814:1867   */\n      tag_194\n      jump\t// in\n    tag_207:\n        /* \"#utility.yul\":1804:1867   */\n      swap2\n      pop\n        /* \"#utility.yul\":1759:1877   */\n      pop\n        /* \"#utility.yul\":1410:1884   */\n      swap3\n      pop\n      swap3\n      swap1\n      pop\n      jump\t// out\n        /* \"#utility.yul\":1890:2399   */\n    tag_24:\n        /* \"#utility.yul\":1959:1965   */\n      0x00\n        /* \"#utility.yul\":2008:2010   */\n      0x20\n        /* \"#utility.yul\":1996:2005   */\n      dup3\n        /* \"#utility.yul\":1987:1994   */\n      dup5\n        /* \"#utility.yul\":1983:2006   */\n      sub\n        /* \"#utility.yul\":1979:2011   */\n      slt\n        /* \"#utility.yul\":1976:2095   */\n      iszero\n      tag_209\n      jumpi\n        /* \"#utility.yul\":2014:2093   */\n      tag_210\n      tag_201\n      jump\t// in\n    tag_210:\n        /* \"#utility.yul\":1976:2095   */\n    tag_209:\n        /* \"#utility.yul\":2162:2163   */\n      0x00\n        /* \"#utility.yul\":2151:2160   */\n      dup3\n        /* \"#utility.yul\":2147:2164   */\n      add\n        /* \"#utility.yul\":2134:2165   */\n      calldataload\n        /* \"#utility.yul\":2192:2210   */\n      0xffffffffffffffff\n        /* \"#utility.yul\":2184:2190   */\n      dup2\n        /* \"#utility.yul\":2181:2211   */\n      gt\n        /* \"#utility.yul\":2178:2295   */\n      iszero\n      tag_211\n      jumpi\n        /* \"#utility.yul\":2214:2293   */\n      tag_212\n      tag_213\n      jump\t// in\n    tag_212:\n        /* \"#utility.yul\":2178:2295   */\n    tag_211:\n        /* \"#utility.yul\":2319:2382   */\n      tag_214\n        /* \"#utility.yul\":2374:2381   */\n      dup5\n        /* \"#utility.yul\":2365:2371   */\n      dup3\n        /* \"#utility.yul\":2354:2363   */\n      dup6\n        /* \"#utility.yul\":2350:2372   */\n      add\n        /* \"#utility.yul\":2319:2382   */\n      tag_188\n      jump\t// in\n    tag_214:\n        /* \"#utility.yul\":2309:2382   */\n      swap2\n      pop\n        /* \"#utility.yul\":2105:2392   */\n      pop\n        /* \"#utility.yul\":1890:2399   */\n      swap3\n      swap2\n      pop\n      pop\n      jump\t// out\n        /* \"#utility.yul\":2405:3059   */\n    tag_65:\n        /* \"#utility.yul\":2483:2489   */\n      0x00\n        /* \"#utility.yul\":2491:2497   */\n      dup1\n        /* \"#utility.yul\":2540:2542   */\n      0x40\n        /* \"#utility.yul\":2528:2537   */\n      dup4\n        /* \"#utility.yul\":2519:2526   */\n      dup6\n        /* \"#utility.yul\":2515:2538   */\n      sub\n        /* \"#utility.yul\":2511:2543   */\n      slt\n        /* \"#utility.yul\":2508:2627   */\n      iszero\n      tag_216\n      jumpi\n        /* \"#utility.yul\":2546:2625   */\n      tag_217\n      tag_201\n      jump\t// in\n    tag_217:\n        /* \"#utility.yul\":2508:2627   */\n    tag_216:\n        /* \"#utility.yul\":2694:2695   */\n      0x00\n        /* \"#utility.yul\":2683:2692   */\n      dup4\n        /* \"#utility.yul\":2679:2696   */\n      add\n        /* \"#utility.yul\":2666:2697   */\n      calldataload\n        /* \"#utility.yul\":2724:2742   */\n      0xffffffffffffffff\n        /* \"#utility.yul\":2716:2722   */\n      dup2\n        /* \"#utility.yul\":2713:2743   */\n      gt\n        /* \"#utility.yul\":2710:2827   */\n      iszero\n      tag_218\n      jumpi\n        /* \"#utility.yul\":2746:2825   */\n      tag_219\n      tag_213\n      jump\t// in\n    tag_219:\n        /* \"#utility.yul\":2710:2827   */\n    tag_218:\n        /* \"#utility.yul\":2851:2914   */\n      tag_220\n        /* \"#utility.yul\":2906:2913   */\n      dup6\n        /* \"#utility.yul\":2897:2903   */\n      dup3\n        /* \"#utility.yul\":2886:2895   */\n      dup7\n        /* \"#utility.yul\":2882:2904   */\n      add\n        /* \"#utility.yul\":2851:2914   */\n      tag_188\n      jump\t// in\n    tag_220:\n        /* \"#utility.yul\":2841:2914   */\n      swap3\n      pop\n        /* \"#utility.yul\":2637:2924   */\n      pop\n        /* \"#utility.yul\":2963:2965   */\n      0x20\n        /* \"#utility.yul\":2989:3042   */\n      tag_221\n        /* \"#utility.yul\":3034:3041   */\n      dup6\n        /* \"#utility.yul\":3025:3031   */\n      dup3\n        /* \"#utility.yul\":3014:3023   */\n      dup7\n        /* \"#utility.yul\":3010:3032   */\n      add\n        /* \"#utility.yul\":2989:3042   */\n      tag_194\n      jump\t// in\n    tag_221:\n        /* \"#utility.yul\":2979:3042   */\n      swap2\n      pop\n        /* \"#utility.yul\":2934:3052   */\n      pop\n        /* \"#utility.yul\":2405:3059   */\n      swap3\n      pop\n      swap3\n      swap1\n      pop\n      jump\t// out\n        /* \"#utility.yul\":3065:3394   */\n    tag_39:\n        /* \"#utility.yul\":3124:3130   */\n      0x00\n        /* \"#utility.yul\":3173:3175   */\n      0x20\n        /* \"#utility.yul\":3161:3170   */\n      dup3\n        /* \"#utility.yul\":3152:3159   */\n      dup5\n        /* \"#utility.yul\":3148:3171   */\n      sub\n        /* \"#utility.yul\":3144:3176   */\n      slt\n        /* \"#utility.yul\":3141:3260   */\n      iszero\n      tag_223\n      jumpi\n        /* \"#utility.yul\":3179:3258   */\n      tag_224\n      tag_201\n      jump\t// in\n    tag_224:\n        /* \"#utility.yul\":3141:3260   */\n    tag_223:\n        /* \"#utility.yul\":3299:3300   */\n      0x00\n        /* \"#utility.yul\":3324:3377   */\n      tag_225\n        /* \"#utility.yul\":3369:3376   */\n      dup5\n        /* \"#utility.yul\":3360:3366   */\n      dup3\n        /* \"#utility.yul\":3349:3358   */\n      dup6\n        /* \"#utility.yul\":3345:3367   */\n      add\n        /* \"#utility.yul\":3324:3377   */\n      tag_194\n      jump\t// in\n    tag_225:\n        /* \"#utility.yul\":3314:3377   */\n      swap2\n      pop\n        /* \"#utility.yul\":3270:3387   */\n      pop\n        /* \"#utility.yul\":3065:3394   */\n      swap3\n      swap2\n      pop\n      pop\n      jump\t// out\n        /* \"#utility.yul\":3400:3579   */\n    tag_226:\n        /* \"#utility.yul\":3469:3479   */\n      0x00\n        /* \"#utility.yul\":3490:3536   */\n      tag_228\n        /* \"#utility.yul\":3532:3535   */\n      dup4\n        /* \"#utility.yul\":3524:3530   */\n      dup4\n        /* \"#utility.yul\":3490:3536   */\n      tag_229\n      jump\t// in\n    tag_228:\n        /* \"#utility.yul\":3568:3572   */\n      0x20\n        /* \"#utility.yul\":3563:3566   */\n      dup4\n        /* \"#utility.yul\":3559:3573   */\n      add\n        /* \"#utility.yul\":3545:3573   */\n      swap1\n      pop\n        /* \"#utility.yul\":3400:3579   */\n      swap3\n      swap2\n      pop\n      pop\n      jump\t// out\n        /* \"#utility.yul\":3585:3693   */\n    tag_229:\n        /* \"#utility.yul\":3662:3686   */\n      tag_231\n        /* \"#utility.yul\":3680:3685   */\n      dup2\n        /* \"#utility.yul\":3662:3686   */\n      tag_232\n      jump\t// in\n    tag_231:\n        /* \"#utility.yul\":3657:3660   */\n      dup3\n        /* \"#utility.yul\":3650:3687   */\n      mstore\n        /* \"#utility.yul\":3585:3693   */\n      pop\n      pop\n      jump\t// out\n        /* \"#utility.yul\":3699:3817   */\n    tag_233:\n        /* \"#utility.yul\":3786:3810   */\n      tag_235\n        /* \"#utility.yul\":3804:3809   */\n      dup2\n        /* \"#utility.yul\":3786:3810   */\n      tag_232\n      jump\t// in\n    tag_235:\n        /* \"#utility.yul\":3781:3784   */\n      dup3\n        /* \"#utility.yul\":3774:3811   */\n      mstore\n        /* \"#utility.yul\":3699:3817   */\n      pop\n      pop\n      jump\t// out\n        /* \"#utility.yul\":3853:4585   */\n    tag_236:\n        /* \"#utility.yul\":3972:3975   */\n      0x00\n        /* \"#utility.yul\":4001:4055   */\n      tag_238\n        /* \"#utility.yul\":4049:4054   */\n      dup3\n        /* \"#utility.yul\":4001:4055   */\n      tag_239\n      jump\t// in\n    tag_238:\n        /* \"#utility.yul\":4071:4157   */\n      tag_240\n        /* \"#utility.yul\":4150:4156   */\n      dup2\n        /* \"#utility.yul\":4145:4148   */\n      dup6\n        /* \"#utility.yul\":4071:4157   */\n      tag_241\n      jump\t// in\n    tag_240:\n        /* \"#utility.yul\":4064:4157   */\n      swap4\n      pop\n        /* \"#utility.yul\":4181:4237   */\n      tag_242\n        /* \"#utility.yul\":4231:4236   */\n      dup4\n        /* \"#utility.yul\":4181:4237   */\n      tag_243\n      jump\t// in\n    tag_242:\n        /* \"#utility.yul\":4260:4267   */\n      dup1\n        /* \"#utility.yul\":4291:4292   */\n      0x00\n        /* \"#utility.yul\":4276:4560   */\n    tag_244:\n        /* \"#utility.yul\":4301:4307   */\n      dup4\n        /* \"#utility.yul\":4298:4299   */\n      dup2\n        /* \"#utility.yul\":4295:4308   */\n      lt\n        /* \"#utility.yul\":4276:4560   */\n      iszero\n      tag_246\n      jumpi\n        /* \"#utility.yul\":4377:4383   */\n      dup2\n        /* \"#utility.yul\":4371:4384   */\n      mload\n        /* \"#utility.yul\":4404:4467   */\n      tag_247\n        /* \"#utility.yul\":4463:4466   */\n      dup9\n        /* \"#utility.yul\":4448:4461   */\n      dup3\n        /* \"#utility.yul\":4404:4467   */\n      tag_226\n      jump\t// in\n    tag_247:\n        /* \"#utility.yul\":4397:4467   */\n      swap8\n      pop\n        /* \"#utility.yul\":4490:4550   */\n      tag_248\n        /* \"#utility.yul\":4543:4549   */\n      dup4\n        /* \"#utility.yul\":4490:4550   */\n      tag_249\n      jump\t// in\n    tag_248:\n        /* \"#utility.yul\":4480:4550   */\n      swap3\n      pop\n        /* \"#utility.yul\":4336:4560   */\n      pop\n        /* \"#utility.yul\":4323:4324   */\n      0x01\n        /* \"#utility.yul\":4320:4321   */\n      dup2\n        /* \"#utility.yul\":4316:4325   */\n      add\n        /* \"#utility.yul\":4311:4325   */\n      swap1\n      pop\n        /* \"#utility.yul\":4276:4560   */\n      jump(tag_244)\n    tag_246:\n        /* \"#utility.yul\":4280:4294   */\n      pop\n        /* \"#utility.yul\":4576:4579   */\n      dup6\n        /* \"#utility.yul\":4569:4579   */\n      swap4\n      pop\n        /* \"#utility.yul\":3977:4585   */\n      pop\n      pop\n      pop\n        /* \"#utility.yul\":3853:4585   */\n      swap3\n      swap2\n      pop\n      pop\n      jump\t// out\n        /* \"#utility.yul\":4591:4700   */\n    tag_250:\n        /* \"#utility.yul\":4672:4693   */\n      tag_252\n        /* \"#utility.yul\":4687:4692   */\n      dup2\n        /* \"#utility.yul\":4672:4693   */\n      tag_253\n      jump\t// in\n    tag_252:\n        /* \"#utility.yul\":4667:4670   */\n      dup3\n        /* \"#utility.yul\":4660:4694   */\n      mstore\n        /* \"#utility.yul\":4591:4700   */\n      pop\n      pop\n      jump\t// out\n        /* \"#utility.yul\":4706:5070   */\n    tag_254:\n        /* \"#utility.yul\":4794:4797   */\n      0x00\n        /* \"#utility.yul\":4822:4861   */\n      tag_256\n        /* \"#utility.yul\":4855:4860   */\n      dup3\n        /* \"#utility.yul\":4822:4861   */\n      tag_257\n      jump\t// in\n    tag_256:\n        /* \"#utility.yul\":4877:4948   */\n      tag_258\n        /* \"#utility.yul\":4941:4947   */\n      dup2\n        /* \"#utility.yul\":4936:4939   */\n      dup6\n        /* \"#utility.yul\":4877:4948   */\n      tag_259\n      jump\t// in\n    tag_258:\n        /* \"#utility.yul\":4870:4948   */\n      swap4\n      pop\n        /* \"#utility.yul\":4957:5009   */\n      tag_260\n        /* \"#utility.yul\":5002:5008   */\n      dup2\n        /* \"#utility.yul\":4997:5000   */\n      dup6\n        /* \"#utility.yul\":4990:4994   */\n      0x20\n        /* \"#utility.yul\":4983:4988   */\n      dup7\n        /* \"#utility.yul\":4979:4995   */\n      add\n        /* \"#utility.yul\":4957:5009   */\n      tag_261\n      jump\t// in\n    tag_260:\n        /* \"#utility.yul\":5034:5063   */\n      tag_262\n        /* \"#utility.yul\":5056:5062   */\n      dup2\n        /* \"#utility.yul\":5034:5063   */\n      tag_263\n      jump\t// in\n    tag_262:\n        /* \"#utility.yul\":5029:5032   */\n      dup5\n        /* \"#utility.yul\":5025:5064   */\n      add\n        /* \"#utility.yul\":5018:5064   */\n      swap2\n      pop\n        /* \"#utility.yul\":4798:5070   */\n      pop\n        /* \"#utility.yul\":4706:5070   */\n      swap3\n      swap2\n      pop\n      pop\n      jump\t// out\n        /* \"#utility.yul\":5076:5194   */\n    tag_264:\n        /* \"#utility.yul\":5163:5187   */\n      tag_266\n        /* \"#utility.yul\":5181:5186   */\n      dup2\n        /* \"#utility.yul\":5163:5187   */\n      tag_267\n      jump\t// in\n    tag_266:\n        /* \"#utility.yul\":5158:5161   */\n      dup3\n        /* \"#utility.yul\":5151:5188   */\n      mstore\n        /* \"#utility.yul\":5076:5194   */\n      pop\n      pop\n      jump\t// out\n        /* \"#utility.yul\":5200:5422   */\n    tag_42:\n        /* \"#utility.yul\":5293:5297   */\n      0x00\n        /* \"#utility.yul\":5331:5333   */\n      0x20\n        /* \"#utility.yul\":5320:5329   */\n      dup3\n        /* \"#utility.yul\":5316:5334   */\n      add\n        /* \"#utility.yul\":5308:5334   */\n      swap1\n      pop\n        /* \"#utility.yul\":5344:5415   */\n      tag_269\n        /* \"#utility.yul\":5412:5413   */\n      0x00\n        /* \"#utility.yul\":5401:5410   */\n      dup4\n        /* \"#utility.yul\":5397:5414   */\n      add\n        /* \"#utility.yul\":5388:5394   */\n      dup5\n        /* \"#utility.yul\":5344:5415   */\n      tag_233\n      jump\t// in\n    tag_269:\n        /* \"#utility.yul\":5200:5422   */\n      swap3\n      swap2\n      pop\n      pop\n      jump\t// out\n        /* \"#utility.yul\":5428:5801   */\n    tag_31:\n        /* \"#utility.yul\":5571:5575   */\n      0x00\n        /* \"#utility.yul\":5609:5611   */\n      0x20\n        /* \"#utility.yul\":5598:5607   */\n      dup3\n        /* \"#utility.yul\":5594:5612   */\n      add\n        /* \"#utility.yul\":5586:5612   */\n      swap1\n      pop\n        /* \"#utility.yul\":5658:5667   */\n      dup2\n        /* \"#utility.yul\":5652:5656   */\n      dup2\n        /* \"#utility.yul\":5648:5668   */\n      sub\n        /* \"#utility.yul\":5644:5645   */\n      0x00\n        /* \"#utility.yul\":5633:5642   */\n      dup4\n        /* \"#utility.yul\":5629:5646   */\n      add\n        /* \"#utility.yul\":5622:5669   */\n      mstore\n        /* \"#utility.yul\":5686:5794   */\n      tag_271\n        /* \"#utility.yul\":5789:5793   */\n      dup2\n        /* \"#utility.yul\":5780:5786   */\n      dup5\n        /* \"#utility.yul\":5686:5794   */\n      tag_236\n      jump\t// in\n    tag_271:\n        /* \"#utility.yul\":5678:5794   */\n      swap1\n      pop\n        /* \"#utility.yul\":5428:5801   */\n      swap3\n      swap2\n      pop\n      pop\n      jump\t// out\n        /* \"#utility.yul\":5807:6017   */\n    tag_75:\n        /* \"#utility.yul\":5894:5898   */\n      0x00\n        /* \"#utility.yul\":5932:5934   */\n      0x20\n        /* \"#utility.yul\":5921:5930   */\n      dup3\n        /* \"#utility.yul\":5917:5935   */\n      add\n        /* \"#utility.yul\":5909:5935   */\n      swap1\n      pop\n        /* \"#utility.yul\":5945:6010   */\n      tag_273\n        /* \"#utility.yul\":6007:6008   */\n      0x00\n        /* \"#utility.yul\":5996:6005   */\n      dup4\n        /* \"#utility.yul\":5992:6009   */\n      add\n        /* \"#utility.yul\":5983:5989   */\n      dup5\n        /* \"#utility.yul\":5945:6010   */\n      tag_250\n      jump\t// in\n    tag_273:\n        /* \"#utility.yul\":5807:6017   */\n      swap3\n      swap2\n      pop\n      pop\n      jump\t// out\n        /* \"#utility.yul\":6023:6336   */\n    tag_27:\n        /* \"#utility.yul\":6136:6140   */\n      0x00\n        /* \"#utility.yul\":6174:6176   */\n      0x20\n        /* \"#utility.yul\":6163:6172   */\n      dup3\n        /* \"#utility.yul\":6159:6177   */\n      add\n        /* \"#utility.yul\":6151:6177   */\n      swap1\n      pop\n        /* \"#utility.yul\":6223:6232   */\n      dup2\n        /* \"#utility.yul\":6217:6221   */\n      dup2\n        /* \"#utility.yul\":6213:6233   */\n      sub\n        /* \"#utility.yul\":6209:6210   */\n      0x00\n        /* \"#utility.yul\":6198:6207   */\n      dup4\n        /* \"#utility.yul\":6194:6211   */\n      add\n        /* \"#utility.yul\":6187:6234   */\n      mstore\n        /* \"#utility.yul\":6251:6329   */\n      tag_275\n        /* \"#utility.yul\":6324:6328   */\n      dup2\n        /* \"#utility.yul\":6315:6321   */\n      dup5\n        /* \"#utility.yul\":6251:6329   */\n      tag_254\n      jump\t// in\n    tag_275:\n        /* \"#utility.yul\":6243:6329   */\n      swap1\n      pop\n        /* \"#utility.yul\":6023:6336   */\n      swap3\n      swap2\n      pop\n      pop\n      jump\t// out\n        /* \"#utility.yul\":6342:6564   */\n    tag_87:\n        /* \"#utility.yul\":6435:6439   */\n      0x00\n        /* \"#utility.yul\":6473:6475   */\n      0x20\n        /* \"#utility.yul\":6462:6471   */\n      dup3\n        /* \"#utility.yul\":6458:6476   */\n      add\n        /* \"#utility.yul\":6450:6476   */\n      swap1\n      pop\n        /* \"#utility.yul\":6486:6557   */\n      tag_277\n        /* \"#utility.yul\":6554:6555   */\n      0x00\n        /* \"#utility.yul\":6543:6552   */\n      dup4\n        /* \"#utility.yul\":6539:6556   */\n      add\n        /* \"#utility.yul\":6530:6536   */\n      dup5\n        /* \"#utility.yul\":6486:6557   */\n      tag_264\n      jump\t// in\n    tag_277:\n        /* \"#utility.yul\":6342:6564   */\n      swap3\n      swap2\n      pop\n      pop\n      jump\t// out\n        /* \"#utility.yul\":6570:7214   */\n    tag_51:\n        /* \"#utility.yul\":6767:6771   */\n      0x00\n        /* \"#utility.yul\":6805:6808   */\n      0x80\n        /* \"#utility.yul\":6794:6803   */\n      dup3\n        /* \"#utility.yul\":6790:6809   */\n      add\n        /* \"#utility.yul\":6782:6809   */\n      swap1\n      pop\n        /* \"#utility.yul\":6819:6890   */\n      tag_279\n        /* \"#utility.yul\":6887:6888   */\n      0x00\n        /* \"#utility.yul\":6876:6885   */\n      dup4\n        /* \"#utility.yul\":6872:6889   */\n      add\n        /* \"#utility.yul\":6863:6869   */\n      dup8\n        /* \"#utility.yul\":6819:6890   */\n      tag_264\n      jump\t// in\n    tag_279:\n        /* \"#utility.yul\":6937:6946   */\n      dup2\n        /* \"#utility.yul\":6931:6935   */\n      dup2\n        /* \"#utility.yul\":6927:6947   */\n      sub\n        /* \"#utility.yul\":6922:6924   */\n      0x20\n        /* \"#utility.yul\":6911:6920   */\n      dup4\n        /* \"#utility.yul\":6907:6925   */\n      add\n        /* \"#utility.yul\":6900:6948   */\n      mstore\n        /* \"#utility.yul\":6965:7043   */\n      tag_280\n        /* \"#utility.yul\":7038:7042   */\n      dup2\n        /* \"#utility.yul\":7029:7035   */\n      dup7\n        /* \"#utility.yul\":6965:7043   */\n      tag_254\n      jump\t// in\n    tag_280:\n        /* \"#utility.yul\":6957:7043   */\n      swap1\n      pop\n        /* \"#utility.yul\":7053:7125   */\n      tag_281\n        /* \"#utility.yul\":7121:7123   */\n      0x40\n        /* \"#utility.yul\":7110:7119   */\n      dup4\n        /* \"#utility.yul\":7106:7124   */\n      add\n        /* \"#utility.yul\":7097:7103   */\n      dup6\n        /* \"#utility.yul\":7053:7125   */\n      tag_264\n      jump\t// in\n    tag_281:\n        /* \"#utility.yul\":7135:7207   */\n      tag_282\n        /* \"#utility.yul\":7203:7205   */\n      0x60\n        /* \"#utility.yul\":7192:7201   */\n      dup4\n        /* \"#utility.yul\":7188:7206   */\n      add\n        /* \"#utility.yul\":7179:7185   */\n      dup5\n        /* \"#utility.yul\":7135:7207   */\n      tag_233\n      jump\t// in\n    tag_282:\n        /* \"#utility.yul\":6570:7214   */\n      swap6\n      swap5\n      pop\n      pop\n      pop\n      pop\n      pop\n      jump\t// out\n        /* \"#utility.yul\":7220:7349   */\n    tag_178:\n        /* \"#utility.yul\":7254:7260   */\n      0x00\n        /* \"#utility.yul\":7281:7301   */\n      tag_284\n      tag_285\n      jump\t// in\n    tag_284:\n        /* \"#utility.yul\":7271:7301   */\n      swap1\n      pop\n        /* \"#utility.yul\":7310:7343   */\n      tag_286\n        /* \"#utility.yul\":7338:7342   */\n      dup3\n        /* \"#utility.yul\":7330:7336   */\n      dup3\n        /* \"#utility.yul\":7310:7343   */\n      tag_287\n      jump\t// in\n    tag_286:\n        /* \"#utility.yul\":7220:7349   */\n      swap2\n      swap1\n      pop\n      jump\t// out\n        /* \"#utility.yul\":7355:7430   */\n    tag_285:\n        /* \"#utility.yul\":7388:7394   */\n      0x00\n        /* \"#utility.yul\":7421:7423   */\n      0x40\n        /* \"#utility.yul\":7415:7424   */\n      mload\n        /* \"#utility.yul\":7405:7424   */\n      swap1\n      pop\n        /* \"#utility.yul\":7355:7430   */\n      swap1\n      jump\t// out\n        /* \"#utility.yul\":7436:7744   */\n    tag_177:\n        /* \"#utility.yul\":7498:7502   */\n      0x00\n        /* \"#utility.yul\":7588:7606   */\n      0xffffffffffffffff\n        /* \"#utility.yul\":7580:7586   */\n      dup3\n        /* \"#utility.yul\":7577:7607   */\n      gt\n        /* \"#utility.yul\":7574:7630   */\n      iszero\n      tag_290\n      jumpi\n        /* \"#utility.yul\":7610:7628   */\n      tag_291\n      tag_292\n      jump\t// in\n    tag_291:\n        /* \"#utility.yul\":7574:7630   */\n    tag_290:\n        /* \"#utility.yul\":7648:7677   */\n      tag_293\n        /* \"#utility.yul\":7670:7676   */\n      dup3\n        /* \"#utility.yul\":7648:7677   */\n      tag_263\n      jump\t// in\n    tag_293:\n        /* \"#utility.yul\":7640:7677   */\n      swap1\n      pop\n        /* \"#utility.yul\":7732:7736   */\n      0x20\n        /* \"#utility.yul\":7726:7730   */\n      dup2\n        /* \"#utility.yul\":7722:7737   */\n      add\n        /* \"#utility.yul\":7714:7737   */\n      swap1\n      pop\n        /* \"#utility.yul\":7436:7744   */\n      swap2\n      swap1\n      pop\n      jump\t// out\n        /* \"#utility.yul\":7750:7882   */\n    tag_243:\n        /* \"#utility.yul\":7817:7821   */\n      0x00\n        /* \"#utility.yul\":7840:7843   */\n      dup2\n        /* \"#utility.yul\":7832:7843   */\n      swap1\n      pop\n        /* \"#utility.yul\":7870:7874   */\n      0x20\n        /* \"#utility.yul\":7865:7868   */\n      dup3\n        /* \"#utility.yul\":7861:7875   */\n      add\n        /* \"#utility.yul\":7853:7875   */\n      swap1\n      pop\n        /* \"#utility.yul\":7750:7882   */\n      swap2\n      swap1\n      pop\n      jump\t// out\n        /* \"#utility.yul\":7888:8002   */\n    tag_239:\n        /* \"#utility.yul\":7955:7961   */\n      0x00\n        /* \"#utility.yul\":7989:7994   */\n      dup2\n        /* \"#utility.yul\":7983:7995   */\n      mload\n        /* \"#utility.yul\":7973:7995   */\n      swap1\n      pop\n        /* \"#utility.yul\":7888:8002   */\n      swap2\n      swap1\n      pop\n      jump\t// out\n        /* \"#utility.yul\":8008:8107   */\n    tag_257:\n        /* \"#utility.yul\":8060:8066   */\n      0x00\n        /* \"#utility.yul\":8094:8099   */\n      dup2\n        /* \"#utility.yul\":8088:8100   */\n      mload\n        /* \"#utility.yul\":8078:8100   */\n      swap1\n      pop\n        /* \"#utility.yul\":8008:8107   */\n      swap2\n      swap1\n      pop\n      jump\t// out\n        /* \"#utility.yul\":8113:8226   */\n    tag_249:\n        /* \"#utility.yul\":8183:8187   */\n      0x00\n        /* \"#utility.yul\":8215:8219   */\n      0x20\n        /* \"#utility.yul\":8210:8213   */\n      dup3\n        /* \"#utility.yul\":8206:8220   */\n      add\n        /* \"#utility.yul\":8198:8220   */\n      swap1\n      pop\n        /* \"#utility.yul\":8113:8226   */\n      swap2\n      swap1\n      pop\n      jump\t// out\n        /* \"#utility.yul\":8232:8416   */\n    tag_241:\n        /* \"#utility.yul\":8331:8342   */\n      0x00\n        /* \"#utility.yul\":8365:8371   */\n      dup3\n        /* \"#utility.yul\":8360:8363   */\n      dup3\n        /* \"#utility.yul\":8353:8372   */\n      mstore\n        /* \"#utility.yul\":8405:8409   */\n      0x20\n        /* \"#utility.yul\":8400:8403   */\n      dup3\n        /* \"#utility.yul\":8396:8410   */\n      add\n        /* \"#utility.yul\":8381:8410   */\n      swap1\n      pop\n        /* \"#utility.yul\":8232:8416   */\n      swap3\n      swap2\n      pop\n      pop\n      jump\t// out\n        /* \"#utility.yul\":8422:8591   */\n    tag_259:\n        /* \"#utility.yul\":8506:8517   */\n      0x00\n        /* \"#utility.yul\":8540:8546   */\n      dup3\n        /* \"#utility.yul\":8535:8538   */\n      dup3\n        /* \"#utility.yul\":8528:8547   */\n      mstore\n        /* \"#utility.yul\":8580:8584   */\n      0x20\n        /* \"#utility.yul\":8575:8578   */\n      dup3\n        /* \"#utility.yul\":8571:8585   */\n      add\n        /* \"#utility.yul\":8556:8585   */\n      swap1\n      pop\n        /* \"#utility.yul\":8422:8591   */\n      swap3\n      swap2\n      pop\n      pop\n      jump\t// out\n        /* \"#utility.yul\":8597:8902   */\n    tag_95:\n        /* \"#utility.yul\":8637:8640   */\n      0x00\n        /* \"#utility.yul\":8656:8676   */\n      tag_301\n        /* \"#utility.yul\":8674:8675   */\n      dup3\n        /* \"#utility.yul\":8656:8676   */\n      tag_267\n      jump\t// in\n    tag_301:\n        /* \"#utility.yul\":8651:8676   */\n      swap2\n      pop\n        /* \"#utility.yul\":8690:8710   */\n      tag_302\n        /* \"#utility.yul\":8708:8709   */\n      dup4\n        /* \"#utility.yul\":8690:8710   */\n      tag_267\n      jump\t// in\n    tag_302:\n        /* \"#utility.yul\":8685:8710   */\n      swap3\n      pop\n        /* \"#utility.yul\":8844:8845   */\n      dup3\n        /* \"#utility.yul\":8776:8842   */\n      0xffffffffffffffffffffffffffffffffffffffffffffffffffffffffffffffff\n        /* \"#utility.yul\":8772:8846   */\n      sub\n        /* \"#utility.yul\":8769:8770   */\n      dup3\n        /* \"#utility.yul\":8766:8847   */\n      gt\n        /* \"#utility.yul\":8763:8870   */\n      iszero\n      tag_303\n      jumpi\n        /* \"#utility.yul\":8850:8868   */\n      tag_304\n      tag_305\n      jump\t// in\n    tag_304:\n        /* \"#utility.yul\":8763:8870   */\n    tag_303:\n        /* \"#utility.yul\":8894:8895   */\n      dup3\n        /* \"#utility.yul\":8891:8892   */\n      dup3\n        /* \"#utility.yul\":8887:8896   */\n      add\n        /* \"#utility.yul\":8880:8896   */\n      swap1\n      pop\n        /* \"#utility.yul\":8597:8902   */\n      swap3\n      swap2\n      pop\n      pop\n      jump\t// out\n        /* \"#utility.yul\":8908:9004   */\n    tag_232:\n        /* \"#utility.yul\":8945:8952   */\n      0x00\n        /* \"#utility.yul\":8974:8998   */\n      tag_307\n        /* \"#utility.yul\":8992:8997   */\n      dup3\n        /* \"#utility.yul\":8974:8998   */\n      tag_308\n      jump\t// in\n    tag_307:\n        /* \"#utility.yul\":8963:8998   */\n      swap1\n      pop\n        /* \"#utility.yul\":8908:9004   */\n      swap2\n      swap1\n      pop\n      jump\t// out\n        /* \"#utility.yul\":9010:9100   */\n    tag_253:\n        /* \"#utility.yul\":9044:9051   */\n      0x00\n        /* \"#utility.yul\":9087:9092   */\n      dup2\n        /* \"#utility.yul\":9080:9093   */\n      iszero\n        /* \"#utility.yul\":9073:9094   */\n      iszero\n        /* \"#utility.yul\":9062:9094   */\n      swap1\n      pop\n        /* \"#utility.yul\":9010:9100   */\n      swap2\n      swap1\n      pop\n      jump\t// out\n        /* \"#utility.yul\":9106:9232   */\n    tag_308:\n        /* \"#utility.yul\":9143:9150   */\n      0x00\n        /* \"#utility.yul\":9183:9225   */\n      0xffffffffffffffffffffffffffffffffffffffff\n        /* \"#utility.yul\":9176:9181   */\n      dup3\n        /* \"#utility.yul\":9172:9226   */\n      and\n        /* \"#utility.yul\":9161:9226   */\n      swap1\n      pop\n        /* \"#utility.yul\":9106:9232   */\n      swap2\n      swap1\n      pop\n      jump\t// out\n        /* \"#utility.yul\":9238:9315   */\n    tag_267:\n        /* \"#utility.yul\":9275:9282   */\n      0x00\n        /* \"#utility.yul\":9304:9309   */\n      dup2\n        /* \"#utility.yul\":9293:9309   */\n      swap1\n      pop\n        /* \"#utility.yul\":9238:9315   */\n      swap2\n      swap1\n      pop\n      jump\t// out\n        /* \"#utility.yul\":9321:9475   */\n    tag_183:\n        /* \"#utility.yul\":9405:9411   */\n      dup3\n        /* \"#utility.yul\":9400:9403   */\n      dup2\n        /* \"#utility.yul\":9395:9398   */\n      dup4\n        /* \"#utility.yul\":9382:9412   */\n      calldatacopy\n        /* \"#utility.yul\":9467:9468   */\n      0x00\n        /* \"#utility.yul\":9458:9464   */\n      dup4\n        /* \"#utility.yul\":9453:9456   */\n      dup4\n        /* \"#utility.yul\":9449:9465   */\n      add\n        /* \"#utility.yul\":9442:9469   */\n      mstore\n        /* \"#utility.yul\":9321:9475   */\n      pop\n      pop\n      pop\n      jump\t// out\n        /* \"#utility.yul\":9481:9788   */\n    tag_261:\n        /* \"#utility.yul\":9549:9550   */\n      0x00\n        /* \"#utility.yul\":9559:9672   */\n    tag_314:\n        /* \"#utility.yul\":9573:9579   */\n      dup4\n        /* \"#utility.yul\":9570:9571   */\n      dup2\n        /* \"#utility.yul\":9567:9580   */\n      lt\n        /* \"#utility.yul\":9559:9672   */\n      iszero\n      tag_316\n      jumpi\n        /* \"#utility.yul\":9658:9659   */\n      dup1\n        /* \"#utility.yul\":9653:9656   */\n      dup3\n        /* \"#utility.yul\":9649:9660   */\n      add\n        /* \"#utility.yul\":9643:9661   */\n      mload\n        /* \"#utility.yul\":9639:9640   */\n      dup2\n        /* \"#utility.yul\":9634:9637   */\n      dup5\n        /* \"#utility.yul\":9630:9641   */\n      add\n        /* \"#utility.yul\":9623:9662   */\n      mstore\n        /* \"#utility.yul\":9595:9597   */\n      0x20\n        /* \"#utility.yul\":9592:9593   */\n      dup2\n        /* \"#utility.yul\":9588:9598   */\n      add\n        /* \"#utility.yul\":9583:9598   */\n      swap1\n      pop\n        /* \"#utility.yul\":9559:9672   */\n      jump(tag_314)\n    tag_316:\n        /* \"#utility.yul\":9690:9696   */\n      dup4\n        /* \"#utility.yul\":9687:9688   */\n      dup2\n        /* \"#utility.yul\":9684:9697   */\n      gt\n        /* \"#utility.yul\":9681:9782   */\n      iszero\n      tag_317\n      jumpi\n        /* \"#utility.yul\":9770:9771   */\n      0x00\n        /* \"#utility.yul\":9761:9767   */\n      dup5\n        /* \"#utility.yul\":9756:9759   */\n      dup5\n        /* \"#utility.yul\":9752:9768   */\n      add\n        /* \"#utility.yul\":9745:9772   */\n      mstore\n        /* \"#utility.yul\":9681:9782   */\n    tag_317:\n        /* \"#utility.yul\":9530:9788   */\n      pop\n        /* \"#utility.yul\":9481:9788   */\n      pop\n      pop\n      pop\n      jump\t// out\n        /* \"#utility.yul\":9794:10114   */\n    tag_119:\n        /* \"#utility.yul\":9838:9844   */\n      0x00\n        /* \"#utility.yul\":9875:9876   */\n      0x02\n        /* \"#utility.yul\":9869:9873   */\n      dup3\n        /* \"#utility.yul\":9865:9877   */\n      div\n        /* \"#utility.yul\":9855:9877   */\n      swap1\n      pop\n        /* \"#utility.yul\":9922:9923   */\n      0x01\n        /* \"#utility.yul\":9916:9920   */\n      dup3\n        /* \"#utility.yul\":9912:9924   */\n      and\n        /* \"#utility.yul\":9943:9961   */\n      dup1\n        /* \"#utility.yul\":9933:10014   */\n      tag_319\n      jumpi\n        /* \"#utility.yul\":9999:10003   */\n      0x7f\n        /* \"#utility.yul\":9991:9997   */\n      dup3\n        /* \"#utility.yul\":9987:10004   */\n      and\n        /* \"#utility.yul\":9977:10004   */\n      swap2\n      pop\n        /* \"#utility.yul\":9933:10014   */\n    tag_319:\n        /* \"#utility.yul\":10061:10063   */\n      0x20\n        /* \"#utility.yul\":10053:10059   */\n      dup3\n        /* \"#utility.yul\":10050:10064   */\n      lt\n        /* \"#utility.yul\":10030:10048   */\n      dup2\n        /* \"#utility.yul\":10027:10065   */\n      eq\n        /* \"#utility.yul\":10024:10108   */\n      iszero\n      tag_320\n      jumpi\n        /* \"#utility.yul\":10080:10098   */\n      tag_321\n      tag_322\n      jump\t// in\n    tag_321:\n        /* \"#utility.yul\":10024:10108   */\n    tag_320:\n        /* \"#utility.yul\":9845:10114   */\n      pop\n        /* \"#utility.yul\":9794:10114   */\n      swap2\n      swap1\n      pop\n      jump\t// out\n        /* \"#utility.yul\":10120:10401   */\n    tag_287:\n        /* \"#utility.yul\":10203:10230   */\n      tag_324\n        /* \"#utility.yul\":10225:10229   */\n      dup3\n        /* \"#utility.yul\":10203:10230   */\n      tag_263\n      jump\t// in\n    tag_324:\n        /* \"#utility.yul\":10195:10201   */\n      dup2\n        /* \"#utility.yul\":10191:10231   */\n      add\n        /* \"#utility.yul\":10333:10339   */\n      dup2\n        /* \"#utility.yul\":10321:10331   */\n      dup2\n        /* \"#utility.yul\":10318:10340   */\n      lt\n        /* \"#utility.yul\":10297:10315   */\n      0xffffffffffffffff\n        /* \"#utility.yul\":10285:10295   */\n      dup3\n        /* \"#utility.yul\":10282:10316   */\n      gt\n        /* \"#utility.yul\":10279:10341   */\n      or\n        /* \"#utility.yul\":10276:10364   */\n      iszero\n      tag_325\n      jumpi\n        /* \"#utility.yul\":10344:10362   */\n      tag_326\n      tag_292\n      jump\t// in\n    tag_326:\n        /* \"#utility.yul\":10276:10364   */\n    tag_325:\n        /* \"#utility.yul\":10384:10394   */\n      dup1\n        /* \"#utility.yul\":10380:10382   */\n      0x40\n        /* \"#utility.yul\":10373:10395   */\n      mstore\n        /* \"#utility.yul\":10163:10401   */\n      pop\n        /* \"#utility.yul\":10120:10401   */\n      pop\n      pop\n      jump\t// out\n        /* \"#utility.yul\":10407:10640   */\n    tag_135:\n        /* \"#utility.yul\":10446:10449   */\n      0x00\n        /* \"#utility.yul\":10469:10493   */\n      tag_328\n        /* \"#utility.yul\":10487:10492   */\n      dup3\n        /* \"#utility.yul\":10469:10493   */\n      tag_267\n      jump\t// in\n    tag_328:\n        /* \"#utility.yul\":10460:10493   */\n      swap2\n      pop\n        /* \"#utility.yul\":10515:10581   */\n      0xffffffffffffffffffffffffffffffffffffffffffffffffffffffffffffffff\n        /* \"#utility.yul\":10508:10513   */\n      dup3\n        /* \"#utility.yul\":10505:10582   */\n      eq\n        /* \"#utility.yul\":10502:10605   */\n      iszero\n      tag_329\n      jumpi\n        /* \"#utility.yul\":10585:10603   */\n      tag_330\n      tag_305\n      jump\t// in\n    tag_330:\n        /* \"#utility.yul\":10502:10605   */\n    tag_329:\n        /* \"#utility.yul\":10632:10633   */\n      0x01\n        /* \"#utility.yul\":10625:10630   */\n      dup3\n        /* \"#utility.yul\":10621:10634   */\n      add\n        /* \"#utility.yul\":10614:10634   */\n      swap1\n      pop\n        /* \"#utility.yul\":10407:10640   */\n      swap2\n      swap1\n      pop\n      jump\t// out\n        /* \"#utility.yul\":10646:10826   */\n    tag_305:\n        /* \"#utility.yul\":10694:10771   */\n      0x4e487b7100000000000000000000000000000000000000000000000000000000\n        /* \"#utility.yul\":10691:10692   */\n      0x00\n        /* \"#utility.yul\":10684:10772   */\n      mstore\n        /* \"#utility.yul\":10791:10795   */\n      0x11\n        /* \"#utility.yul\":10788:10789   */\n      0x04\n        /* \"#utility.yul\":10781:10796   */\n      mstore\n        /* \"#utility.yul\":10815:10819   */\n      0x24\n        /* \"#utility.yul\":10812:10813   */\n      0x00\n        /* \"#utility.yul\":10805:10820   */\n      revert\n        /* \"#utility.yul\":10832:11012   */\n    tag_322:\n        /* \"#utility.yul\":10880:10957   */\n      0x4e487b7100000000000000000000000000000000000000000000000000000000\n        /* \"#utility.yul\":10877:10878   */\n      0x00\n        /* \"#utility.yul\":10870:10958   */\n      mstore\n        /* \"#utility.yul\":10977:10981   */\n      0x22\n        /* \"#utility.yul\":10974:10975   */\n      0x04\n        /* \"#utility.yul\":10967:10982   */\n      mstore\n        /* \"#utility.yul\":11001:11005   */\n      0x24\n        /* \"#utility.yul\":10998:10999   */\n      0x00\n        /* \"#utility.yul\":10991:11006   */\n      revert\n        /* \"#utility.yul\":11018:11198   */\n    tag_142:\n        /* \"#utility.yul\":11066:11143   */\n      0x4e487b7100000000000000000000000000000000000000000000000000000000\n        /* \"#utility.yul\":11063:11064   */\n      0x00\n        /* \"#utility.yul\":11056:11144   */\n      mstore\n        /* \"#utility.yul\":11163:11167   */\n      0x32\n        /* \"#utility.yul\":11160:11161   */\n      0x04\n        /* \"#utility.yul\":11153:11168   */\n      mstore\n        /* \"#utility.yul\":11187:11191   */\n      0x24\n        /* \"#utility.yul\":11184:11185   */\n      0x00\n        /* \"#utility.yul\":11177:11192   */\n      revert\n        /* \"#utility.yul\":11204:11384   */\n    tag_292:\n        /* \"#utility.yul\":11252:11329   */\n      0x4e487b7100000000000000000000000000000000000000000000000000000000\n        /* \"#utility.yul\":11249:11250   */\n      0x00\n        /* \"#utility.yul\":11242:11330   */\n      mstore\n        /* \"#utility.yul\":11349:11353   */\n      0x41\n        /* \"#utility.yul\":11346:11347   */\n      0x04\n        /* \"#utility.yul\":11339:11354   */\n      mstore\n        /* \"#utility.yul\":11373:11377   */\n      0x24\n        /* \"#utility.yul\":11370:11371   */\n      0x00\n        /* \"#utility.yul\":11363:11378   */\n      revert\n        /* \"#utility.yul\":11390:11507   */\n    tag_192:\n        /* \"#utility.yul\":11499:11500   */\n      0x00\n        /* \"#utility.yul\":11496:11497   */\n      dup1\n        /* \"#utility.yul\":11489:11501   */\n      revert\n        /* \"#utility.yul\":11513:11630   */\n    tag_181:\n        /* \"#utility.yul\":11622:11623   */\n      0x00\n        /* \"#utility.yul\":11619:11620   */\n      dup1\n        /* \"#utility.yul\":11612:11624   */\n      revert\n        /* \"#utility.yul\":11636:11753   */\n    tag_213:\n        /* \"#utility.yul\":11745:11746   */\n      0x00\n        /* \"#utility.yul\":11742:11743   */\n      dup1\n        /* \"#utility.yul\":11735:11747   */\n      revert\n        /* \"#utility.yul\":11759:11876   */\n    tag_201:\n        /* \"#utility.yul\":11868:11869   */\n      0x00\n        /* \"#utility.yul\":11865:11866   */\n      dup1\n        /* \"#utility.yul\":11858:11870   */\n      revert\n        /* \"#utility.yul\":11882:11984   */\n    tag_263:\n        /* \"#utility.yul\":11923:11929   */\n      0x00\n        /* \"#utility.yul\":11974:11976   */\n      0x1f\n        /* \"#utility.yul\":11970:11977   */\n      not\n        /* \"#utility.yul\":11965:11967   */\n      0x1f\n        /* \"#utility.yul\":11958:11963   */\n      dup4\n        /* \"#utility.yul\":11954:11968   */\n      add\n        /* \"#utility.yul\":11950:11978   */\n      and\n        /* \"#utility.yul\":11940:11978   */\n      swap1\n      pop\n        /* \"#utility.yul\":11882:11984   */\n      swap2\n      swap1\n      pop\n      jump\t// out\n        /* \"#utility.yul\":11990:12112   */\n    tag_187:\n        /* \"#utility.yul\":12063:12087   */\n      tag_341\n        /* \"#utility.yul\":12081:12086   */\n      dup2\n        /* \"#utility.yul\":12063:12087   */\n      tag_232\n      jump\t// in\n    tag_341:\n        /* \"#utility.yul\":12056:12061   */\n      dup2\n        /* \"#utility.yul\":12053:12088   */\n      eq\n        /* \"#utility.yul\":12043:12106   */\n      tag_342\n      jumpi\n        /* \"#utility.yul\":12102:12103   */\n      0x00\n        /* \"#utility.yul\":12099:12100   */\n      dup1\n        /* \"#utility.yul\":12092:12104   */\n      revert\n        /* \"#utility.yul\":12043:12106   */\n    tag_342:\n        /* \"#utility.yul\":11990:12112   */\n      pop\n      jump\t// out\n        /* \"#utility.yul\":12118:12240   */\n    tag_197:\n        /* \"#utility.yul\":12191:12215   */\n      tag_344\n        /* \"#utility.yul\":12209:12214   */\n      dup2\n        /* \"#utility.yul\":12191:12215   */\n      tag_267\n      jump\t// in\n    tag_344:\n        /* \"#utility.yul\":12184:12189   */\n      dup2\n        /* \"#utility.yul\":12181:12216   */\n      eq\n        /* \"#utility.yul\":12171:12234   */\n      tag_345\n      jumpi\n        /* \"#utility.yul\":12230:12231   */\n      0x00\n        /* \"#utility.yul\":12227:12228   */\n      dup1\n        /* \"#utility.yul\":12220:12232   */\n      revert\n        /* \"#utility.yul\":12171:12234   */\n    tag_345:\n        /* \"#utility.yul\":12118:12240   */\n      pop\n      jump\t// out\n\n    auxdata: 0xa26469706673582212205e5503c3da791a91a4449ab7b580446cb60c502cc77bf357a1034cf4968dd79a64736f6c63430008070033\n}\n",
				"bytecode": {
					"linkReferences": {},
					"object": "60806040526006805490506007553480156200001a57600080fd5b50336000806101000a81548173ffffffffffffffffffffffffffffffffffffffff021916908373ffffffffffffffffffffffffffffffffffffffff160217905550600160008054906101000a900473ffffffffffffffffffffffffffffffffffffffff169080600181540180825580915050600190039060005260206000200160009091909190916101000a81548173ffffffffffffffffffffffffffffffffffffffff021916908373ffffffffffffffffffffffffffffffffffffffff1602179055506200010f60008054906101000a900473ffffffffffffffffffffffffffffffffffffffff166200011660201b60201c565b50620003e7565b606060008054906101000a900473ffffffffffffffffffffffffffffffffffffffff1673ffffffffffffffffffffffffffffffffffffffff163373ffffffffffffffffffffffffffffffffffffffff16146200017157600080fd5b600460008373ffffffffffffffffffffffffffffffffffffffff1673ffffffffffffffffffffffffffffffffffffffff16815260200190815260200160002060009054906101000a900460ff1662000313576001600580549050620001d7919062000351565b600260008473ffffffffffffffffffffffffffffffffffffffff1673ffffffffffffffffffffffffffffffffffffffff168152602001908152602001600020819055506005829080600181540180825580915050600190039060005260206000200160009091909190916101000a81548173ffffffffffffffffffffffffffffffffffffffff021916908373ffffffffffffffffffffffffffffffffffffffff1602179055506001600460008473ffffffffffffffffffffffffffffffffffffffff1673ffffffffffffffffffffffffffffffffffffffff16815260200190815260200160002060006101000a81548160ff0219169083151502179055506040518060400160405280601e81526020017f436c696d6265722053756363657366756c6c792052656769737465726564000081525090506200034c565b6040518060400160405280601b81526020017f596f752061726520616c7265616479207265676973746572656421000000000081525090505b919050565b60006200035e82620003ae565b91506200036b83620003ae565b9250827fffffffffffffffffffffffffffffffffffffffffffffffffffffffffffffffff03821115620003a357620003a2620003b8565b5b828201905092915050565b6000819050919050565b7f4e487b7100000000000000000000000000000000000000000000000000000000600052601160045260246000fd5b61175080620003f76000396000f3fe608060405234801561001057600080fd5b50600436106101005760003560e01c80638da5cb5b11610097578063ac9cf38c11610066578063ac9cf38c146102fc578063b9f22dfa1461032c578063bff1f9e11461035c578063d0f759cf1461037a57610100565b80638da5cb5b146102625780639b3ad96814610280578063a052e52e1461029c578063a230c524146102cc57610100565b80636b44efd3116100d35780636b44efd3146101b3578063726f16d8146101e357806374ed6b50146102165780638c8a69271461023257610100565b80630f337ba71461010557806319ddd85d146101355780633a485e14146101535780635b7eedf814610183575b600080fd5b61011f600480360381019061011a9190611136565b6103aa565b60405161012c919061134b565b60405180910390f35b61013d6105dc565b60405161014a919061130e565b60405180910390f35b61016d600480360381019061016891906110c9565b61066a565b60405161017a919061134b565b60405180910390f35b61019d600480360381019061019891906111db565b6108a0565b6040516101aa91906112f3565b60405180910390f35b6101cd60048036038101906101c891906110c9565b6108df565b6040516101da919061130e565b60405180910390f35b6101fd60048036038101906101f891906111db565b610a2a565b60405161020d9493929190611388565b60405180910390f35b610230600480360381019061022b91906110f6565b610b12565b005b61024c600480360381019061024791906111db565b610b7f565b60405161025991906112f3565b60405180910390f35b61026a610bbe565b60405161027791906112f3565b60405180910390f35b61029a6004803603810190610295919061117f565b610be2565b005b6102b660048036038101906102b191906110f6565b610d30565b6040516102c391906112f3565b60405180910390f35b6102e660048036038101906102e191906110c9565b610e1a565b6040516102f39190611330565b60405180910390f35b610316600480360381019061031191906110c9565b610e3a565b604051610323919061134b565b60405180910390f35b610346600480360381019061034191906111db565b610eda565b60405161035391906112f3565b60405180910390f35b610364610f29565b604051610371919061136d565b60405180910390f35b610394600480360381019061038f91906110c9565b610f36565b6040516103a1919061136d565b60405180910390f35b6060600460003373ffffffffffffffffffffffffffffffffffffffff1673ffffffffffffffffffffffffffffffffffffffff16815260200190815260200160002060009054906101000a900460ff1661059e57600160058054905061040f919061147f565b600260003373ffffffffffffffffffffffffffffffffffffffff1673ffffffffffffffffffffffffffffffffffffffff168152602001908152602001600020819055506005339080600181540180825580915050600190039060005260206000200160009091909190916101000a81548173ffffffffffffffffffffffffffffffffffffffff021916908373ffffffffffffffffffffffffffffffffffffffff1602179055506001600460003373ffffffffffffffffffffffffffffffffffffffff1673ffffffffffffffffffffffffffffffffffffffff16815260200190815260200160002060006101000a81548160ff02191690831515021790555081600360003373ffffffffffffffffffffffffffffffffffffffff1673ffffffffffffffffffffffffffffffffffffffff1681526020019081526020016000209080519060200190610560929190610f4e565b506040518060400160405280601e81526020017f436c696d6265722053756363657366756c6c792052656769737465726564000081525090506105d7565b6040518060400160405280601b81526020017f596f752061726520616c7265616479207265676973746572656421000000000081525090505b919050565b6060600580548060200260200160405190810160405280929190818152602001828054801561066057602002820191906000526020600020905b8160009054906101000a900473ffffffffffffffffffffffffffffffffffffffff1673ffffffffffffffffffffffffffffffffffffffff1681526020019060010190808311610616575b5050505050905090565b606060008054906101000a900473ffffffffffffffffffffffffffffffffffffffff1673ffffffffffffffffffffffffffffffffffffffff163373ffffffffffffffffffffffffffffffffffffffff16146106c457600080fd5b600460008373ffffffffffffffffffffffffffffffffffffffff1673ffffffffffffffffffffffffffffffffffffffff16815260200190815260200160002060009054906101000a900460ff16610862576001600580549050610727919061147f565b600260008473ffffffffffffffffffffffffffffffffffffffff1673ffffffffffffffffffffffffffffffffffffffff168152602001908152602001600020819055506005829080600181540180825580915050600190039060005260206000200160009091909190916101000a81548173ffffffffffffffffffffffffffffffffffffffff021916908373ffffffffffffffffffffffffffffffffffffffff1602179055506001600460008473ffffffffffffffffffffffffffffffffffffffff1673ffffffffffffffffffffffffffffffffffffffff16815260200190815260200160002060006101000a81548160ff0219169083151502179055506040518060400160405280601e81526020017f436c696d6265722053756363657366756c6c7920526567697374657265640000815250905061089b565b6040518060400160405280601b81526020017f596f752061726520616c7265616479207265676973746572656421000000000081525090505b919050565b600581815481106108b057600080fd5b906000526020600020016000915054906101000a900473ffffffffffffffffffffffffffffffffffffffff1681565b606060008054906101000a900473ffffffffffffffffffffffffffffffffffffffff1673ffffffffffffffffffffffffffffffffffffffff163373ffffffffffffffffffffffffffffffffffffffff161461093957600080fd5b6001829080600181540180825580915050600190039060005260206000200160009091909190916101000a81548173ffffffffffffffffffffffffffffffffffffffff021916908373ffffffffffffffffffffffffffffffffffffffff1602179055506001805480602002602001604051908101604052809291908181526020018280548015610a1e57602002820191906000526020600020905b8160009054906101000a900473ffffffffffffffffffffffffffffffffffffffff1673ffffffffffffffffffffffffffffffffffffffff16815260200190600101908083116109d4575b50505050509050919050565b60068181548110610a3a57600080fd5b9060005260206000209060040201600091509050806000015490806001018054610a639061155f565b80601f0160208091040260200160405190810160405280929190818152602001828054610a8f9061155f565b8015610adc5780601f10610ab157610100808354040283529160200191610adc565b820191906000526020600020905b815481529060010190602001808311610abf57829003601f168201915b5050505050908060020154908060030160009054906101000a900473ffffffffffffffffffffffffffffffffffffffff16905084565b6001600860008473ffffffffffffffffffffffffffffffffffffffff1673ffffffffffffffffffffffffffffffffffffffff168152602001908152602001600020600083815260200190815260200160002060006101000a81548160ff0219169083151502179055505050565b60018181548110610b8f57600080fd5b906000526020600020016000915054906101000a900473ffffffffffffffffffffffffffffffffffffffff1681565b60008054906101000a900473ffffffffffffffffffffffffffffffffffffffff1681565b60008054906101000a900473ffffffffffffffffffffffffffffffffffffffff1673ffffffffffffffffffffffffffffffffffffffff163373ffffffffffffffffffffffffffffffffffffffff1614610c3a57600080fd5b610c42610fd4565b6001600754610c51919061147f565b816000018181525050828160200181905250818160400181815250506006819080600181540180825580915050600190039060005260206000209060040201600090919091909150600082015181600001556020820151816001019080519060200190610cbf929190610f4e565b506040820151816002015560608201518160030160006101000a81548173ffffffffffffffffffffffffffffffffffffffff021916908373ffffffffffffffffffffffffffffffffffffffff160217905550505060076000815480929190610d26906115c2565b9190505550505050565b600080600090505b6007548111610dcb578260068281548110610d5657610d55611669565b5b9060005260206000209060040201600001541415610db8578373ffffffffffffffffffffffffffffffffffffffff1660068281548110610d9957610d98611669565b5b906000526020600020906004020160030160009054906101000a905050505b8080610dc3906115c2565b915050610d38565b5060068281548110610de057610ddf611669565b5b906000526020600020906004020160030160009054906101000a900473ffffffffffffffffffffffffffffffffffffffff16905092915050565b60046020528060005260406000206000915054906101000a900460ff1681565b60036020528060005260406000206000915090508054610e599061155f565b80601f0160208091040260200160405190810160405280929190818152602001828054610e859061155f565b8015610ed25780601f10610ea757610100808354040283529160200191610ed2565b820191906000526020600020905b815481529060010190602001808311610eb557829003601f168201915b505050505081565b600060068281548110610ef057610eef611669565b5b906000526020600020906004020160030160009054906101000a900473ffffffffffffffffffffffffffffffffffffffff169050919050565b6000600580549050905090565b60026020528060005260406000206000915090505481565b828054610f5a9061155f565b90600052602060002090601f016020900481019282610f7c5760008555610fc3565b82601f10610f9557805160ff1916838001178555610fc3565b82800160010185558215610fc3579182015b82811115610fc2578251825591602001919060010190610fa7565b5b509050610fd09190611012565b5090565b6040518060800160405280600081526020016060815260200160008152602001600073ffffffffffffffffffffffffffffffffffffffff1681525090565b5b8082111561102b576000816000905550600101611013565b5090565b600061104261103d846113f9565b6113d4565b90508281526020810184848401111561105e5761105d6116cc565b5b61106984828561151d565b509392505050565b600081359050611080816116ec565b92915050565b600082601f83011261109b5761109a6116c7565b5b81356110ab84826020860161102f565b91505092915050565b6000813590506110c381611703565b92915050565b6000602082840312156110df576110de6116d6565b5b60006110ed84828501611071565b91505092915050565b6000806040838503121561110d5761110c6116d6565b5b600061111b85828601611071565b925050602061112c858286016110b4565b9150509250929050565b60006020828403121561114c5761114b6116d6565b5b600082013567ffffffffffffffff81111561116a576111696116d1565b5b61117684828501611086565b91505092915050565b60008060408385031215611196576111956116d6565b5b600083013567ffffffffffffffff8111156111b4576111b36116d1565b5b6111c085828601611086565b92505060206111d1858286016110b4565b9150509250929050565b6000602082840312156111f1576111f06116d6565b5b60006111ff848285016110b4565b91505092915050565b60006112148383611220565b60208301905092915050565b611229816114d5565b82525050565b611238816114d5565b82525050565b60006112498261143a565b611253818561145d565b935061125e8361142a565b8060005b8381101561128f5781516112768882611208565b975061128183611450565b925050600181019050611262565b5085935050505092915050565b6112a5816114e7565b82525050565b60006112b682611445565b6112c0818561146e565b93506112d081856020860161152c565b6112d9816116db565b840191505092915050565b6112ed81611513565b82525050565b6000602082019050611308600083018461122f565b92915050565b60006020820190508181036000830152611328818461123e565b905092915050565b6000602082019050611345600083018461129c565b92915050565b6000602082019050818103600083015261136581846112ab565b905092915050565b600060208201905061138260008301846112e4565b92915050565b600060808201905061139d60008301876112e4565b81810360208301526113af81866112ab565b90506113be60408301856112e4565b6113cb606083018461122f565b95945050505050565b60006113de6113ef565b90506113ea8282611591565b919050565b6000604051905090565b600067ffffffffffffffff82111561141457611413611698565b5b61141d826116db565b9050602081019050919050565b6000819050602082019050919050565b600081519050919050565b600081519050919050565b6000602082019050919050565b600082825260208201905092915050565b600082825260208201905092915050565b600061148a82611513565b915061149583611513565b9250827fffffffffffffffffffffffffffffffffffffffffffffffffffffffffffffffff038211156114ca576114c961160b565b5b828201905092915050565b60006114e0826114f3565b9050919050565b60008115159050919050565b600073ffffffffffffffffffffffffffffffffffffffff82169050919050565b6000819050919050565b82818337600083830152505050565b60005b8381101561154a57808201518184015260208101905061152f565b83811115611559576000848401525b50505050565b6000600282049050600182168061157757607f821691505b6020821081141561158b5761158a61163a565b5b50919050565b61159a826116db565b810181811067ffffffffffffffff821117156115b9576115b8611698565b5b80604052505050565b60006115cd82611513565b91507fffffffffffffffffffffffffffffffffffffffffffffffffffffffffffffffff821415611600576115ff61160b565b5b600182019050919050565b7f4e487b7100000000000000000000000000000000000000000000000000000000600052601160045260246000fd5b7f4e487b7100000000000000000000000000000000000000000000000000000000600052602260045260246000fd5b7f4e487b7100000000000000000000000000000000000000000000000000000000600052603260045260246000fd5b7f4e487b7100000000000000000000000000000000000000000000000000000000600052604160045260246000fd5b600080fd5b600080fd5b600080fd5b600080fd5b6000601f19601f8301169050919050565b6116f5816114d5565b811461170057600080fd5b50565b61170c81611513565b811461171757600080fd5b5056fea26469706673582212205e5503c3da791a91a4449ab7b580446cb60c502cc77bf357a1034cf4968dd79a64736f6c63430008070033",
					"opcodes": "PUSH1 0x80 PUSH1 0x40 MSTORE PUSH1 0x6 DUP1 SLOAD SWAP1 POP PUSH1 0x7 SSTORE CALLVALUE DUP1 ISZERO PUSH3 0x1A JUMPI PUSH1 0x0 DUP1 REVERT JUMPDEST POP CALLER PUSH1 0x0 DUP1 PUSH2 0x100 EXP DUP2 SLOAD DUP2 PUSH20 0xFFFFFFFFFFFFFFFFFFFFFFFFFFFFFFFFFFFFFFFF MUL NOT AND SWAP1 DUP4 PUSH20 0xFFFFFFFFFFFFFFFFFFFFFFFFFFFFFFFFFFFFFFFF AND MUL OR SWAP1 SSTORE POP PUSH1 0x1 PUSH1 0x0 DUP1 SLOAD SWAP1 PUSH2 0x100 EXP SWAP1 DIV PUSH20 0xFFFFFFFFFFFFFFFFFFFFFFFFFFFFFFFFFFFFFFFF AND SWAP1 DUP1 PUSH1 0x1 DUP2 SLOAD ADD DUP1 DUP3 SSTORE DUP1 SWAP2 POP POP PUSH1 0x1 SWAP1 SUB SWAP1 PUSH1 0x0 MSTORE PUSH1 0x20 PUSH1 0x0 KECCAK256 ADD PUSH1 0x0 SWAP1 SWAP2 SWAP1 SWAP2 SWAP1 SWAP2 PUSH2 0x100 EXP DUP2 SLOAD DUP2 PUSH20 0xFFFFFFFFFFFFFFFFFFFFFFFFFFFFFFFFFFFFFFFF MUL NOT AND SWAP1 DUP4 PUSH20 0xFFFFFFFFFFFFFFFFFFFFFFFFFFFFFFFFFFFFFFFF AND MUL OR SWAP1 SSTORE POP PUSH3 0x10F PUSH1 0x0 DUP1 SLOAD SWAP1 PUSH2 0x100 EXP SWAP1 DIV PUSH20 0xFFFFFFFFFFFFFFFFFFFFFFFFFFFFFFFFFFFFFFFF AND PUSH3 0x116 PUSH1 0x20 SHL PUSH1 0x20 SHR JUMP JUMPDEST POP PUSH3 0x3E7 JUMP JUMPDEST PUSH1 0x60 PUSH1 0x0 DUP1 SLOAD SWAP1 PUSH2 0x100 EXP SWAP1 DIV PUSH20 0xFFFFFFFFFFFFFFFFFFFFFFFFFFFFFFFFFFFFFFFF AND PUSH20 0xFFFFFFFFFFFFFFFFFFFFFFFFFFFFFFFFFFFFFFFF AND CALLER PUSH20 0xFFFFFFFFFFFFFFFFFFFFFFFFFFFFFFFFFFFFFFFF AND EQ PUSH3 0x171 JUMPI PUSH1 0x0 DUP1 REVERT JUMPDEST PUSH1 0x4 PUSH1 0x0 DUP4 PUSH20 0xFFFFFFFFFFFFFFFFFFFFFFFFFFFFFFFFFFFFFFFF AND PUSH20 0xFFFFFFFFFFFFFFFFFFFFFFFFFFFFFFFFFFFFFFFF AND DUP2 MSTORE PUSH1 0x20 ADD SWAP1 DUP2 MSTORE PUSH1 0x20 ADD PUSH1 0x0 KECCAK256 PUSH1 0x0 SWAP1 SLOAD SWAP1 PUSH2 0x100 EXP SWAP1 DIV PUSH1 0xFF AND PUSH3 0x313 JUMPI PUSH1 0x1 PUSH1 0x5 DUP1 SLOAD SWAP1 POP PUSH3 0x1D7 SWAP2 SWAP1 PUSH3 0x351 JUMP JUMPDEST PUSH1 0x2 PUSH1 0x0 DUP5 PUSH20 0xFFFFFFFFFFFFFFFFFFFFFFFFFFFFFFFFFFFFFFFF AND PUSH20 0xFFFFFFFFFFFFFFFFFFFFFFFFFFFFFFFFFFFFFFFF AND DUP2 MSTORE PUSH1 0x20 ADD SWAP1 DUP2 MSTORE PUSH1 0x20 ADD PUSH1 0x0 KECCAK256 DUP2 SWAP1 SSTORE POP PUSH1 0x5 DUP3 SWAP1 DUP1 PUSH1 0x1 DUP2 SLOAD ADD DUP1 DUP3 SSTORE DUP1 SWAP2 POP POP PUSH1 0x1 SWAP1 SUB SWAP1 PUSH1 0x0 MSTORE PUSH1 0x20 PUSH1 0x0 KECCAK256 ADD PUSH1 0x0 SWAP1 SWAP2 SWAP1 SWAP2 SWAP1 SWAP2 PUSH2 0x100 EXP DUP2 SLOAD DUP2 PUSH20 0xFFFFFFFFFFFFFFFFFFFFFFFFFFFFFFFFFFFFFFFF MUL NOT AND SWAP1 DUP4 PUSH20 0xFFFFFFFFFFFFFFFFFFFFFFFFFFFFFFFFFFFFFFFF AND MUL OR SWAP1 SSTORE POP PUSH1 0x1 PUSH1 0x4 PUSH1 0x0 DUP5 PUSH20 0xFFFFFFFFFFFFFFFFFFFFFFFFFFFFFFFFFFFFFFFF AND PUSH20 0xFFFFFFFFFFFFFFFFFFFFFFFFFFFFFFFFFFFFFFFF AND DUP2 MSTORE PUSH1 0x20 ADD SWAP1 DUP2 MSTORE PUSH1 0x20 ADD PUSH1 0x0 KECCAK256 PUSH1 0x0 PUSH2 0x100 EXP DUP2 SLOAD DUP2 PUSH1 0xFF MUL NOT AND SWAP1 DUP4 ISZERO ISZERO MUL OR SWAP1 SSTORE POP PUSH1 0x40 MLOAD DUP1 PUSH1 0x40 ADD PUSH1 0x40 MSTORE DUP1 PUSH1 0x1E DUP2 MSTORE PUSH1 0x20 ADD PUSH32 0x436C696D6265722053756363657366756C6C7920526567697374657265640000 DUP2 MSTORE POP SWAP1 POP PUSH3 0x34C JUMP JUMPDEST PUSH1 0x40 MLOAD DUP1 PUSH1 0x40 ADD PUSH1 0x40 MSTORE DUP1 PUSH1 0x1B DUP2 MSTORE PUSH1 0x20 ADD PUSH32 0x596F752061726520616C72656164792072656769737465726564210000000000 DUP2 MSTORE POP SWAP1 POP JUMPDEST SWAP2 SWAP1 POP JUMP JUMPDEST PUSH1 0x0 PUSH3 0x35E DUP3 PUSH3 0x3AE JUMP JUMPDEST SWAP2 POP PUSH3 0x36B DUP4 PUSH3 0x3AE JUMP JUMPDEST SWAP3 POP DUP3 PUSH32 0xFFFFFFFFFFFFFFFFFFFFFFFFFFFFFFFFFFFFFFFFFFFFFFFFFFFFFFFFFFFFFFFF SUB DUP3 GT ISZERO PUSH3 0x3A3 JUMPI PUSH3 0x3A2 PUSH3 0x3B8 JUMP JUMPDEST JUMPDEST DUP3 DUP3 ADD SWAP1 POP SWAP3 SWAP2 POP POP JUMP JUMPDEST PUSH1 0x0 DUP2 SWAP1 POP SWAP2 SWAP1 POP JUMP JUMPDEST PUSH32 0x4E487B7100000000000000000000000000000000000000000000000000000000 PUSH1 0x0 MSTORE PUSH1 0x11 PUSH1 0x4 MSTORE PUSH1 0x24 PUSH1 0x0 REVERT JUMPDEST PUSH2 0x1750 DUP1 PUSH3 0x3F7 PUSH1 0x0 CODECOPY PUSH1 0x0 RETURN INVALID PUSH1 0x80 PUSH1 0x40 MSTORE CALLVALUE DUP1 ISZERO PUSH2 0x10 JUMPI PUSH1 0x0 DUP1 REVERT JUMPDEST POP PUSH1 0x4 CALLDATASIZE LT PUSH2 0x100 JUMPI PUSH1 0x0 CALLDATALOAD PUSH1 0xE0 SHR DUP1 PUSH4 0x8DA5CB5B GT PUSH2 0x97 JUMPI DUP1 PUSH4 0xAC9CF38C GT PUSH2 0x66 JUMPI DUP1 PUSH4 0xAC9CF38C EQ PUSH2 0x2FC JUMPI DUP1 PUSH4 0xB9F22DFA EQ PUSH2 0x32C JUMPI DUP1 PUSH4 0xBFF1F9E1 EQ PUSH2 0x35C JUMPI DUP1 PUSH4 0xD0F759CF EQ PUSH2 0x37A JUMPI PUSH2 0x100 JUMP JUMPDEST DUP1 PUSH4 0x8DA5CB5B EQ PUSH2 0x262 JUMPI DUP1 PUSH4 0x9B3AD968 EQ PUSH2 0x280 JUMPI DUP1 PUSH4 0xA052E52E EQ PUSH2 0x29C JUMPI DUP1 PUSH4 0xA230C524 EQ PUSH2 0x2CC JUMPI PUSH2 0x100 JUMP JUMPDEST DUP1 PUSH4 0x6B44EFD3 GT PUSH2 0xD3 JUMPI DUP1 PUSH4 0x6B44EFD3 EQ PUSH2 0x1B3 JUMPI DUP1 PUSH4 0x726F16D8 EQ PUSH2 0x1E3 JUMPI DUP1 PUSH4 0x74ED6B50 EQ PUSH2 0x216 JUMPI DUP1 PUSH4 0x8C8A6927 EQ PUSH2 0x232 JUMPI PUSH2 0x100 JUMP JUMPDEST DUP1 PUSH4 0xF337BA7 EQ PUSH2 0x105 JUMPI DUP1 PUSH4 0x19DDD85D EQ PUSH2 0x135 JUMPI DUP1 PUSH4 0x3A485E14 EQ PUSH2 0x153 JUMPI DUP1 PUSH4 0x5B7EEDF8 EQ PUSH2 0x183 JUMPI JUMPDEST PUSH1 0x0 DUP1 REVERT JUMPDEST PUSH2 0x11F PUSH1 0x4 DUP1 CALLDATASIZE SUB DUP2 ADD SWAP1 PUSH2 0x11A SWAP2 SWAP1 PUSH2 0x1136 JUMP JUMPDEST PUSH2 0x3AA JUMP JUMPDEST PUSH1 0x40 MLOAD PUSH2 0x12C SWAP2 SWAP1 PUSH2 0x134B JUMP JUMPDEST PUSH1 0x40 MLOAD DUP1 SWAP2 SUB SWAP1 RETURN JUMPDEST PUSH2 0x13D PUSH2 0x5DC JUMP JUMPDEST PUSH1 0x40 MLOAD PUSH2 0x14A SWAP2 SWAP1 PUSH2 0x130E JUMP JUMPDEST PUSH1 0x40 MLOAD DUP1 SWAP2 SUB SWAP1 RETURN JUMPDEST PUSH2 0x16D PUSH1 0x4 DUP1 CALLDATASIZE SUB DUP2 ADD SWAP1 PUSH2 0x168 SWAP2 SWAP1 PUSH2 0x10C9 JUMP JUMPDEST PUSH2 0x66A JUMP JUMPDEST PUSH1 0x40 MLOAD PUSH2 0x17A SWAP2 SWAP1 PUSH2 0x134B JUMP JUMPDEST PUSH1 0x40 MLOAD DUP1 SWAP2 SUB SWAP1 RETURN JUMPDEST PUSH2 0x19D PUSH1 0x4 DUP1 CALLDATASIZE SUB DUP2 ADD SWAP1 PUSH2 0x198 SWAP2 SWAP1 PUSH2 0x11DB JUMP JUMPDEST PUSH2 0x8A0 JUMP JUMPDEST PUSH1 0x40 MLOAD PUSH2 0x1AA SWAP2 SWAP1 PUSH2 0x12F3 JUMP JUMPDEST PUSH1 0x40 MLOAD DUP1 SWAP2 SUB SWAP1 RETURN JUMPDEST PUSH2 0x1CD PUSH1 0x4 DUP1 CALLDATASIZE SUB DUP2 ADD SWAP1 PUSH2 0x1C8 SWAP2 SWAP1 PUSH2 0x10C9 JUMP JUMPDEST PUSH2 0x8DF JUMP JUMPDEST PUSH1 0x40 MLOAD PUSH2 0x1DA SWAP2 SWAP1 PUSH2 0x130E JUMP JUMPDEST PUSH1 0x40 MLOAD DUP1 SWAP2 SUB SWAP1 RETURN JUMPDEST PUSH2 0x1FD PUSH1 0x4 DUP1 CALLDATASIZE SUB DUP2 ADD SWAP1 PUSH2 0x1F8 SWAP2 SWAP1 PUSH2 0x11DB JUMP JUMPDEST PUSH2 0xA2A JUMP JUMPDEST PUSH1 0x40 MLOAD PUSH2 0x20D SWAP5 SWAP4 SWAP3 SWAP2 SWAP1 PUSH2 0x1388 JUMP JUMPDEST PUSH1 0x40 MLOAD DUP1 SWAP2 SUB SWAP1 RETURN JUMPDEST PUSH2 0x230 PUSH1 0x4 DUP1 CALLDATASIZE SUB DUP2 ADD SWAP1 PUSH2 0x22B SWAP2 SWAP1 PUSH2 0x10F6 JUMP JUMPDEST PUSH2 0xB12 JUMP JUMPDEST STOP JUMPDEST PUSH2 0x24C PUSH1 0x4 DUP1 CALLDATASIZE SUB DUP2 ADD SWAP1 PUSH2 0x247 SWAP2 SWAP1 PUSH2 0x11DB JUMP JUMPDEST PUSH2 0xB7F JUMP JUMPDEST PUSH1 0x40 MLOAD PUSH2 0x259 SWAP2 SWAP1 PUSH2 0x12F3 JUMP JUMPDEST PUSH1 0x40 MLOAD DUP1 SWAP2 SUB SWAP1 RETURN JUMPDEST PUSH2 0x26A PUSH2 0xBBE JUMP JUMPDEST PUSH1 0x40 MLOAD PUSH2 0x277 SWAP2 SWAP1 PUSH2 0x12F3 JUMP JUMPDEST PUSH1 0x40 MLOAD DUP1 SWAP2 SUB SWAP1 RETURN JUMPDEST PUSH2 0x29A PUSH1 0x4 DUP1 CALLDATASIZE SUB DUP2 ADD SWAP1 PUSH2 0x295 SWAP2 SWAP1 PUSH2 0x117F JUMP JUMPDEST PUSH2 0xBE2 JUMP JUMPDEST STOP JUMPDEST PUSH2 0x2B6 PUSH1 0x4 DUP1 CALLDATASIZE SUB DUP2 ADD SWAP1 PUSH2 0x2B1 SWAP2 SWAP1 PUSH2 0x10F6 JUMP JUMPDEST PUSH2 0xD30 JUMP JUMPDEST PUSH1 0x40 MLOAD PUSH2 0x2C3 SWAP2 SWAP1 PUSH2 0x12F3 JUMP JUMPDEST PUSH1 0x40 MLOAD DUP1 SWAP2 SUB SWAP1 RETURN JUMPDEST PUSH2 0x2E6 PUSH1 0x4 DUP1 CALLDATASIZE SUB DUP2 ADD SWAP1 PUSH2 0x2E1 SWAP2 SWAP1 PUSH2 0x10C9 JUMP JUMPDEST PUSH2 0xE1A JUMP JUMPDEST PUSH1 0x40 MLOAD PUSH2 0x2F3 SWAP2 SWAP1 PUSH2 0x1330 JUMP JUMPDEST PUSH1 0x40 MLOAD DUP1 SWAP2 SUB SWAP1 RETURN JUMPDEST PUSH2 0x316 PUSH1 0x4 DUP1 CALLDATASIZE SUB DUP2 ADD SWAP1 PUSH2 0x311 SWAP2 SWAP1 PUSH2 0x10C9 JUMP JUMPDEST PUSH2 0xE3A JUMP JUMPDEST PUSH1 0x40 MLOAD PUSH2 0x323 SWAP2 SWAP1 PUSH2 0x134B JUMP JUMPDEST PUSH1 0x40 MLOAD DUP1 SWAP2 SUB SWAP1 RETURN JUMPDEST PUSH2 0x346 PUSH1 0x4 DUP1 CALLDATASIZE SUB DUP2 ADD SWAP1 PUSH2 0x341 SWAP2 SWAP1 PUSH2 0x11DB JUMP JUMPDEST PUSH2 0xEDA JUMP JUMPDEST PUSH1 0x40 MLOAD PUSH2 0x353 SWAP2 SWAP1 PUSH2 0x12F3 JUMP JUMPDEST PUSH1 0x40 MLOAD DUP1 SWAP2 SUB SWAP1 RETURN JUMPDEST PUSH2 0x364 PUSH2 0xF29 JUMP JUMPDEST PUSH1 0x40 MLOAD PUSH2 0x371 SWAP2 SWAP1 PUSH2 0x136D JUMP JUMPDEST PUSH1 0x40 MLOAD DUP1 SWAP2 SUB SWAP1 RETURN JUMPDEST PUSH2 0x394 PUSH1 0x4 DUP1 CALLDATASIZE SUB DUP2 ADD SWAP1 PUSH2 0x38F SWAP2 SWAP1 PUSH2 0x10C9 JUMP JUMPDEST PUSH2 0xF36 JUMP JUMPDEST PUSH1 0x40 MLOAD PUSH2 0x3A1 SWAP2 SWAP1 PUSH2 0x136D JUMP JUMPDEST PUSH1 0x40 MLOAD DUP1 SWAP2 SUB SWAP1 RETURN JUMPDEST PUSH1 0x60 PUSH1 0x4 PUSH1 0x0 CALLER PUSH20 0xFFFFFFFFFFFFFFFFFFFFFFFFFFFFFFFFFFFFFFFF AND PUSH20 0xFFFFFFFFFFFFFFFFFFFFFFFFFFFFFFFFFFFFFFFF AND DUP2 MSTORE PUSH1 0x20 ADD SWAP1 DUP2 MSTORE PUSH1 0x20 ADD PUSH1 0x0 KECCAK256 PUSH1 0x0 SWAP1 SLOAD SWAP1 PUSH2 0x100 EXP SWAP1 DIV PUSH1 0xFF AND PUSH2 0x59E JUMPI PUSH1 0x1 PUSH1 0x5 DUP1 SLOAD SWAP1 POP PUSH2 0x40F SWAP2 SWAP1 PUSH2 0x147F JUMP JUMPDEST PUSH1 0x2 PUSH1 0x0 CALLER PUSH20 0xFFFFFFFFFFFFFFFFFFFFFFFFFFFFFFFFFFFFFFFF AND PUSH20 0xFFFFFFFFFFFFFFFFFFFFFFFFFFFFFFFFFFFFFFFF AND DUP2 MSTORE PUSH1 0x20 ADD SWAP1 DUP2 MSTORE PUSH1 0x20 ADD PUSH1 0x0 KECCAK256 DUP2 SWAP1 SSTORE POP PUSH1 0x5 CALLER SWAP1 DUP1 PUSH1 0x1 DUP2 SLOAD ADD DUP1 DUP3 SSTORE DUP1 SWAP2 POP POP PUSH1 0x1 SWAP1 SUB SWAP1 PUSH1 0x0 MSTORE PUSH1 0x20 PUSH1 0x0 KECCAK256 ADD PUSH1 0x0 SWAP1 SWAP2 SWAP1 SWAP2 SWAP1 SWAP2 PUSH2 0x100 EXP DUP2 SLOAD DUP2 PUSH20 0xFFFFFFFFFFFFFFFFFFFFFFFFFFFFFFFFFFFFFFFF MUL NOT AND SWAP1 DUP4 PUSH20 0xFFFFFFFFFFFFFFFFFFFFFFFFFFFFFFFFFFFFFFFF AND MUL OR SWAP1 SSTORE POP PUSH1 0x1 PUSH1 0x4 PUSH1 0x0 CALLER PUSH20 0xFFFFFFFFFFFFFFFFFFFFFFFFFFFFFFFFFFFFFFFF AND PUSH20 0xFFFFFFFFFFFFFFFFFFFFFFFFFFFFFFFFFFFFFFFF AND DUP2 MSTORE PUSH1 0x20 ADD SWAP1 DUP2 MSTORE PUSH1 0x20 ADD PUSH1 0x0 KECCAK256 PUSH1 0x0 PUSH2 0x100 EXP DUP2 SLOAD DUP2 PUSH1 0xFF MUL NOT AND SWAP1 DUP4 ISZERO ISZERO MUL OR SWAP1 SSTORE POP DUP2 PUSH1 0x3 PUSH1 0x0 CALLER PUSH20 0xFFFFFFFFFFFFFFFFFFFFFFFFFFFFFFFFFFFFFFFF AND PUSH20 0xFFFFFFFFFFFFFFFFFFFFFFFFFFFFFFFFFFFFFFFF AND DUP2 MSTORE PUSH1 0x20 ADD SWAP1 DUP2 MSTORE PUSH1 0x20 ADD PUSH1 0x0 KECCAK256 SWAP1 DUP1 MLOAD SWAP1 PUSH1 0x20 ADD SWAP1 PUSH2 0x560 SWAP3 SWAP2 SWAP1 PUSH2 0xF4E JUMP JUMPDEST POP PUSH1 0x40 MLOAD DUP1 PUSH1 0x40 ADD PUSH1 0x40 MSTORE DUP1 PUSH1 0x1E DUP2 MSTORE PUSH1 0x20 ADD PUSH32 0x436C696D6265722053756363657366756C6C7920526567697374657265640000 DUP2 MSTORE POP SWAP1 POP PUSH2 0x5D7 JUMP JUMPDEST PUSH1 0x40 MLOAD DUP1 PUSH1 0x40 ADD PUSH1 0x40 MSTORE DUP1 PUSH1 0x1B DUP2 MSTORE PUSH1 0x20 ADD PUSH32 0x596F752061726520616C72656164792072656769737465726564210000000000 DUP2 MSTORE POP SWAP1 POP JUMPDEST SWAP2 SWAP1 POP JUMP JUMPDEST PUSH1 0x60 PUSH1 0x5 DUP1 SLOAD DUP1 PUSH1 0x20 MUL PUSH1 0x20 ADD PUSH1 0x40 MLOAD SWAP1 DUP2 ADD PUSH1 0x40 MSTORE DUP1 SWAP3 SWAP2 SWAP1 DUP2 DUP2 MSTORE PUSH1 0x20 ADD DUP3 DUP1 SLOAD DUP1 ISZERO PUSH2 0x660 JUMPI PUSH1 0x20 MUL DUP3 ADD SWAP2 SWAP1 PUSH1 0x0 MSTORE PUSH1 0x20 PUSH1 0x0 KECCAK256 SWAP1 JUMPDEST DUP2 PUSH1 0x0 SWAP1 SLOAD SWAP1 PUSH2 0x100 EXP SWAP1 DIV PUSH20 0xFFFFFFFFFFFFFFFFFFFFFFFFFFFFFFFFFFFFFFFF AND PUSH20 0xFFFFFFFFFFFFFFFFFFFFFFFFFFFFFFFFFFFFFFFF AND DUP2 MSTORE PUSH1 0x20 ADD SWAP1 PUSH1 0x1 ADD SWAP1 DUP1 DUP4 GT PUSH2 0x616 JUMPI JUMPDEST POP POP POP POP POP SWAP1 POP SWAP1 JUMP JUMPDEST PUSH1 0x60 PUSH1 0x0 DUP1 SLOAD SWAP1 PUSH2 0x100 EXP SWAP1 DIV PUSH20 0xFFFFFFFFFFFFFFFFFFFFFFFFFFFFFFFFFFFFFFFF AND PUSH20 0xFFFFFFFFFFFFFFFFFFFFFFFFFFFFFFFFFFFFFFFF AND CALLER PUSH20 0xFFFFFFFFFFFFFFFFFFFFFFFFFFFFFFFFFFFFFFFF AND EQ PUSH2 0x6C4 JUMPI PUSH1 0x0 DUP1 REVERT JUMPDEST PUSH1 0x4 PUSH1 0x0 DUP4 PUSH20 0xFFFFFFFFFFFFFFFFFFFFFFFFFFFFFFFFFFFFFFFF AND PUSH20 0xFFFFFFFFFFFFFFFFFFFFFFFFFFFFFFFFFFFFFFFF AND DUP2 MSTORE PUSH1 0x20 ADD SWAP1 DUP2 MSTORE PUSH1 0x20 ADD PUSH1 0x0 KECCAK256 PUSH1 0x0 SWAP1 SLOAD SWAP1 PUSH2 0x100 EXP SWAP1 DIV PUSH1 0xFF AND PUSH2 0x862 JUMPI PUSH1 0x1 PUSH1 0x5 DUP1 SLOAD SWAP1 POP PUSH2 0x727 SWAP2 SWAP1 PUSH2 0x147F JUMP JUMPDEST PUSH1 0x2 PUSH1 0x0 DUP5 PUSH20 0xFFFFFFFFFFFFFFFFFFFFFFFFFFFFFFFFFFFFFFFF AND PUSH20 0xFFFFFFFFFFFFFFFFFFFFFFFFFFFFFFFFFFFFFFFF AND DUP2 MSTORE PUSH1 0x20 ADD SWAP1 DUP2 MSTORE PUSH1 0x20 ADD PUSH1 0x0 KECCAK256 DUP2 SWAP1 SSTORE POP PUSH1 0x5 DUP3 SWAP1 DUP1 PUSH1 0x1 DUP2 SLOAD ADD DUP1 DUP3 SSTORE DUP1 SWAP2 POP POP PUSH1 0x1 SWAP1 SUB SWAP1 PUSH1 0x0 MSTORE PUSH1 0x20 PUSH1 0x0 KECCAK256 ADD PUSH1 0x0 SWAP1 SWAP2 SWAP1 SWAP2 SWAP1 SWAP2 PUSH2 0x100 EXP DUP2 SLOAD DUP2 PUSH20 0xFFFFFFFFFFFFFFFFFFFFFFFFFFFFFFFFFFFFFFFF MUL NOT AND SWAP1 DUP4 PUSH20 0xFFFFFFFFFFFFFFFFFFFFFFFFFFFFFFFFFFFFFFFF AND MUL OR SWAP1 SSTORE POP PUSH1 0x1 PUSH1 0x4 PUSH1 0x0 DUP5 PUSH20 0xFFFFFFFFFFFFFFFFFFFFFFFFFFFFFFFFFFFFFFFF AND PUSH20 0xFFFFFFFFFFFFFFFFFFFFFFFFFFFFFFFFFFFFFFFF AND DUP2 MSTORE PUSH1 0x20 ADD SWAP1 DUP2 MSTORE PUSH1 0x20 ADD PUSH1 0x0 KECCAK256 PUSH1 0x0 PUSH2 0x100 EXP DUP2 SLOAD DUP2 PUSH1 0xFF MUL NOT AND SWAP1 DUP4 ISZERO ISZERO MUL OR SWAP1 SSTORE POP PUSH1 0x40 MLOAD DUP1 PUSH1 0x40 ADD PUSH1 0x40 MSTORE DUP1 PUSH1 0x1E DUP2 MSTORE PUSH1 0x20 ADD PUSH32 0x436C696D6265722053756363657366756C6C7920526567697374657265640000 DUP2 MSTORE POP SWAP1 POP PUSH2 0x89B JUMP JUMPDEST PUSH1 0x40 MLOAD DUP1 PUSH1 0x40 ADD PUSH1 0x40 MSTORE DUP1 PUSH1 0x1B DUP2 MSTORE PUSH1 0x20 ADD PUSH32 0x596F752061726520616C72656164792072656769737465726564210000000000 DUP2 MSTORE POP SWAP1 POP JUMPDEST SWAP2 SWAP1 POP JUMP JUMPDEST PUSH1 0x5 DUP2 DUP2 SLOAD DUP2 LT PUSH2 0x8B0 JUMPI PUSH1 0x0 DUP1 REVERT JUMPDEST SWAP1 PUSH1 0x0 MSTORE PUSH1 0x20 PUSH1 0x0 KECCAK256 ADD PUSH1 0x0 SWAP2 POP SLOAD SWAP1 PUSH2 0x100 EXP SWAP1 DIV PUSH20 0xFFFFFFFFFFFFFFFFFFFFFFFFFFFFFFFFFFFFFFFF AND DUP2 JUMP JUMPDEST PUSH1 0x60 PUSH1 0x0 DUP1 SLOAD SWAP1 PUSH2 0x100 EXP SWAP1 DIV PUSH20 0xFFFFFFFFFFFFFFFFFFFFFFFFFFFFFFFFFFFFFFFF AND PUSH20 0xFFFFFFFFFFFFFFFFFFFFFFFFFFFFFFFFFFFFFFFF AND CALLER PUSH20 0xFFFFFFFFFFFFFFFFFFFFFFFFFFFFFFFFFFFFFFFF AND EQ PUSH2 0x939 JUMPI PUSH1 0x0 DUP1 REVERT JUMPDEST PUSH1 0x1 DUP3 SWAP1 DUP1 PUSH1 0x1 DUP2 SLOAD ADD DUP1 DUP3 SSTORE DUP1 SWAP2 POP POP PUSH1 0x1 SWAP1 SUB SWAP1 PUSH1 0x0 MSTORE PUSH1 0x20 PUSH1 0x0 KECCAK256 ADD PUSH1 0x0 SWAP1 SWAP2 SWAP1 SWAP2 SWAP1 SWAP2 PUSH2 0x100 EXP DUP2 SLOAD DUP2 PUSH20 0xFFFFFFFFFFFFFFFFFFFFFFFFFFFFFFFFFFFFFFFF MUL NOT AND SWAP1 DUP4 PUSH20 0xFFFFFFFFFFFFFFFFFFFFFFFFFFFFFFFFFFFFFFFF AND MUL OR SWAP1 SSTORE POP PUSH1 0x1 DUP1 SLOAD DUP1 PUSH1 0x20 MUL PUSH1 0x20 ADD PUSH1 0x40 MLOAD SWAP1 DUP2 ADD PUSH1 0x40 MSTORE DUP1 SWAP3 SWAP2 SWAP1 DUP2 DUP2 MSTORE PUSH1 0x20 ADD DUP3 DUP1 SLOAD DUP1 ISZERO PUSH2 0xA1E JUMPI PUSH1 0x20 MUL DUP3 ADD SWAP2 SWAP1 PUSH1 0x0 MSTORE PUSH1 0x20 PUSH1 0x0 KECCAK256 SWAP1 JUMPDEST DUP2 PUSH1 0x0 SWAP1 SLOAD SWAP1 PUSH2 0x100 EXP SWAP1 DIV PUSH20 0xFFFFFFFFFFFFFFFFFFFFFFFFFFFFFFFFFFFFFFFF AND PUSH20 0xFFFFFFFFFFFFFFFFFFFFFFFFFFFFFFFFFFFFFFFF AND DUP2 MSTORE PUSH1 0x20 ADD SWAP1 PUSH1 0x1 ADD SWAP1 DUP1 DUP4 GT PUSH2 0x9D4 JUMPI JUMPDEST POP POP POP POP POP SWAP1 POP SWAP2 SWAP1 POP JUMP JUMPDEST PUSH1 0x6 DUP2 DUP2 SLOAD DUP2 LT PUSH2 0xA3A JUMPI PUSH1 0x0 DUP1 REVERT JUMPDEST SWAP1 PUSH1 0x0 MSTORE PUSH1 0x20 PUSH1 0x0 KECCAK256 SWAP1 PUSH1 0x4 MUL ADD PUSH1 0x0 SWAP2 POP SWAP1 POP DUP1 PUSH1 0x0 ADD SLOAD SWAP1 DUP1 PUSH1 0x1 ADD DUP1 SLOAD PUSH2 0xA63 SWAP1 PUSH2 0x155F JUMP JUMPDEST DUP1 PUSH1 0x1F ADD PUSH1 0x20 DUP1 SWAP2 DIV MUL PUSH1 0x20 ADD PUSH1 0x40 MLOAD SWAP1 DUP2 ADD PUSH1 0x40 MSTORE DUP1 SWAP3 SWAP2 SWAP1 DUP2 DUP2 MSTORE PUSH1 0x20 ADD DUP3 DUP1 SLOAD PUSH2 0xA8F SWAP1 PUSH2 0x155F JUMP JUMPDEST DUP1 ISZERO PUSH2 0xADC JUMPI DUP1 PUSH1 0x1F LT PUSH2 0xAB1 JUMPI PUSH2 0x100 DUP1 DUP4 SLOAD DIV MUL DUP4 MSTORE SWAP2 PUSH1 0x20 ADD SWAP2 PUSH2 0xADC JUMP JUMPDEST DUP3 ADD SWAP2 SWAP1 PUSH1 0x0 MSTORE PUSH1 0x20 PUSH1 0x0 KECCAK256 SWAP1 JUMPDEST DUP2 SLOAD DUP2 MSTORE SWAP1 PUSH1 0x1 ADD SWAP1 PUSH1 0x20 ADD DUP1 DUP4 GT PUSH2 0xABF JUMPI DUP3 SWAP1 SUB PUSH1 0x1F AND DUP3 ADD SWAP2 JUMPDEST POP POP POP POP POP SWAP1 DUP1 PUSH1 0x2 ADD SLOAD SWAP1 DUP1 PUSH1 0x3 ADD PUSH1 0x0 SWAP1 SLOAD SWAP1 PUSH2 0x100 EXP SWAP1 DIV PUSH20 0xFFFFFFFFFFFFFFFFFFFFFFFFFFFFFFFFFFFFFFFF AND SWAP1 POP DUP5 JUMP JUMPDEST PUSH1 0x1 PUSH1 0x8 PUSH1 0x0 DUP5 PUSH20 0xFFFFFFFFFFFFFFFFFFFFFFFFFFFFFFFFFFFFFFFF AND PUSH20 0xFFFFFFFFFFFFFFFFFFFFFFFFFFFFFFFFFFFFFFFF AND DUP2 MSTORE PUSH1 0x20 ADD SWAP1 DUP2 MSTORE PUSH1 0x20 ADD PUSH1 0x0 KECCAK256 PUSH1 0x0 DUP4 DUP2 MSTORE PUSH1 0x20 ADD SWAP1 DUP2 MSTORE PUSH1 0x20 ADD PUSH1 0x0 KECCAK256 PUSH1 0x0 PUSH2 0x100 EXP DUP2 SLOAD DUP2 PUSH1 0xFF MUL NOT AND SWAP1 DUP4 ISZERO ISZERO MUL OR SWAP1 SSTORE POP POP POP JUMP JUMPDEST PUSH1 0x1 DUP2 DUP2 SLOAD DUP2 LT PUSH2 0xB8F JUMPI PUSH1 0x0 DUP1 REVERT JUMPDEST SWAP1 PUSH1 0x0 MSTORE PUSH1 0x20 PUSH1 0x0 KECCAK256 ADD PUSH1 0x0 SWAP2 POP SLOAD SWAP1 PUSH2 0x100 EXP SWAP1 DIV PUSH20 0xFFFFFFFFFFFFFFFFFFFFFFFFFFFFFFFFFFFFFFFF AND DUP2 JUMP JUMPDEST PUSH1 0x0 DUP1 SLOAD SWAP1 PUSH2 0x100 EXP SWAP1 DIV PUSH20 0xFFFFFFFFFFFFFFFFFFFFFFFFFFFFFFFFFFFFFFFF AND DUP2 JUMP JUMPDEST PUSH1 0x0 DUP1 SLOAD SWAP1 PUSH2 0x100 EXP SWAP1 DIV PUSH20 0xFFFFFFFFFFFFFFFFFFFFFFFFFFFFFFFFFFFFFFFF AND PUSH20 0xFFFFFFFFFFFFFFFFFFFFFFFFFFFFFFFFFFFFFFFF AND CALLER PUSH20 0xFFFFFFFFFFFFFFFFFFFFFFFFFFFFFFFFFFFFFFFF AND EQ PUSH2 0xC3A JUMPI PUSH1 0x0 DUP1 REVERT JUMPDEST PUSH2 0xC42 PUSH2 0xFD4 JUMP JUMPDEST PUSH1 0x1 PUSH1 0x7 SLOAD PUSH2 0xC51 SWAP2 SWAP1 PUSH2 0x147F JUMP JUMPDEST DUP2 PUSH1 0x0 ADD DUP2 DUP2 MSTORE POP POP DUP3 DUP2 PUSH1 0x20 ADD DUP2 SWAP1 MSTORE POP DUP2 DUP2 PUSH1 0x40 ADD DUP2 DUP2 MSTORE POP POP PUSH1 0x6 DUP2 SWAP1 DUP1 PUSH1 0x1 DUP2 SLOAD ADD DUP1 DUP3 SSTORE DUP1 SWAP2 POP POP PUSH1 0x1 SWAP1 SUB SWAP1 PUSH1 0x0 MSTORE PUSH1 0x20 PUSH1 0x0 KECCAK256 SWAP1 PUSH1 0x4 MUL ADD PUSH1 0x0 SWAP1 SWAP2 SWAP1 SWAP2 SWAP1 SWAP2 POP PUSH1 0x0 DUP3 ADD MLOAD DUP2 PUSH1 0x0 ADD SSTORE PUSH1 0x20 DUP3 ADD MLOAD DUP2 PUSH1 0x1 ADD SWAP1 DUP1 MLOAD SWAP1 PUSH1 0x20 ADD SWAP1 PUSH2 0xCBF SWAP3 SWAP2 SWAP1 PUSH2 0xF4E JUMP JUMPDEST POP PUSH1 0x40 DUP3 ADD MLOAD DUP2 PUSH1 0x2 ADD SSTORE PUSH1 0x60 DUP3 ADD MLOAD DUP2 PUSH1 0x3 ADD PUSH1 0x0 PUSH2 0x100 EXP DUP2 SLOAD DUP2 PUSH20 0xFFFFFFFFFFFFFFFFFFFFFFFFFFFFFFFFFFFFFFFF MUL NOT AND SWAP1 DUP4 PUSH20 0xFFFFFFFFFFFFFFFFFFFFFFFFFFFFFFFFFFFFFFFF AND MUL OR SWAP1 SSTORE POP POP POP PUSH1 0x7 PUSH1 0x0 DUP2 SLOAD DUP1 SWAP3 SWAP2 SWAP1 PUSH2 0xD26 SWAP1 PUSH2 0x15C2 JUMP JUMPDEST SWAP2 SWAP1 POP SSTORE POP POP POP POP JUMP JUMPDEST PUSH1 0x0 DUP1 PUSH1 0x0 SWAP1 POP JUMPDEST PUSH1 0x7 SLOAD DUP2 GT PUSH2 0xDCB JUMPI DUP3 PUSH1 0x6 DUP3 DUP2 SLOAD DUP2 LT PUSH2 0xD56 JUMPI PUSH2 0xD55 PUSH2 0x1669 JUMP JUMPDEST JUMPDEST SWAP1 PUSH1 0x0 MSTORE PUSH1 0x20 PUSH1 0x0 KECCAK256 SWAP1 PUSH1 0x4 MUL ADD PUSH1 0x0 ADD SLOAD EQ ISZERO PUSH2 0xDB8 JUMPI DUP4 PUSH20 0xFFFFFFFFFFFFFFFFFFFFFFFFFFFFFFFFFFFFFFFF AND PUSH1 0x6 DUP3 DUP2 SLOAD DUP2 LT PUSH2 0xD99 JUMPI PUSH2 0xD98 PUSH2 0x1669 JUMP JUMPDEST JUMPDEST SWAP1 PUSH1 0x0 MSTORE PUSH1 0x20 PUSH1 0x0 KECCAK256 SWAP1 PUSH1 0x4 MUL ADD PUSH1 0x3 ADD PUSH1 0x0 SWAP1 SLOAD SWAP1 PUSH2 0x100 EXP SWAP1 POP POP POP JUMPDEST DUP1 DUP1 PUSH2 0xDC3 SWAP1 PUSH2 0x15C2 JUMP JUMPDEST SWAP2 POP POP PUSH2 0xD38 JUMP JUMPDEST POP PUSH1 0x6 DUP3 DUP2 SLOAD DUP2 LT PUSH2 0xDE0 JUMPI PUSH2 0xDDF PUSH2 0x1669 JUMP JUMPDEST JUMPDEST SWAP1 PUSH1 0x0 MSTORE PUSH1 0x20 PUSH1 0x0 KECCAK256 SWAP1 PUSH1 0x4 MUL ADD PUSH1 0x3 ADD PUSH1 0x0 SWAP1 SLOAD SWAP1 PUSH2 0x100 EXP SWAP1 DIV PUSH20 0xFFFFFFFFFFFFFFFFFFFFFFFFFFFFFFFFFFFFFFFF AND SWAP1 POP SWAP3 SWAP2 POP POP JUMP JUMPDEST PUSH1 0x4 PUSH1 0x20 MSTORE DUP1 PUSH1 0x0 MSTORE PUSH1 0x40 PUSH1 0x0 KECCAK256 PUSH1 0x0 SWAP2 POP SLOAD SWAP1 PUSH2 0x100 EXP SWAP1 DIV PUSH1 0xFF AND DUP2 JUMP JUMPDEST PUSH1 0x3 PUSH1 0x20 MSTORE DUP1 PUSH1 0x0 MSTORE PUSH1 0x40 PUSH1 0x0 KECCAK256 PUSH1 0x0 SWAP2 POP SWAP1 POP DUP1 SLOAD PUSH2 0xE59 SWAP1 PUSH2 0x155F JUMP JUMPDEST DUP1 PUSH1 0x1F ADD PUSH1 0x20 DUP1 SWAP2 DIV MUL PUSH1 0x20 ADD PUSH1 0x40 MLOAD SWAP1 DUP2 ADD PUSH1 0x40 MSTORE DUP1 SWAP3 SWAP2 SWAP1 DUP2 DUP2 MSTORE PUSH1 0x20 ADD DUP3 DUP1 SLOAD PUSH2 0xE85 SWAP1 PUSH2 0x155F JUMP JUMPDEST DUP1 ISZERO PUSH2 0xED2 JUMPI DUP1 PUSH1 0x1F LT PUSH2 0xEA7 JUMPI PUSH2 0x100 DUP1 DUP4 SLOAD DIV MUL DUP4 MSTORE SWAP2 PUSH1 0x20 ADD SWAP2 PUSH2 0xED2 JUMP JUMPDEST DUP3 ADD SWAP2 SWAP1 PUSH1 0x0 MSTORE PUSH1 0x20 PUSH1 0x0 KECCAK256 SWAP1 JUMPDEST DUP2 SLOAD DUP2 MSTORE SWAP1 PUSH1 0x1 ADD SWAP1 PUSH1 0x20 ADD DUP1 DUP4 GT PUSH2 0xEB5 JUMPI DUP3 SWAP1 SUB PUSH1 0x1F AND DUP3 ADD SWAP2 JUMPDEST POP POP POP POP POP DUP2 JUMP JUMPDEST PUSH1 0x0 PUSH1 0x6 DUP3 DUP2 SLOAD DUP2 LT PUSH2 0xEF0 JUMPI PUSH2 0xEEF PUSH2 0x1669 JUMP JUMPDEST JUMPDEST SWAP1 PUSH1 0x0 MSTORE PUSH1 0x20 PUSH1 0x0 KECCAK256 SWAP1 PUSH1 0x4 MUL ADD PUSH1 0x3 ADD PUSH1 0x0 SWAP1 SLOAD SWAP1 PUSH2 0x100 EXP SWAP1 DIV PUSH20 0xFFFFFFFFFFFFFFFFFFFFFFFFFFFFFFFFFFFFFFFF AND SWAP1 POP SWAP2 SWAP1 POP JUMP JUMPDEST PUSH1 0x0 PUSH1 0x5 DUP1 SLOAD SWAP1 POP SWAP1 POP SWAP1 JUMP JUMPDEST PUSH1 0x2 PUSH1 0x20 MSTORE DUP1 PUSH1 0x0 MSTORE PUSH1 0x40 PUSH1 0x0 KECCAK256 PUSH1 0x0 SWAP2 POP SWAP1 POP SLOAD DUP2 JUMP JUMPDEST DUP3 DUP1 SLOAD PUSH2 0xF5A SWAP1 PUSH2 0x155F JUMP JUMPDEST SWAP1 PUSH1 0x0 MSTORE PUSH1 0x20 PUSH1 0x0 KECCAK256 SWAP1 PUSH1 0x1F ADD PUSH1 0x20 SWAP1 DIV DUP2 ADD SWAP3 DUP3 PUSH2 0xF7C JUMPI PUSH1 0x0 DUP6 SSTORE PUSH2 0xFC3 JUMP JUMPDEST DUP3 PUSH1 0x1F LT PUSH2 0xF95 JUMPI DUP1 MLOAD PUSH1 0xFF NOT AND DUP4 DUP1 ADD OR DUP6 SSTORE PUSH2 0xFC3 JUMP JUMPDEST DUP3 DUP1 ADD PUSH1 0x1 ADD DUP6 SSTORE DUP3 ISZERO PUSH2 0xFC3 JUMPI SWAP2 DUP3 ADD JUMPDEST DUP3 DUP2 GT ISZERO PUSH2 0xFC2 JUMPI DUP3 MLOAD DUP3 SSTORE SWAP2 PUSH1 0x20 ADD SWAP2 SWAP1 PUSH1 0x1 ADD SWAP1 PUSH2 0xFA7 JUMP JUMPDEST JUMPDEST POP SWAP1 POP PUSH2 0xFD0 SWAP2 SWAP1 PUSH2 0x1012 JUMP JUMPDEST POP SWAP1 JUMP JUMPDEST PUSH1 0x40 MLOAD DUP1 PUSH1 0x80 ADD PUSH1 0x40 MSTORE DUP1 PUSH1 0x0 DUP2 MSTORE PUSH1 0x20 ADD PUSH1 0x60 DUP2 MSTORE PUSH1 0x20 ADD PUSH1 0x0 DUP2 MSTORE PUSH1 0x20 ADD PUSH1 0x0 PUSH20 0xFFFFFFFFFFFFFFFFFFFFFFFFFFFFFFFFFFFFFFFF AND DUP2 MSTORE POP SWAP1 JUMP JUMPDEST JUMPDEST DUP1 DUP3 GT ISZERO PUSH2 0x102B JUMPI PUSH1 0x0 DUP2 PUSH1 0x0 SWAP1 SSTORE POP PUSH1 0x1 ADD PUSH2 0x1013 JUMP JUMPDEST POP SWAP1 JUMP JUMPDEST PUSH1 0x0 PUSH2 0x1042 PUSH2 0x103D DUP5 PUSH2 0x13F9 JUMP JUMPDEST PUSH2 0x13D4 JUMP JUMPDEST SWAP1 POP DUP3 DUP2 MSTORE PUSH1 0x20 DUP2 ADD DUP5 DUP5 DUP5 ADD GT ISZERO PUSH2 0x105E JUMPI PUSH2 0x105D PUSH2 0x16CC JUMP JUMPDEST JUMPDEST PUSH2 0x1069 DUP5 DUP3 DUP6 PUSH2 0x151D JUMP JUMPDEST POP SWAP4 SWAP3 POP POP POP JUMP JUMPDEST PUSH1 0x0 DUP2 CALLDATALOAD SWAP1 POP PUSH2 0x1080 DUP2 PUSH2 0x16EC JUMP JUMPDEST SWAP3 SWAP2 POP POP JUMP JUMPDEST PUSH1 0x0 DUP3 PUSH1 0x1F DUP4 ADD SLT PUSH2 0x109B JUMPI PUSH2 0x109A PUSH2 0x16C7 JUMP JUMPDEST JUMPDEST DUP2 CALLDATALOAD PUSH2 0x10AB DUP5 DUP3 PUSH1 0x20 DUP7 ADD PUSH2 0x102F JUMP JUMPDEST SWAP2 POP POP SWAP3 SWAP2 POP POP JUMP JUMPDEST PUSH1 0x0 DUP2 CALLDATALOAD SWAP1 POP PUSH2 0x10C3 DUP2 PUSH2 0x1703 JUMP JUMPDEST SWAP3 SWAP2 POP POP JUMP JUMPDEST PUSH1 0x0 PUSH1 0x20 DUP3 DUP5 SUB SLT ISZERO PUSH2 0x10DF JUMPI PUSH2 0x10DE PUSH2 0x16D6 JUMP JUMPDEST JUMPDEST PUSH1 0x0 PUSH2 0x10ED DUP5 DUP3 DUP6 ADD PUSH2 0x1071 JUMP JUMPDEST SWAP2 POP POP SWAP3 SWAP2 POP POP JUMP JUMPDEST PUSH1 0x0 DUP1 PUSH1 0x40 DUP4 DUP6 SUB SLT ISZERO PUSH2 0x110D JUMPI PUSH2 0x110C PUSH2 0x16D6 JUMP JUMPDEST JUMPDEST PUSH1 0x0 PUSH2 0x111B DUP6 DUP3 DUP7 ADD PUSH2 0x1071 JUMP JUMPDEST SWAP3 POP POP PUSH1 0x20 PUSH2 0x112C DUP6 DUP3 DUP7 ADD PUSH2 0x10B4 JUMP JUMPDEST SWAP2 POP POP SWAP3 POP SWAP3 SWAP1 POP JUMP JUMPDEST PUSH1 0x0 PUSH1 0x20 DUP3 DUP5 SUB SLT ISZERO PUSH2 0x114C JUMPI PUSH2 0x114B PUSH2 0x16D6 JUMP JUMPDEST JUMPDEST PUSH1 0x0 DUP3 ADD CALLDATALOAD PUSH8 0xFFFFFFFFFFFFFFFF DUP2 GT ISZERO PUSH2 0x116A JUMPI PUSH2 0x1169 PUSH2 0x16D1 JUMP JUMPDEST JUMPDEST PUSH2 0x1176 DUP5 DUP3 DUP6 ADD PUSH2 0x1086 JUMP JUMPDEST SWAP2 POP POP SWAP3 SWAP2 POP POP JUMP JUMPDEST PUSH1 0x0 DUP1 PUSH1 0x40 DUP4 DUP6 SUB SLT ISZERO PUSH2 0x1196 JUMPI PUSH2 0x1195 PUSH2 0x16D6 JUMP JUMPDEST JUMPDEST PUSH1 0x0 DUP4 ADD CALLDATALOAD PUSH8 0xFFFFFFFFFFFFFFFF DUP2 GT ISZERO PUSH2 0x11B4 JUMPI PUSH2 0x11B3 PUSH2 0x16D1 JUMP JUMPDEST JUMPDEST PUSH2 0x11C0 DUP6 DUP3 DUP7 ADD PUSH2 0x1086 JUMP JUMPDEST SWAP3 POP POP PUSH1 0x20 PUSH2 0x11D1 DUP6 DUP3 DUP7 ADD PUSH2 0x10B4 JUMP JUMPDEST SWAP2 POP POP SWAP3 POP SWAP3 SWAP1 POP JUMP JUMPDEST PUSH1 0x0 PUSH1 0x20 DUP3 DUP5 SUB SLT ISZERO PUSH2 0x11F1 JUMPI PUSH2 0x11F0 PUSH2 0x16D6 JUMP JUMPDEST JUMPDEST PUSH1 0x0 PUSH2 0x11FF DUP5 DUP3 DUP6 ADD PUSH2 0x10B4 JUMP JUMPDEST SWAP2 POP POP SWAP3 SWAP2 POP POP JUMP JUMPDEST PUSH1 0x0 PUSH2 0x1214 DUP4 DUP4 PUSH2 0x1220 JUMP JUMPDEST PUSH1 0x20 DUP4 ADD SWAP1 POP SWAP3 SWAP2 POP POP JUMP JUMPDEST PUSH2 0x1229 DUP2 PUSH2 0x14D5 JUMP JUMPDEST DUP3 MSTORE POP POP JUMP JUMPDEST PUSH2 0x1238 DUP2 PUSH2 0x14D5 JUMP JUMPDEST DUP3 MSTORE POP POP JUMP JUMPDEST PUSH1 0x0 PUSH2 0x1249 DUP3 PUSH2 0x143A JUMP JUMPDEST PUSH2 0x1253 DUP2 DUP6 PUSH2 0x145D JUMP JUMPDEST SWAP4 POP PUSH2 0x125E DUP4 PUSH2 0x142A JUMP JUMPDEST DUP1 PUSH1 0x0 JUMPDEST DUP4 DUP2 LT ISZERO PUSH2 0x128F JUMPI DUP2 MLOAD PUSH2 0x1276 DUP9 DUP3 PUSH2 0x1208 JUMP JUMPDEST SWAP8 POP PUSH2 0x1281 DUP4 PUSH2 0x1450 JUMP JUMPDEST SWAP3 POP POP PUSH1 0x1 DUP2 ADD SWAP1 POP PUSH2 0x1262 JUMP JUMPDEST POP DUP6 SWAP4 POP POP POP POP SWAP3 SWAP2 POP POP JUMP JUMPDEST PUSH2 0x12A5 DUP2 PUSH2 0x14E7 JUMP JUMPDEST DUP3 MSTORE POP POP JUMP JUMPDEST PUSH1 0x0 PUSH2 0x12B6 DUP3 PUSH2 0x1445 JUMP JUMPDEST PUSH2 0x12C0 DUP2 DUP6 PUSH2 0x146E JUMP JUMPDEST SWAP4 POP PUSH2 0x12D0 DUP2 DUP6 PUSH1 0x20 DUP7 ADD PUSH2 0x152C JUMP JUMPDEST PUSH2 0x12D9 DUP2 PUSH2 0x16DB JUMP JUMPDEST DUP5 ADD SWAP2 POP POP SWAP3 SWAP2 POP POP JUMP JUMPDEST PUSH2 0x12ED DUP2 PUSH2 0x1513 JUMP JUMPDEST DUP3 MSTORE POP POP JUMP JUMPDEST PUSH1 0x0 PUSH1 0x20 DUP3 ADD SWAP1 POP PUSH2 0x1308 PUSH1 0x0 DUP4 ADD DUP5 PUSH2 0x122F JUMP JUMPDEST SWAP3 SWAP2 POP POP JUMP JUMPDEST PUSH1 0x0 PUSH1 0x20 DUP3 ADD SWAP1 POP DUP2 DUP2 SUB PUSH1 0x0 DUP4 ADD MSTORE PUSH2 0x1328 DUP2 DUP5 PUSH2 0x123E JUMP JUMPDEST SWAP1 POP SWAP3 SWAP2 POP POP JUMP JUMPDEST PUSH1 0x0 PUSH1 0x20 DUP3 ADD SWAP1 POP PUSH2 0x1345 PUSH1 0x0 DUP4 ADD DUP5 PUSH2 0x129C JUMP JUMPDEST SWAP3 SWAP2 POP POP JUMP JUMPDEST PUSH1 0x0 PUSH1 0x20 DUP3 ADD SWAP1 POP DUP2 DUP2 SUB PUSH1 0x0 DUP4 ADD MSTORE PUSH2 0x1365 DUP2 DUP5 PUSH2 0x12AB JUMP JUMPDEST SWAP1 POP SWAP3 SWAP2 POP POP JUMP JUMPDEST PUSH1 0x0 PUSH1 0x20 DUP3 ADD SWAP1 POP PUSH2 0x1382 PUSH1 0x0 DUP4 ADD DUP5 PUSH2 0x12E4 JUMP JUMPDEST SWAP3 SWAP2 POP POP JUMP JUMPDEST PUSH1 0x0 PUSH1 0x80 DUP3 ADD SWAP1 POP PUSH2 0x139D PUSH1 0x0 DUP4 ADD DUP8 PUSH2 0x12E4 JUMP JUMPDEST DUP2 DUP2 SUB PUSH1 0x20 DUP4 ADD MSTORE PUSH2 0x13AF DUP2 DUP7 PUSH2 0x12AB JUMP JUMPDEST SWAP1 POP PUSH2 0x13BE PUSH1 0x40 DUP4 ADD DUP6 PUSH2 0x12E4 JUMP JUMPDEST PUSH2 0x13CB PUSH1 0x60 DUP4 ADD DUP5 PUSH2 0x122F JUMP JUMPDEST SWAP6 SWAP5 POP POP POP POP POP JUMP JUMPDEST PUSH1 0x0 PUSH2 0x13DE PUSH2 0x13EF JUMP JUMPDEST SWAP1 POP PUSH2 0x13EA DUP3 DUP3 PUSH2 0x1591 JUMP JUMPDEST SWAP2 SWAP1 POP JUMP JUMPDEST PUSH1 0x0 PUSH1 0x40 MLOAD SWAP1 POP SWAP1 JUMP JUMPDEST PUSH1 0x0 PUSH8 0xFFFFFFFFFFFFFFFF DUP3 GT ISZERO PUSH2 0x1414 JUMPI PUSH2 0x1413 PUSH2 0x1698 JUMP JUMPDEST JUMPDEST PUSH2 0x141D DUP3 PUSH2 0x16DB JUMP JUMPDEST SWAP1 POP PUSH1 0x20 DUP2 ADD SWAP1 POP SWAP2 SWAP1 POP JUMP JUMPDEST PUSH1 0x0 DUP2 SWAP1 POP PUSH1 0x20 DUP3 ADD SWAP1 POP SWAP2 SWAP1 POP JUMP JUMPDEST PUSH1 0x0 DUP2 MLOAD SWAP1 POP SWAP2 SWAP1 POP JUMP JUMPDEST PUSH1 0x0 DUP2 MLOAD SWAP1 POP SWAP2 SWAP1 POP JUMP JUMPDEST PUSH1 0x0 PUSH1 0x20 DUP3 ADD SWAP1 POP SWAP2 SWAP1 POP JUMP JUMPDEST PUSH1 0x0 DUP3 DUP3 MSTORE PUSH1 0x20 DUP3 ADD SWAP1 POP SWAP3 SWAP2 POP POP JUMP JUMPDEST PUSH1 0x0 DUP3 DUP3 MSTORE PUSH1 0x20 DUP3 ADD SWAP1 POP SWAP3 SWAP2 POP POP JUMP JUMPDEST PUSH1 0x0 PUSH2 0x148A DUP3 PUSH2 0x1513 JUMP JUMPDEST SWAP2 POP PUSH2 0x1495 DUP4 PUSH2 0x1513 JUMP JUMPDEST SWAP3 POP DUP3 PUSH32 0xFFFFFFFFFFFFFFFFFFFFFFFFFFFFFFFFFFFFFFFFFFFFFFFFFFFFFFFFFFFFFFFF SUB DUP3 GT ISZERO PUSH2 0x14CA JUMPI PUSH2 0x14C9 PUSH2 0x160B JUMP JUMPDEST JUMPDEST DUP3 DUP3 ADD SWAP1 POP SWAP3 SWAP2 POP POP JUMP JUMPDEST PUSH1 0x0 PUSH2 0x14E0 DUP3 PUSH2 0x14F3 JUMP JUMPDEST SWAP1 POP SWAP2 SWAP1 POP JUMP JUMPDEST PUSH1 0x0 DUP2 ISZERO ISZERO SWAP1 POP SWAP2 SWAP1 POP JUMP JUMPDEST PUSH1 0x0 PUSH20 0xFFFFFFFFFFFFFFFFFFFFFFFFFFFFFFFFFFFFFFFF DUP3 AND SWAP1 POP SWAP2 SWAP1 POP JUMP JUMPDEST PUSH1 0x0 DUP2 SWAP1 POP SWAP2 SWAP1 POP JUMP JUMPDEST DUP3 DUP2 DUP4 CALLDATACOPY PUSH1 0x0 DUP4 DUP4 ADD MSTORE POP POP POP JUMP JUMPDEST PUSH1 0x0 JUMPDEST DUP4 DUP2 LT ISZERO PUSH2 0x154A JUMPI DUP1 DUP3 ADD MLOAD DUP2 DUP5 ADD MSTORE PUSH1 0x20 DUP2 ADD SWAP1 POP PUSH2 0x152F JUMP JUMPDEST DUP4 DUP2 GT ISZERO PUSH2 0x1559 JUMPI PUSH1 0x0 DUP5 DUP5 ADD MSTORE JUMPDEST POP POP POP POP JUMP JUMPDEST PUSH1 0x0 PUSH1 0x2 DUP3 DIV SWAP1 POP PUSH1 0x1 DUP3 AND DUP1 PUSH2 0x1577 JUMPI PUSH1 0x7F DUP3 AND SWAP2 POP JUMPDEST PUSH1 0x20 DUP3 LT DUP2 EQ ISZERO PUSH2 0x158B JUMPI PUSH2 0x158A PUSH2 0x163A JUMP JUMPDEST JUMPDEST POP SWAP2 SWAP1 POP JUMP JUMPDEST PUSH2 0x159A DUP3 PUSH2 0x16DB JUMP JUMPDEST DUP2 ADD DUP2 DUP2 LT PUSH8 0xFFFFFFFFFFFFFFFF DUP3 GT OR ISZERO PUSH2 0x15B9 JUMPI PUSH2 0x15B8 PUSH2 0x1698 JUMP JUMPDEST JUMPDEST DUP1 PUSH1 0x40 MSTORE POP POP POP JUMP JUMPDEST PUSH1 0x0 PUSH2 0x15CD DUP3 PUSH2 0x1513 JUMP JUMPDEST SWAP2 POP PUSH32 0xFFFFFFFFFFFFFFFFFFFFFFFFFFFFFFFFFFFFFFFFFFFFFFFFFFFFFFFFFFFFFFFF DUP3 EQ ISZERO PUSH2 0x1600 JUMPI PUSH2 0x15FF PUSH2 0x160B JUMP JUMPDEST JUMPDEST PUSH1 0x1 DUP3 ADD SWAP1 POP SWAP2 SWAP1 POP JUMP JUMPDEST PUSH32 0x4E487B7100000000000000000000000000000000000000000000000000000000 PUSH1 0x0 MSTORE PUSH1 0x11 PUSH1 0x4 MSTORE PUSH1 0x24 PUSH1 0x0 REVERT JUMPDEST PUSH32 0x4E487B7100000000000000000000000000000000000000000000000000000000 PUSH1 0x0 MSTORE PUSH1 0x22 PUSH1 0x4 MSTORE PUSH1 0x24 PUSH1 0x0 REVERT JUMPDEST PUSH32 0x4E487B7100000000000000000000000000000000000000000000000000000000 PUSH1 0x0 MSTORE PUSH1 0x32 PUSH1 0x4 MSTORE PUSH1 0x24 PUSH1 0x0 REVERT JUMPDEST PUSH32 0x4E487B7100000000000000000000000000000000000000000000000000000000 PUSH1 0x0 MSTORE PUSH1 0x41 PUSH1 0x4 MSTORE PUSH1 0x24 PUSH1 0x0 REVERT JUMPDEST PUSH1 0x0 DUP1 REVERT JUMPDEST PUSH1 0x0 DUP1 REVERT JUMPDEST PUSH1 0x0 DUP1 REVERT JUMPDEST PUSH1 0x0 DUP1 REVERT JUMPDEST PUSH1 0x0 PUSH1 0x1F NOT PUSH1 0x1F DUP4 ADD AND SWAP1 POP SWAP2 SWAP1 POP JUMP JUMPDEST PUSH2 0x16F5 DUP2 PUSH2 0x14D5 JUMP JUMPDEST DUP2 EQ PUSH2 0x1700 JUMPI PUSH1 0x0 DUP1 REVERT JUMPDEST POP JUMP JUMPDEST PUSH2 0x170C DUP2 PUSH2 0x1513 JUMP JUMPDEST DUP2 EQ PUSH2 0x1717 JUMPI PUSH1 0x0 DUP1 REVERT JUMPDEST POP JUMP INVALID LOG2 PUSH5 0x6970667358 0x22 SLT KECCAK256 0x5E SSTORE SUB 0xC3 0xDA PUSH26 0x1A91A4449AB7B580446CB60C502CC77BF357A1034CF4968DD79A PUSH5 0x736F6C6343 STOP ADDMOD SMOD STOP CALLER "
				},
				"gasEstimates": {
					"creation": {
						"codeDepositCost": "1193600",
						"executionCost": "infinite",
						"totalCost": "infinite"
					},
					"external": {
						"addManagers(address)": "infinite",
						"allMembersAddresses()": "infinite",
						"climberId(address)": "2902",
						"climberName(address)": "infinite",
						"contractManagers(uint256)": "5045",
						"createRoute(string,uint256)": "infinite",
						"firstAscend(uint256)": "5028",
						"isMember(address)": "2934",
						"mappingRouteClimber(address,uint256)": "25130",
						"owner()": "2534",
						"routes(uint256)": "infinite",
						"setClimberName(string)": "infinite",
						"setFirstAscent(address,uint256)": "infinite",
						"setOtherClimbersId(address)": "infinite",
						"totalUsers()": "2511",
						"usersArr(uint256)": "5046"
					}
				},
				"methodIdentifiers": {
					"addManagers(address)": "6b44efd3",
					"allMembersAddresses()": "19ddd85d",
					"climberId(address)": "d0f759cf",
					"climberName(address)": "ac9cf38c",
					"contractManagers(uint256)": "8c8a6927",
					"createRoute(string,uint256)": "9b3ad968",
					"firstAscend(uint256)": "b9f22dfa",
					"isMember(address)": "a230c524",
					"mappingRouteClimber(address,uint256)": "74ed6b50",
					"owner()": "8da5cb5b",
					"routes(uint256)": "726f16d8",
					"setClimberName(string)": "0f337ba7",
					"setFirstAscent(address,uint256)": "a052e52e",
					"setOtherClimbersId(address)": "3a485e14",
					"totalUsers()": "bff1f9e1",
					"usersArr(uint256)": "5b7eedf8"
				}
			},
			"storageLayout": {
				"storage": [
					{
						"astId": 3,
						"contract": "contracts/Yosemite.sol:Yosemite",
						"label": "owner",
						"offset": 0,
						"slot": "0",
						"type": "t_address"
					},
					{
						"astId": 25,
						"contract": "contracts/Yosemite.sol:Yosemite",
						"label": "contractManagers",
						"offset": 0,
						"slot": "1",
						"type": "t_array(t_address)dyn_storage"
					},
					{
						"astId": 29,
						"contract": "contracts/Yosemite.sol:Yosemite",
						"label": "climberId",
						"offset": 0,
						"slot": "2",
						"type": "t_mapping(t_address,t_uint256)"
					},
					{
						"astId": 33,
						"contract": "contracts/Yosemite.sol:Yosemite",
						"label": "climberName",
						"offset": 0,
						"slot": "3",
						"type": "t_mapping(t_address,t_string_storage)"
					},
					{
						"astId": 37,
						"contract": "contracts/Yosemite.sol:Yosemite",
						"label": "isMember",
						"offset": 0,
						"slot": "4",
						"type": "t_mapping(t_address,t_bool)"
					},
					{
						"astId": 40,
						"contract": "contracts/Yosemite.sol:Yosemite",
						"label": "usersArr",
						"offset": 0,
						"slot": "5",
						"type": "t_array(t_address)dyn_storage"
					},
					{
						"astId": 195,
						"contract": "contracts/Yosemite.sol:Yosemite",
						"label": "routes",
						"offset": 0,
						"slot": "6",
						"type": "t_array(t_struct(Route)191_storage)dyn_storage"
					},
					{
						"astId": 199,
						"contract": "contracts/Yosemite.sol:Yosemite",
						"label": "routesCount",
						"offset": 0,
						"slot": "7",
						"type": "t_uint256"
					},
					{
						"astId": 254,
						"contract": "contracts/Yosemite.sol:Yosemite",
						"label": "climberRouteBool",
						"offset": 0,
						"slot": "8",
						"type": "t_mapping(t_address,t_mapping(t_uint256,t_bool))"
					}
				],
				"types": {
					"t_address": {
						"encoding": "inplace",
						"label": "address",
						"numberOfBytes": "20"
					},
					"t_array(t_address)dyn_storage": {
						"base": "t_address",
						"encoding": "dynamic_array",
						"label": "address[]",
						"numberOfBytes": "32"
					},
					"t_array(t_struct(Route)191_storage)dyn_storage": {
						"base": "t_struct(Route)191_storage",
						"encoding": "dynamic_array",
						"label": "struct Yosemite.Route[]",
						"numberOfBytes": "32"
					},
					"t_bool": {
						"encoding": "inplace",
						"label": "bool",
						"numberOfBytes": "1"
					},
					"t_mapping(t_address,t_bool)": {
						"encoding": "mapping",
						"key": "t_address",
						"label": "mapping(address => bool)",
						"numberOfBytes": "32",
						"value": "t_bool"
					},
					"t_mapping(t_address,t_mapping(t_uint256,t_bool))": {
						"encoding": "mapping",
						"key": "t_address",
						"label": "mapping(address => mapping(uint256 => bool))",
						"numberOfBytes": "32",
						"value": "t_mapping(t_uint256,t_bool)"
					},
					"t_mapping(t_address,t_string_storage)": {
						"encoding": "mapping",
						"key": "t_address",
						"label": "mapping(address => string)",
						"numberOfBytes": "32",
						"value": "t_string_storage"
					},
					"t_mapping(t_address,t_uint256)": {
						"encoding": "mapping",
						"key": "t_address",
						"label": "mapping(address => uint256)",
						"numberOfBytes": "32",
						"value": "t_uint256"
					},
					"t_mapping(t_uint256,t_bool)": {
						"encoding": "mapping",
						"key": "t_uint256",
						"label": "mapping(uint256 => bool)",
						"numberOfBytes": "32",
						"value": "t_bool"
					},
					"t_string_storage": {
						"encoding": "bytes",
						"label": "string",
						"numberOfBytes": "32"
					},
					"t_struct(Route)191_storage": {
						"encoding": "inplace",
						"label": "struct Yosemite.Route",
						"members": [
							{
								"astId": 184,
								"contract": "contracts/Yosemite.sol:Yosemite",
								"label": "routeId",
								"offset": 0,
								"slot": "0",
								"type": "t_uint256"
							},
							{
								"astId": 186,
								"contract": "contracts/Yosemite.sol:Yosemite",
								"label": "title",
								"offset": 0,
								"slot": "1",
								"type": "t_string_storage"
							},
							{
								"astId": 188,
								"contract": "contracts/Yosemite.sol:Yosemite",
								"label": "grade",
								"offset": 0,
								"slot": "2",
								"type": "t_uint256"
							},
							{
								"astId": 190,
								"contract": "contracts/Yosemite.sol:Yosemite",
								"label": "firstAscent",
								"offset": 0,
								"slot": "3",
								"type": "t_address"
							}
						],
						"numberOfBytes": "128"
					},
					"t_uint256": {
						"encoding": "inplace",
						"label": "uint256",
						"numberOfBytes": "32"
					}
				}
			},
			"userdoc": {
				"kind": "user",
				"methods": {},
				"version": 1
			}
		}
	}
}